:020000022000DC
:1060000000000120756302005D6302005F6302000F
:106010006163020063630200656302000000000028
:1060200000000000000000000000000067630200A4
:1060300069630200000000006B6302006D630200F0
:10604000059F02006F63020015A302006F63020048
:106050006F6302006F630200C9A102006F63020058
:106060006F6302006F6302006F6302006F630200E0
:106070006F6302006F6302006F6302006F630200D0
:106080006F630200F17902006F6302006F63020028
:106090006F6302006F630200111203006F6302005E
:1060A0006F6302006F6302006F6302006F630200A0
:1060B0006F6302006F630200000000000000000038
:1060C0006F6302006F6302006F6302006F63020080
:1060D0006F6302006F6302006F6302000000000044
:1060E00000000000000000000000000000000000B0
:1060F00000000000000000000000000000000000A0
:10610000000000000000000000000000000000008F
:10611000000000000000000000000000000000007F
:10612000000000000000000000000000000000006F
:10613000000000000000000000000000000000005F
:10614000000000000000000000000000000000004F
:10615000000000000000000000000000000000003F
:10616000000000000000000000000000000000002F
:10617000000000000000000000000000000000001F
:10618000000000000000000000000000000000000F
:1061900000000000000000000000000000000000FF
:1061A00000000000000000000000000000000000EF
:1061B00000000000000000000000000000000000DF
:1061C00000000000000000000000000000000000CF
:1061D00000000000000000000000000000000000BF
:1061E00000000000000000000000000000000000AF
:1061F000000000000000000000000000000000009F
:10620000354936480A1A02D0072291438D4634494F
:1062100034480A1A06D00722914381F309880222E2
:1062200082F3148830483149314A00F044F831484B
:106230003149324A00F03FF831483249324A00F0E1
:106240003AF832483249334A00F035F83248334997
:10625000334A00F030F833483349344A00F02BF821
:1062600033483449344A00F026F83448344900228F
:1062700000F02CF833483449002200F027F8334866
:106280003349091A082902DB002202604160314AC1
:1062900090471F481F49884205D00268043003B464
:1062A000904703BCF7E700208646EC46002000211B
:1062B000294A9047FEE7884207D0521A05D0037852
:1062C00001300B700131013AF9D17047884202D098
:1062D00002700130FAE770470000012000E0002062
:1062E000000001200000012044470300EC2A0020A8
:1062F000D02D0020D0630200D0630200601F030095
:1063000044470300EC2A0020EC2A0020F020030080
:10631000F0200300F0200300F0200300F020030031
:10632000F0200300F0200300F020030044470300A6
:10633000284A0300D02D0020D02D0020D02D002091
:106340009045002090450020904500209045002079
:10635000906500209D630200DDB50200FEE7FEE7C8
:10636000FEE7FEE7FEE7FEE7FEE7FEE7FEE7FEE705
:1063700000F002B8FFF7FCBF0F484FF00701884359
:1063800085460E4880470E48016841F4700101605F
:10639000BFF34F8FBFF36F8FFFF732BF09480A4932
:1063A0000A4A884207D0521A05D0037801300B7090
:1063B0000131013AF9D17047000001209D98020097
:1063C00088ED00E0DC200300D82A0020EC2A002021
:1063D0007047000007B5044B0093044A402300F0C7
:1063E00032F803B05DF804FBF1630200D12D002008
:1063F0002DE9F84388461446B2B10F4B0F4E0325E2
:10640000002743F00109224608EB0701002005F0B0
:1064100023FB0744241A48B933782BB14FF47A4050
:10642000C847013D02D13570BDE8F88301233370C0
:10643000002CE8D1F8E700BFF0200300D02D0020A9
:10644000704705F039BBF0B595B01D4616460846B5
:106450000C4601F0F3FE1A9B0D93CDE9086500256B
:106460002B46082205A920460A958DF82C500C953C
:1064700001F000FF079B0293069B03939DF81430E5
:106480008DF8115003F00302012A1DD1BDF814202C
:10649000059DC3F3C203C2F383168DF81030B2001A
:1064A00008230EA9204601F0E5FEC5F3952508ABAB
:1064B0000093324602AB0EA9284600F05DFB204651
:1064C00001F0C0FE15B0F0BD022AF8D1BDF816509B
:1064D000C3F3C203C5F389158DF810300827082DC2
:1064E0002E4628BF08263B4632460EA9204601F01C
:1064F000C1FEAD1B08AB02AA31460EA8374400F01E
:106500009FFB002DEBD1DAE708B5FFF79AFF0448AF
:10651000042100F09BFA034B01225A7108BD00BF11
:10652000CC200300EC2A0020037813F0040216D0DC
:1065300003F00303012B03D0022B09D00120704785
:106540000A6800880232C0F3831002440A60F5E74B
:106550000B684288023303EB92130B60EEE71046A0
:10656000704700002DE9F04FDFF81CA187B00F46FF
:1065700000230446861C0DF1070015468DF80730F0
:1065800001F0C8F8DAF804203A60DAF8083003F5C8
:1065900080739B1A0AF21C470AF583690AF21448B1
:1065A000B3421AD30020002D69D004F00F039B01E1
:1065B00043F0050363F30F00DAF80430DAB2033274
:1065C00033444AF822009DF80700CAF8043001F06D
:1065D000C5F8012007B0BDE8F08F0121384601F071
:1065E00059FB484601F071FB404601F06EFBDAF8BA
:1065F00008000290C0B203300AEB800002A9FFF746
:1066000093FF029B30BBDAB20AEB8202D16803919E
:106610009A1C0133DBB20AEB83030292D3F80CB06D
:1066200001F00303012B22D0022B15D083464046F4
:1066300001F04EFB10B1029BCAF8083059463846AB
:1066400001F028FBDAF80830DAF8042003F580734B
:106650009B1AA5E7D8B2CEE7BDF80E30C3F3891375
:1066600003334FEA1B4B02EB93030293DFE7BDF8C2
:106670000C30C3F383134FEA1B4B1344F5E7A40517
:1066800044F0060098E700BFE42E0020064B0748C0
:1066900010B500221A7001F08AFD044610B90448B2
:1066A00001F032FE204610BDE42E0020E81F03005A
:1066B0002C21030030B50A4C71B10A4A0A49121B59
:1066C000D20800239A4201D1002030BD31F8235076
:1066D000854202D00133F5E7034654F83300F4E76E
:1066E000FC1F0300CC200300EC2A0020094B0139D9
:1066F00003EBC000032909D8DFE801F00A02040611
:106700000420704700797047407970470020704737
:1067100002207047FC1F030070470000034BD3E9C1
:106720000130C31A58425841704700BFE42E002080
:106730002DE9F04186B0FFF7F1FF0546002840F053
:10674000ED80774CC4F81804BFF34F8FA368029311
:10675000DBB2033304EB830002A9FFF7E5FE029BE3
:1067600018B1D4F81824002A5AD0DAB2991C01338F
:1067700004EB8202DBB204EB8303D268DB68049390
:1067800002F00303022B0392029154D1BDF80E30A4
:106790006448C3F38917502F3E4628BF502606F1A0
:1067A000080166F38F13C1F30901ADF80E3001F053
:1067B00016FD0546002800F09C8001F03FFD0023F7
:1067C000082203A9284601F04BFD0299CB43DBB216
:1067D0000133C9B20331B6EB830F4FEA830204EBF6
:1067E000810125D95FFA82F80823A6EB080628461E
:1067F00001F036FDF6B208F108034B4903F0FC0343
:106800003246284601F02CFD029B033703EB970725
:106810000297D4F81834002B43D1D4F8106453E015
:1068200062689A4294D8A260284606B0BDE8F0811A
:1068300008233246E5E7012B5BD1BDF80C3039481F
:10684000C3F38311062928BF062161F3891302319E
:1068500001F00F018900ADF80C3001F0C0FC0546D5
:10686000002846D001F0EAFC0023082203A92846AC
:1068700001F0F6FC0026BDF80C20C2F38312B30031
:10688000964203F10803C4D202994A1CC9B20331EB
:10689000029204EB81010422284601F0E1FC01365A
:1068A000E9E7284601F0CEFCFFF738FF80F0010051
:1068B000C5B2B9E7F3685B7923B1336829461B6831
:1068C00030469847F3681E68002EF3D1284601F041
:1068D000B9FC0DF107008DF8076000F01BFFD4F83C
:1068E00018340BB9029BA3609DF8070000F036FF37
:1068F000DAE7D4F8104454B90C4B0D480D49C01ACE
:10690000C008000440F0020000F05EF8CCE7236805
:1069100020469B689847E3681C68ECE7002583E7FE
:10692000E42E0020E81F0300F02E0020FC1F0300CF
:1069300024200300142103002DE9F34704460E46EA
:10694000924601A9012218469946FFF70BFE1C4FFB
:1069500010B3019D4FF00008AA1CC84508EB0201C6
:1069600025D11848002101F04EF980F310000004F1
:1069700040EA1440E4006B1C04F03804DBB2EDB2D2
:1069800044F0010407EB8303033544EA881444EA26
:106990008624D86047F825403B781BB1FFF7C8FE36
:1069A0000028FBD1FFF7B8FE02B0BDE8F087C9B2FE
:1069B00007EB81015AF82830CB6008F10108CCE7D9
:1069C000E42E00200033002000231A46FFF7B4BF56
:1069D00007B50123019201AAFFF7AEFF03B05DF8EE
:1069E00004FB07B5CDE9002302236A46FFF7A4FFA5
:1069F00003B05DF804FB1FB5CDE90123069B0393AB
:106A000001AA0323FFF798FF05B05DF804FB1FB54B
:106A1000CDE90023069B0293079B03936A46042358
:106A2000FFF78AFF05B05DF804FB7FB5CDE90123D0
:106A3000089B0393099B04930A9B059301AA0523D2
:106A4000FFF77AFF07B05DF804FB000030B50F4C8C
:106A5000D4F8102403460020114631B9D9680871D2
:106A60004AB9C4F810340A6030BDC9680D7985424E
:106A700006D00968F1E7D26814680C601360F3E788
:106A800001300A28E8D14FF0FF30EDE7E42E002076
:106A900038B5084B0125D3F810441D7004B938BD32
:106AA000E3685D71236820465B689847E3681C686B
:106AB000F4E700BFE42E002030B5C38885B004465B
:106AC0000D4633B1144A00921449154A284601F084
:106AD00062F9217A05291DD0637A4BB1A088FFF7AE
:106AE00005FE104B104953F82020284601F053F9B9
:106AF000227A0E4BA08853F8222003920021FFF740
:106B0000D9FD039A0A490346284605B0BDE830403E
:106B100001F041B905B030BD582103004021030008
:106B200038210300C421030093390300E821030046
:106B30005D21030007B503460846197A052911D0DF
:106B40005B7A2BB1094A0A49019001F024F90198B6
:106B50000849019001F01FF9019803B05DF804EBBA
:106B600001F00EB9002AF8D0F2E700BF5821030067
:106B7000933903006E2B03002DE9F04385B01F46C7
:106B80000C9D002395F80C902B7306460C469046FE
:106B900029463846FFF790FFB8F1060F09D8DFE81D
:106BA00008F00412181F283340003146284601F02F
:106BB000F2F8002229463846FFF7BCFF85F80C9012
:106BC00005B0BDE8F08322683146284601F0E3F8BD
:106BD000EFE7D4E900233146284601F0DCF8E8E786
:106BE000A36800933146D4E90023284601F0D3F886
:106BF000DFE7E3680193A36800933146D4E90023FB
:106C0000284601F0C8F8D4E723690293E3680193AA
:106C1000A36800933146D4E90023284601F0BBF86D
:106C2000C7E76369039323690293E3680193A36849
:106C300000933146D4E90023284601F0ACF8B8E7C8
:106C400008292DE9F74F80460E4617461C463CD8CA
:106C5000002593F80C901D7319461046FFF72CFF82
:106C6000DFF888A0DFF888B0AE4231D918F80520E7
:106C70005946204601F08FF80135082DF4D1194905
:106C8000194DDFF870A0204601F085F84FF0000B99
:106C90005E4522D918F80B207E2A05D810460192AD
:106CA0000AF024FD019A00B92E225146204601F037
:106CB00072F80BF1010BBBF1080FE9D1012221465B
:106CC0003846FFF737FF84F80C9003B0BDE8F08F2B
:106CD0005146204601F05FF8CEE72946204601F0F4
:106CE0005AF8E6E7712103006F2103006D210300CC
:106CF0006721030073210300C30710B507D4F023F5
:106D0000054A4008145C23401943115410BD090181
:106D1000C9B20F23F4E700BFB033002030B5094BF0
:106D20001C78094B196800239C4202DC00221046A3
:106D300030BD11F83350854201EBC302F7D0013367
:106D4000F2E700BF9C330020C033002013B5044697
:106D50000191FFF7E3FF38B143682BB10199204659
:106D600002B0BDE81040184702B010BD034B044804
:106D700019680022490800F087BA00BFA03300203C
:106D8000F82A002010B5C0B2FFF7C8FF044600780B
:106D900003F010FA63785A1E53425341834208D1DC
:106DA000044BD3E90023134303D1BDE81040FFF7A0
:106DB000DDBF10BDA833002037B54308374AD35C88
:106DC000C2074CBF1B0903F00F0304460D46042BFA
:106DD00025D8DFE803F003262F3C4000F9B101215C
:106DE000FFF78AFF00230DF107008DF8073000F050
:106DF00091FC0120A4F12003C4F12001284A20FACB
:106E000001F100FA03F30B43A040D2E90041204313
:106E10000B43C2E900039DF8070000F09FFC03B09C
:106E200030BD002918BF0221204603B0BDE8304024
:106E3000FFF762BF49B10321FFF75EFF0121204642
:106E400003B0BDE83040FFF781BF0121ECE7002926
:106E5000E5D10421E8E709B10321E5E7FFF74CFF9D
:106E600029462046FFF772FF0DF107008DF8075005
:106E700000F050FC0120A4F12003C4F12001084AD5
:106E800020FA01F100FA03F30B43A040D2E90041DC
:106E900024EA000021EA0303BBE700BFB03300206F
:106EA000A83300202DE9F041124E134F002433780F
:106EB000A34208DC114BD3E90023134318D0BDE8EB
:106EC000F041FFF753BF3D6805EBC40815F83400E7
:106ED00003F070F998F801305A1E53425341181AC2
:106EE0004142414115F83400FFF766FF0134DEE707
:106EF000BDE8F0819C330020C0330020A83300207F
:106F0000092AF7B505460C4616463ED903F08AF81D
:106F1000E8B11F4B1F481D601F4B204F1C70204BBA
:106F2000002110221E600AF077FC1E4B0020002179
:106F3000C3E90001013CE4B20326FF2C0DD11A4A3B
:106F40001A48002103B0BDE8F04000F08BB903F00F
:106F50002BF80028DDD003B0F0BD9DF8063015F801
:106F600034008DF8046005EBC40223F007038DF8AC
:106F7000063001A993788DF805303A4603F05CF8A5
:106F8000013CE4B20028D8D0E5E70720E3E700BFE2
:106F9000C0330020B03300209C330020856D0200F8
:106FA000A0330020A8330020A56E020008220300B1
:106FB00070B5084D084E00242B789C4201D3002068
:106FC00070BD3368012113F8340003F0ADF80134CB
:106FD000F2E700BF9C330020C03300201FB5002122
:106FE000039001AA44F20100CDE9011100F004F878
:106FF00005B05DF804FB000038B572B6FFF748FD38
:10700000FFF796FB0028FBD1104B114C114D124994
:10701000E41AE408240444F00100FFF7D5FCD5F895
:10702000F030DB0700D500BE0C4944F00200FFF74A
:10703000CBFCBFF34F8FEA68094B02F4E0621343C5
:10704000EB60BFF34F8F00BFFDE700BFFC1F0300E5
:107050002420030000ED00E00C22030018220300AE
:107060000400FA0549B152B1531E1A4007D182609B
:1070700001608380C260104670470E20704709206F
:10708000704710B58468C2688388121B934208D386
:10709000C26813400268D154C3680133C360002042
:1070A00010BD0420FCE78268C3689A420AD0826857
:1070B000838813400268D35C0B708368013383605C
:1070C000002070470520704710B5D0E90243D1E990
:1070D0000202A04272EB03032CBF0120002010BD6E
:1070E00008B50A4800F06DFC094AD2E90031C01821
:1070F000084BD3E9002341F10001904271EB0303F7
:1071000003D210F1807041F1000108BD182B00205E
:10711000C83300204034002037B505460C460A48E5
:1071200001A900F0A4FC60B10570446001A9064803
:1071300000F0C7FC18B1054800F048FC002003B07F
:1071400030BD0420FBE700BF2C340020182B0020AA
:10715000294B73B51E7804461EB90026304602B08E
:1071600070BD0028F9D0FFF7BBFFD4E9022390429D
:10717000994139D300230DF107008DF8073000F055
:10718000C9FA23692BB94FF0FF324FF0FF33C4E93E
:1071900002239DF8070000F0E1FAD4E90530984792
:1071A00000250DF107008DF8075000F0B3FA2369B0
:1071B000C3B1D4E90212B2F1FF3F08BFB1F1FF3F02
:1071C00005D05B1842F10002C4E9023235469DF851
:1071D000070000F0C3FA002DBFD00848214601F097
:1071E000B2F8BBE71D46F2E7B3F1FF3F08BFB2F1CB
:1071F000FF3FB2D0F1E700BFD033002034220300BC
:1072000013B5114B114918680190082310485822F2
:1072100000F0F8FB044698B90E4A0F4801A900F0A7
:10722000C1FA044660B90C48012100F0ADFB01230E
:107230000A4A0948194600F00FFB094B01221A704F
:10724000204602B010BD00BF30220300D43300201E
:107250002C34002041730200182B0020FFFF7F0018
:10726000D033002030B56AB103684FF0FF344FF0DF
:10727000FF355A614A1E5142C3E902455141196125
:10728000002030BD0720FCE7F7B5044600250DF1CE
:10729000070017460E468DF8075000F03BFAD4E978
:1072A0000223B3F1FF3F08BFB2F1FF3F07D1FFF761
:1072B00017FF301841F10001C4E9020101259DF8D2
:1072C000070000F04BFA55B12369A76103B12661AD
:1072D0002146002003B0BDE8F040FFF71DBF28465F
:1072E00003B0F0BD37B5054600240DF107008DF859
:1072F000074000F00FFAD5E90223B3F1FF3F08BFC2
:10730000B2F1FF3F1FBF4FF0FF324FF0FF33C5E92F
:10731000022301249DF8070000F020FA34B1294629
:10732000012003B0BDE83040FFF7F6BE204603B0B1
:1073300030BD0000014800F044BB00BF182B002006
:107340002DE9F743064600F027FB40B1624AD2E937
:10735000003113F1807341F10001C2E900310021D5
:10736000304600F028FB38B15C4C236823B120681C
:10737000FFF7EEFE002323600121304600F01BFBE7
:1073800020B1FFF7ADFE564BC3E900015548534C01
:1073900001A900F0A6FB4FF0FF384FF0FF39A0B96C
:1073A000DFF844814D4D404600F0E3FF002800F037
:1073B0008580D0E90223B3F1FF3F08BFB2F1FF3F60
:1073C00032D1404600F0CFFFEDE70378012B20D00B
:1073D000022B08D1444D284600F0C5FF002877D085
:1073E000C0E90289F7E75BB94168D1E90223B3F14B
:1073F000FF3F08BFB2F1FF3F02D03B4800F0A3FFC0
:1074000001A9384800F098FB01A9364800F069FB53
:10741000C5E741682368994202D100232360EFE762
:10742000314800F0A9FFEBE7296891B12968D1E95B
:10743000020182428B412FD22B68D3E90223B3F1A0
:10744000FF3F08BFB2F1FF3F03D02968404600F07C
:107450007AFF404600F087FFD0E902490746FFF770
:107460003FFE201A69EB0109012879F1000318DBBE
:10747000B0F5350F13D3FFF75DFF1C4A02441C48DB
:107480004FF49603002100F007FA90B92B6813B966
:10749000304600F0D9F92F6003B0BDE8F0832246F2
:1074A000EDE71348002100F07CFA3846FFF750FE64
:1074B00001E00D28F9D000232B6074E7074B1B680F
:1074C000002BE9D1304603B0BDE8F04300F0C0B96D
:1074D000084B01221A7093E7C8330020483400207B
:1074E000403400202C34002034220300FFFFB4007D
:1074F000182B0020D03300200648074A037807499C
:10750000D35C012213B1043003F064BB0C3003F0F0
:1075100027B900BF202B00209436002074340020AF
:107520000648074A03780749D35C012213B10430A7
:1075300003F002BB0C3003F0C3B800BF202B0020C7
:10754000943600207534002037B50578012D0DD014
:10755000022D30D075B91F491F48FFF7A4FD002840
:1075600034D103B0BDE83040FFF7DABF037A1BB96E
:10757000FFF7C2FF03B030BD4368184C19782046AE
:10758000FFF77FFD80B18DF800500190144B6846E5
:107590001B689847A168E368A2885B1A9A42E7D201
:1075A000104B01221A70E5E7A268E3689A42F1D015
:1075B0008DF80000EAE7C3688DF800500193FFF7EB
:1075C0009BFF074B68461B689847D3E703238DF85A
:1075D0000030F6E775340020643400205034002079
:1075E0004C34002060340020F0B51F46234B89B096
:1075F00004461A600D4600293DD08A882048096853
:10760000FFF730FD002834D1AA89A9681D48FFF78B
:1076100029FD00282DD11C4E0FCE6D460FC596E8D2
:107620000F0085E80F0063690693237C174A18480A
:107630008DF81C70003B18BF01238DF81430637C5B
:10764000002B14BF0E2300238DF81530E36802933E
:10765000A36803932368019369466368009302F06B
:10766000D9FB30B90B4B18702368013301D0FFF7F9
:1076700043FF09B0F0BD0720FBE700BF4C340020FA
:107680005034002064340020402203004975020079
:10769000202B00206034002070B5084D01460848BA
:1076A0002E78FFF700FD044636B100232B70FFF75C
:1076B00023FF08B1FFF792FC204670BD6034002024
:1076C0005034002010B501460E48FFF7DAFC04469E
:1076D000A8B90D480D4A0378D35C63B1043003F0B8
:1076E0001FFA60B90A490748FFF7DDFC38B9BDE861
:1076F0001040FFF715BF0C3002F0D6FFF1E720462F
:1077000010BD00BF64340020202B002094360020E0
:107710007534002070B5EFF3108672B60C4A946889
:1077200001239CB993600B4B0B4DD3F8801029407B
:107730001160C3F88050D3F8841051604FF0FF32CD
:10774000C3F88420047006B962B670BD0370FAE70E
:107750007834002000E100E0FC06FFBD084B9A6889
:1077600010B55AB150B9EFF3108172B6054A1C68D2
:1077700014605C685460986001B962B610BD00BFC7
:107780007834002000E100E0435882B03BB1002390
:10779000435043580193019B012002B070471846A3
:1077A000FBE70000F8B5204B4479204E43F8242035
:1077B0001F4A204B06EBC4049B1A2279DB081B04EA
:1077C00032B143F002001C49FFF7FEF80820F8BD73
:1077D00002680C88C2F8084590F904508A78047948
:1077E0005201002DD2B219DB14494F1987F800233A
:1077F00001226D0904F01F0402FA04F441F8254047
:10780000427906EBC201012446F832000C7143F0C4
:1078100003000B49FFF7D8F80020D8E7094904F026
:107820000F040A55ECE700BF8C340020843400209C
:10783000FC1F0300342003006022030000E100E08D
:107840008222030014ED00E0036801221A607047F1
:10785000036801225A60704773B501F15005AD000D
:107860000068ADB24FF480348C400026C0F8084365
:10787000C0F84843465101F5A8714559019522F0D9
:107880007F42019D40F82120C0F844430BB1C0F86D
:10789000044302B070BD00002DE9F74F0D4622F001
:1078A0007F4402684FF4803705F150068F408046D0
:1078B000B60002EB8500C2F84873B6B2C2F808738E
:1078C000D2F8041599464FF0000BD0F84035C0F8B7
:1078D000401542F806B05B1A9259009223F07F439C
:1078E000012B009A4FEA850A0CD1264B4FF4806099
:1078F00043F001039847D8F8003043F806B09B598D
:107900000193019BD8F80010D1F80465C1F84473C5
:10791000A31B23F07F43012B1CD11A4B05F5A8753F
:10792000013443F0010341F825404FF4806098474B
:10793000D8F80030D3F804359E4209D1D8F8003089
:107940000020C3F84473C3F8047303B0BDE8F08F9C
:107950000D20FAE78A44C9F1FF13CAF84045D1F86F
:107960000405221A013A22F07F4203F57F43934235
:10797000EED3002AE2D10134CAF84045D1F80435EB
:107980009842DAE7A022030003680222C3F84423E6
:1079900009B1C3F80423704700684FF48271FFF700
:1079A000F3BE4FF4803303FA01F10368C3F84813C0
:1079B000C3F80813704750318900006889B2FFF797
:1079C000E3BE0368D3F804057047000090F9043063
:1079D000002B09DB5A09012103F01F0301FA03F30D
:1079E0004032024941F82230704700BF00E100E018
:1079F000024B034A1B681068184700BF8C340020F4
:107A00008434002010B561B1B2FBF3F403FB1424FD
:107A1000A4B244B9C0E9001484608281C3812046C5
:107A200010BD0E20FCE70920FAE782B050E8022FD3
:107A3000C188B2EB324F4FF0000317BF92B241EA58
:107A4000014142EA014104E04268B2EB324F08BF13
:107A5000012340E80212002AE8D18DF807309DF892
:107A60000730002B0CBF1120002002B0704737B543
:107A700050E8013F9DB2C48925448489A54228BFAE
:107A80002D1B0489A54202BFBFF32F8F002207E000
:107A9000C5EA030540E80154002CE9D14FF001028A
:107AA0008DF803200193019A0A609DF8031001F0FC
:107AB000FF0321B1006810FA82F003B030BD184610
:107AC000FBE70A884B889A4209D150E8012FC2EAA5
:107AD000024240E80123002BF7D10120704700202B
:107AE000704737B550E8023F1FFAA3F5C488A54296
:107AF00002BFBFF32F8F00220DE0C4892544848983
:107B0000A54228BF2D1BC3EA054540E80254002CBE
:107B1000E8D14FF001028DF803200193019A0A6029
:107B20009DF8031001F0FF0321B1006800EB124043
:107B300003B030BD1846FBE70A884B889A4209D14A
:107B400050E8022FC2EA224240E80223002BF7D17C
:107B5000012070470020704701F01F024B090121EE
:107B6000914000EB830000F065B84B0910B501F0BF
:107B70001F040121A14000EB830000F04FF8E0401A
:107B800000F0010010BD01F01F0301229A404B09D3
:107B900000EB8300D14300F065B84B0901F01F01F1
:107BA00050F82300C84000F0010070472DE9F0476D
:107BB0004F1E7F0980460E460137002558F82540A4
:107BC00008EB8509E44394FAA4F4B4FA84F44FEA88
:107BD000451A202C06D10135AF42EFD83446204655
:107BE000BDE8F0875444A642F5D921464046FFF748
:107BF000BCFF0028F3D0D9F80040E44394FAA4F481
:107C0000B4FA84F4E5E710B5034653E8000F0A46DA
:107C100043E8002494F0000FF7D110BD10B50346DF
:107C200053E8000F40EA010243E8002494F0000FFB
:107C3000F6D110BD10B5034653E8002F42EA01000B
:107C400043E8000494F0000FF6D110BD10B50346D0
:107C500053E8000F00EA010243E8002494F0000F0B
:107C6000F6D110BD10B5034653E8002F02EA01001B
:107C700043E8000494F0000FF6D110BD10B50346A0
:107C800053E8000F00EB010243E8002494F0000FDA
:107C9000F6D110BD10B5034653E8002F02EB0100EA
:107CA00043E8000494F0000FF6D110BD10B5034670
:107CB00053E8002FA2EB010043E8000494F0000F0A
:107CC000F6D110BD0121FFF7A9BF0121FFF7B2BF17
:107CD0000021FFF7BBBF10B590B1D0E901230168C7
:107CE0009B1ADBB20A60013BDBB2FF2B026802D1B8
:107CF0000020107110BD11684C1C14600B70F2E76D
:107D00000E20F7E737B5054600240DF107008DF882
:107D10000740FFF7FFFC2A686B68116899420ED98B
:107D2000481E106011F8013CEC68298A01FB0344ED
:107D3000AB6811791B1ADBB2994238BF13719DF8F9
:107D40000700FFF70BFD204603B030BD37B50546F1
:107D500000230DF107000C468DF80730FFF7DAFC21
:107D60002A681368591C1160E968641A298AB4FBEF
:107D7000F1F41C709DF80700FFF7F0FC03B030BD74
:107D8000826810B504462AB14369016800699847C2
:107D90000023A36010BD0EB403B5039921B104AB59
:107DA00001AA019300F076F802B05DF804EB03B08D
:107DB00070470A2938B504460D4602D10D21FFF758
:107DC000F8FFA3682268591CA160D554D4E9013298
:107DD0009A4204D32046BDE83840FFF7D1BF38BDF2
:107DE0002DE9F84F9846DDE90A43154682460F46CD
:107DF0000A464FF00109AA420FD2C14538BFC14619
:107E000013F0010B01D16CB900240126B8F1010F68
:107E10001BD908F1FF386E43F8E709F10109B2FBFD
:107E2000F5F2E8E79B070ED5B8F1000F0CBF30263E
:107E30002026A145E9D2013C31465046FFF7B9FF63
:107E4000002CF6D1E0E72026F3E7B7FBF6F39D42DE
:107E5000E1D9DFF83C80B7FBF6F3504618F8031081
:107E600006FB1377FFF7A5FF3346AB42B6FBF5F6EB
:107E7000F1D2BBF1000F02D00CB1A14501D3BDE896
:107E8000F88F20215046013CFFF793FFF4E700BF35
:107E9000A62203002DE9F74F05461746884600291C
:107EA00000F03E8118F8011B49B92B7B002B00F034
:107EB0003781284603B0BDE8F04FFFF761BF2529A1
:107EC00040F0B780002698F800302D2B424608F18C
:107ED000010823D0302B24D02B2B25D000242A2B93
:107EE00002F1010123D13B681A1D1B683A601C4452
:107EF0000A4613782E2B26D101324FF0000A104685
:107F000010F8011BA1F1300CBCF1090F1DD80A2398
:107F100003FB0A13A3F1300A0246F0E746F001061C
:107F2000D1E746F00206CEE746F00406CBE711F8AB
:107F3000013CA3F130000928DBD80A2202FB0434FB
:107F4000303C0A46CBE74FF0000A12F8011B01F063
:107F5000FB0068289046F8D0782909D86F290CD8FA
:107F6000632962D022D8252963D0582900F088805F
:107F700098F80030002B95D197E770390829F7D889
:107F800001A353F821F000BFFB800200717F0200C3
:107F9000717F020091800200717F02006F800200F9
:107FA000717F0200717F020081800200642901D08C
:107FB0006929DDD13A68D2F80090111D89EAE97289
:107FC0003960A2EBE9724FF0010B092A35DCD34589
:107FD00038BFD3462CB1B9F1000F01DB720700D5D1
:107FE000013CB30702D5BAF1000F03D0F00701D46A
:107FF0004CBB0024B9F1000F2DDAC9F100092D2185
:108000002846FFF7D6FE06F00302022A04D1BAF191
:10801000000F01D11CBB0024CDE9004653460A22C3
:1080200049462846FFF7DCFEA2E73B681A1D19788F
:108030003A602846FFF7BDFE9AE70A230BF1010BD1
:10804000B2FBF3F2C1E7A345D4D220212846013C7C
:10805000FFF7AFFECCE77107D5D52B21D0E7A345BD
:10806000DAD230212846013CFFF7A3FED2E7396877
:10807000CDE900460A1D3A6053460A220968D0E756
:1080800039680A1D3A60CDE9004653461022F5E7EB
:108090003B681A1D3A6016F00106D3F8009024D10F
:1080A000B9F1000F03D0484609F00BFC0646B44274
:1080B0001DD809F1FF3919F8011F00293FF458AF05
:1080C0002846FFF776FEF6E728460136FFF771FEF1
:1080D00019F806100029F7D1A642BFF449AF2021B4
:1080E0002846013CFFF765FEF6E70026F0E7202171
:1080F0002846013CFFF75DFED9E73B681A1D3A6050
:10810000302128461C68FFF754FE78212846FFF7E7
:1081100050FE00220823CDE900322146102280E7DC
:1081200003B0BDE8F08F00BF2DE9F84FB0F806A00E
:108130004579D2F800B09DF828900AFB05F5043D7A
:1081400088460BEB0301A94203F1040488BFA5EBA9
:10815000030BB4FBFAF607460AFB1644C2F800B05C
:108160004EB9AAEB04055D4528BF5D46BBF1000F83
:1081700004D1BDE8F88F3F68013EF1E7043408EB15
:1081800006003C442A46B9F1000F0DD02146ABEB66
:10819000050B09F018FBDA452E443F6855464FF0B1
:1081A000000428BF5D46E1E701462046EFE7FFF700
:1081B00092BDF8B546790146721E054600239342EA
:1081C0002D6803D30024A64202D8F8BD0133F6E798
:1081D0000F682846FFF7BAFD01343946F3E72DE969
:1081E000F843068ACD1C0746FFF78CFD043E354454
:1081F0000446B5FBF6F5F0B14FF48073EDB2838021
:10820000C680013D076081464FF00008A84512D2A4
:108210003846FFF777FD064648B16379013363714D
:1082200008F10108C9F8000007608146EEE7204622
:10823000FFF7BFFF34462046BDE8F8830121043034
:10824000FFF728BD10B5012104460430FFF72EFDCD
:10825000C0B220B92046BDE81040FFF7AABF10BD4C
:108260001FB503920022009203AAFFF75DFF05B03D
:108270005DF804FB1FB503920122009203AAFFF7E9
:1082800053FF05B05DF804FB41DF7047064B10B5A6
:1082900000241C70054B1C60BFF35F8F0449054828
:1082A00000F03BF8204610BD983400209C3400209C
:1082B000C02203009034002007B500230DF1070011
:1082C0008DF80730FFF726FAF1EE103A23F09F03FE
:1082D000E1EE103ABFF35F8F0A4B4022C3F88421CE
:1082E0009DF80700FFF73AFA08F078FF20B103B0D5
:1082F0005DF804EBFFF7C8BF20BF40BF20BF03B04D
:108300005DF804FB00E100E0836800225A60C3E9E5
:1083100004229A60DA601A6070470B684A6843600A
:10832000934208BF0023016008BF43607047436861
:1083300043B10268916852680B449342436004BFA2
:1083400000234360704770B5446806460D462068B8
:1083500018B1B3682946984718B923682B6025607F
:1083600070BD2468F3E74368186808B102681A60B2
:1083700070474368186870474368186800B97047C9
:10838000884203D102681A600120704703460068E2
:10839000F4E7000010B50D49A1F59472914201D89F
:1083A00000200FE08C1AE30F03EBE4035B1002EBF9
:1083B000C30452F83330834205D802D204F10802D4
:1083C000ECE7606810BD2146E8E700BFCC2703005A
:1083D00008B5FFF7DFFF024B002808BF184608BDAD
:1083E0008F26030010B50446C0B2FFF76BF9204694
:1083F00010BD000070B5064D0646002455F8043B3C
:108400000BB1304698470134042CF7D170BD00BF42
:10841000AC3400204388033300EB830399420BD331
:1084200082884FF6FF739A4208D0038833B1806880
:10843000431C584258417047022070470120704742
:10844000033080B240F2FE33984230B51FD8134B50
:108450001A783AB91C895D892C440444A4B2B4F555
:10846000806F0AD91A7DAAB99A8BDC8B2244024408
:1084700092B2B2F5806F0DD801220A801446142200
:1084800002FB04335A8910445881002030BD48F261
:108490000860FBE748F20660F8E700BFE034002020
:1084A0000B4A0C495388142000FB0311CB6833B9E5
:1084B0000420496810700122074800F0D1BF074925
:1084C0000523137002238B80012209680023F3E740
:1084D000C4340020E0340020D82A0020A835002031
:1084E00007B5002305490093054A09680548082394
:1084F00000F01CFF03B05DF804FB00BFA8350020AE
:10850000D8270300D82A002007B50023014600938E
:10851000034A0448082300F009FF03B05DF804FB98
:10852000D0270300D82A002013B500230C4600935F
:108530000146084A0848042300F0F8FE38B9074B02
:10854000142101FB043101230B7402B010BD48F269
:108550000D60FAE7CC270300D82A0020E034002081
:1085600037B50A480A4B42689C8819685388032526
:10857000033305709BB2002000909B0001EB840147
:10858000044800F0D3FE03B030BD00BFC434002067
:10859000A8350020D82A002010B501460448FFF76E
:1085A00066FA1C220446002109F036F9204610BD67
:1085B0009435002068B10268084B9A4209D140689E
:1085C000074B984207D00133984214BF0320012083
:1085D0007047032070470020704700BFDEC0ADDE4B
:1085E000FE011EF12DE9F0410D460223154F2B80AF
:1085F000164600F5805100F108044FF001088C4246
:108600000ED2236801330BD02046FFF703FF48B199
:108610000EB186F80080022809D14FF480632B80C8
:10862000BDE8F081A3683A68934200D93B602B888B
:108630006288033313442B806388033304EB830481
:10864000DDE700BFD834002038B5144B14220D46A6
:1086500002FB00302B68446804F58051A3B15C88AC
:10866000033403EB84048C4215D22368013312D007
:108670002046FFF7CFFE012808D002280BD00028A3
:10868000F1D12C60012038BD0834ECE76388033356
:1086900004EB8304E7E70020F5E700BFE0340020A7
:1086A000426873B504460D466AB3234BD9688A42C3
:1086B00029D31B699A4226D812F0030323D11F49FC
:1086C0000089098988421ED12068916888421AD1A0
:1086D0001B4841688A4203D901F580518A420DD373
:1086E00081698A420CD901F580518A4208D201225F
:1086F0002A80B3FA83F0400902B070BD1A46F7E74A
:1087000048F20963F5E700262E800196288801A922
:10871000FFF79AFF30B92B8801339BB2012B2B80D6
:10872000F3D9E9E7019B226899689142EED1636031
:10873000024B1B892381DFE7D82A0020C4340020A4
:10874000E03400202DE9F8431C461D4B1B780646FB
:108750000F46154673B382B37CB3DFF86C804FF0DD
:108760001409A388012B02D948F2096020E009FB13
:1087700003F318F803302BB9A0882146FFF764FFF4
:1087800020B92060A3880133A380EAE723681EB1E3
:10879000998832889142EFD11FB119883A88914265
:1087A000EAD19A68C5E90023064B1B892B8100207A
:1087B000BDE8F88348F20160FAE748F20460F7E7A1
:1087C000BC340020C4340020E034002008B5074B3E
:1087D0005888191DFFF738FF18B1BDE80840FFF7AA
:1087E000BFBEBDE80840FFF75BBE00BFC434002039
:1087F0002DE9F0479F4FDFF8A08288B006463B681E
:1088000023B99D484146FFF76CF938603D682978E7
:108810004B1E052B07D8DFE813F02000740074000E
:10882000060106015E0148F20E641422002103A82D
:1088300008F0F2FF41F61D539C4208BF00243B683C
:1088400004941A78023A042A00F2FC81DFE812F05C
:10885000DD01E9010B0213021A022EB1874B00223F
:108860005A604FF40644E0E72B79032B1CD8DFE86D
:1088700003F014022A35824A1378022B1AD0137D92
:10888000022B4FF0010317D114214B43D1180020C4
:10889000D0544868FFF738FE03E001232B71FFF73F
:1088A0001FFE002800F0B980744B00225A6048F285
:1088B0000D64BAE70023E7E7704A137000235360A2
:1088C00041F61D54B1E76F496F48002302222B7116
:1088D0008A800968012200F0C3FDE2E76B4B684C17
:1088E0005B88684A14214B43E11800262E714D68BD
:1088F00010681560958848600D810221E6549180CA
:10890000C8E7B5F814A0AA7DDFF87491AEB1022AC9
:10891000EB8806D9142101FB0A91DA1C088902446C
:108920000A81142202FB0A99C3F57F43B9F80A2091
:10893000FD331344A9F80A3093E7142303FB0A9389
:1089400018895C6804EB8004062A69D8DFE802F025
:10895000274E36441D5A040041F61D54AA7DEB886B
:10896000022A06D9142101FB0A91DA1C0889024463
:108970000A81142202FB0A99C3F57F43B9F80A2041
:10898000FD331344A9F80A304FE741484149002319
:108990004360AB690360FFF783FE00285BD00223CE
:1089A000AB75002300930423EA182146364800F0F3
:1089B000BDFC002831D048F20D64CFE72B69002BB5
:1089C00014BF03230123AB750023009305F10C02B0
:1089D000042304F10801E9E70123AB750022EB88C9
:1089E00000922A699B0004F10C01DFE703290CBF08
:1089F00005230623AB7500230093042305F1080229
:108A0000E118D3E70623AB75224B1988204B586831
:108A1000FFF78AFD04460028A0D108B0BDE8F08722
:108A200048F20E649AE7002E7FF41BAF2B79012BDE
:108A300034D0022B3FF444AF002B7FF4F4AE02237A
:108A40002B710DF10A01EB68039303A8CDE90466CD
:108A5000FFF726FE10B948F20964E6E60498BDF86F
:108A60000A108388EB8003882B81FFF75DFD0446A5
:108A700027E000BFDC34002094350020BC34002007
:108A8000E0340020A8350020D82A0020C43400207B
:108A9000A0340020B4350020D43400207B4B03AA3E
:108AA0003146A81DFFF74EFE784B044668B99988F9
:108AB0000498FFF739FD044648F209639C423FF4ED
:108AC000FFAE002C7FF4B1AEA7E70822314618466E
:108AD00008F0A2FEF0E7002E7FF4C3AE6C4B1A7BC9
:108AE000B2B11E731A78013A062A3FF69CAE01A174
:108AF00051F822F09F8B0200C58B0200E38B02002D
:108B0000E98B020027880200EF8B0200018C020033
:108B10001A78072AE6D801A151F822F03D8B02000D
:108B2000E58A0200E58A0200638B0200778B02006F
:108B30009B8B02009B8B02005F8B02001A895549B8
:108B400001321A8100225A801A730A78B2FA82F22C
:108B500052099A720A7DB2FA82F25209DA7201223D
:108B600007E04D4958688A884088033202448A8069
:108B700002221A70B6E75C88464A4749142505FB6D
:108B800004220868546850608888108102200C60B4
:108B90008880002111740622EBE70722E9E79A7A20
:108BA00032B9DA7A8AB900221A705A805A6087E696
:108BB000384900229A72CA68002AF2D1097C002939
:108BC000EFD05A80FFF702FE51E70022DA72314AF5
:108BD000116A0029E7D192F82420002AE3D001226B
:108BE000EFE7FFF7BDFC42E7FFF75AFC3FE75A8883
:108BF000284B142101FB02335868FFF785FC36E748
:108C000000225A60FFF76CFC31E701228DF80C203E
:108C10001A89ADF818209A88DB68ADF81A200593F8
:108C200010E002228DF80C201A89ADF818209A88DD
:108C3000ADF81A20DA689B7D05929A1F5342534182
:108C40008DF81C3003A8FFF7D5FB002641461348DA
:108C50003E60FEF771FF12480121FFF727F8002858
:108C60007FF4CDADD9E603228DF80C20DA88ADF87B
:108C700018201A89D0E704228DF80C20DB88ADF883
:108C80001830DFE705238DF80C30DBE7B83500201E
:108C9000C4340020E0340020A835002094350020A2
:108CA000A43500204068FFF7A3BD000008B50548C3
:108CB0000121FEF7E3FF18B9BDE80840FFF798BDB2
:108CC00008BD00BFA43500202DE9F3419846374B7D
:108CD0001B7806460D46002B5CD000295DD0098824
:108CE0004FF6FF7399425BD06B88002B58D06B68AE
:108CF0009B0758D14AB92F890DF102013846FFF779
:108D00009FFB30B102B0BDE8F08113885788ADF801
:108D1000023001A8FFF740FC044660B9BDF802200C
:108D2000234B142101FB023358890338C01B58819F
:108D300048F20760E6E780F8008000238375BDF8FD
:108D4000023083826B68036101211A48FEF7A2FF9B
:108D50002B882381B8F1030F6B88A38004BF042301
:108D6000A3754FF0000508BF3368E06008BFA3613A
:108D70001148E780658101A9FEF7A3FE36B1E368DB
:108D800033600E4B75601B89B5723381FFF78EFF20
:108D90000020B7E748F20160B4E748F20460B1E7A9
:108DA00048F20360AEE748F20260ABE7BC34002053
:108DB000E0340020D834002094350020C434002052
:108DC00008B5034607480268042A08D00168064A25
:108DD00042F821300121FEF75DFF002008BD48F276
:108DE0000B60FBE7B0350020AC3400202DE9F04FDC
:108DF000DFF8208289B01422002103A808F00CFDBE
:108E000098F8003003F0FF0200923BB103A8FFF78F
:108E1000F1FA0027384609B0BDE8F08F08F10400E8
:108E2000FEF750FF0028F4D1009BDFF8ECA1D3F847
:108E3000F83F5C1C08BF4FF010234FF0805208BF72
:108E40005B6911695269581C08BF02FB01F3CAF83B
:108E500010306949A3F5405300225046CAF80C303F
:108E600000F032FA07460028D4D11C236349644835
:108E7000DFF8A8B18C22FEF7C5FD0323B9463D46B5
:108E800001933C46DAF80C604E443046FFF792FB03
:108E9000012867D0032817D000283DD159494FF049
:108EA000140C0CFB04FC01EB0C0201F80C005660E6
:108EB0000CF110020CF1080C0A4430466144FFF733
:108EC00091FB45F002054AE03268531C02D04E4B3C
:108ED0009A4239D1321D06F580511068013033D1E4
:108EE00004329142F9D1DBF800203AB90222012381
:108EF000CBF80060ABF8042000930BE0142262432F
:108F0000404B022099189854404A4E6054800134D6
:108F10000881A4B245F0010509F58059B9F5405F13
:108F2000B0D1019B012B98BF0025EDB2022D03D0DB
:108F3000062D36D0002D3ED1002388F8003048F2AF
:108F40000A67C8F8043065E7019B2E495A1E93B2A0
:108F50001422624388180193466003208854013428
:108F6000A4B2D9E7009B6BB1264B14226243991837
:108F700002209854DBF800204A60244A088154807B
:108F80000134A4B200222249CBF800603046FFF73A
:108F900029FBBBF80420022A0CBF04220822154337
:108FA000BAE7012388F8003003A80023C8F804308A
:108FB000FFF720FA2EE702A8FFF7EEFAC8B1012367
:108FC000013D03700A2D09D8DFE805F00608060800
:108FD000070807080F110F000023037102A90848B2
:108FE000FEF76FFDFFF762FE14E70323F5E70223A8
:108FF000F3E748F207670DE7BC29030008350020B6
:1090000094350020E0340020DEC0ADDEC434002002
:10901000AC350020BC340020D82A0020A835002020
:1090200073B50D460446C8B1C1B10DF10601FFF795
:1090300037FBB0B1BDF806300B486668142202FB5E
:10904000030001210C30FEF725FE63682E600C330F
:109050006B600123A372002002B070BD48F204606F
:10906000FAE748F20960F7E7E034002013B5044658
:10907000A8B10DF10601FFF713FB98B1BDF806206A
:109080000B4B142101FB0233DA6872B1A27A62B190
:10909000DA680020013ADA60A07202B010BD48F22E
:1090A0000460FAE748F20960F7E748F20560F4E780
:1090B000E034002002230022FFF706BE18B103238C
:1090C0000022FFF701BE48F204607047114B1B7885
:1090D00013B50446ABB14FF6FF73984214D001A804
:1090E000FFF75AFA98B10523037001230371C48076
:1090F00001A90948FEF7E5FCFFF7D8FD002002B002
:1091000010BD48F20160FAE748F20360F7E748F261
:109110000760F4E7BC340020943500200F4B1B7827
:1091200007B5A3B101A8FFF737FA98B1062303707A
:1091300001A90B48FEF7C5FC0A4B1A780AB10122B7
:109140001A73FFF7B3FD002003B05DF804FB48F28B
:109150000160F9E748F20760F6E700BFBC34002081
:1091600094350020C434002007B5ADF80600ADF8F2
:1091700004100DF1060001A9FFF7E4FA03B05DF851
:1091800004FB07B51346ADF806000A4600200DF1B2
:109190000601FFF7D7FA03B05DF804FB07B51346E5
:1091A000ADF806000A460DF106000021FFF7CAFAE5
:1091B00003B05DF804FB20B119B103680B60002017
:1091C000704748F2046070472DE9F84F3C4B1B781C
:1091D0000446002B6DD000286ED0DFF8E8901222F4
:1091E000002108F019FB032323804FF0000A4F46AB
:1091F00014264FF00108D9F80410B9F80AB0B9F8EC
:1092000008500846FFF7D6F9032808BF238862886C
:1092100004BF03F1FF33238006FB0A735D44DB6860
:109220001344638023899B446389A4F808B0ADB2DA
:109230002B446381C5F58065A389ADB2AB4238BFCD
:10924000A58101F1080501F58051A94229D92B68B2
:10925000013326D02846FFF7DDF801280AD002287E
:1092600015D00028F1D1A3880133A3800AE04FF084
:10927000010AC0E7E3880133E380E3896A880333A6
:109280001344E3816B88033305EB8305DDE7E38853
:1092900084F810804D1BE189013301EBA501E380C7
:1092A000E18109F11409BAF1000FE0D00020BDE816
:1092B000F88F48F20160FAE748F20460F7E700BF70
:1092C000BC340020E034002013B50B46114680B9B1
:1092D000104B1148114AC01A0E23C0080093104BBE
:1092E0000004104940F00100FDF785FB0E2002B09C
:1092F00010BD4BB9074B08480B4AC01AC0080E23D3
:1093000000930004064BECE703601B6802B0BDE865
:1093100010401847FC1F030054200300E0270300FF
:109320009C290300E5270300142803002DE9F743D7
:10933000DDF8288088B93E4B3E483F4AC01AC00835
:109340000E243E4B009400043D4940F00100FDF71F
:1093500052FB204603B0BDE8F0834AB9344B354890
:10936000384AC01AC0080E24344B00940004EBE7BE
:10937000D0F800E0BEF1000F09D12D4B2D48324A44
:10938000C01AC00808242D4B00940004DCE74BB938
:10939000274B28482D4AC01AC0080924274B00949F
:1093A0000004D1E74568D5F80490B3FBF9F509FB53
:1093B00015354DB11E4B1F48254AC01AC008092457
:1093C0001E4B00940004BFE78D0709D0184B1948C5
:1093D000204AC01AC0081024184B00940004B3E7B8
:1093E00012F0030F09D0124B12481B4AC01AC008D2
:1093F0001024124B00940004A6E7C568A9420DD3BF
:109400004D1EEC180569AC4208D8CDF82880DEF86E
:109410000C40A44603B0BDE8F0436047044B054848
:109420000E4AC01AC0081024044B009400048BE7B5
:10943000FC1F030054200300E027030089290300D8
:10944000E5270300622803000E28030021280300FB
:109450006828030092280300AA280300CD280300EF
:10946000F7B580B92A4B2B482B4AC01AC0080E24E6
:109470002A4B009400042A4940F00100FDF7BBFA92
:10948000204603B0F0BDD0F800C0BCF1000F09D1F8
:109490001F4B2048234AC01AC00808241F4B0094C1
:1094A0000004E8E74AB91A4B1A481F4AC01AC00814
:1094B00009241A4B00940004DDE74568D5F800E064
:1094C0000EF1FF350D4209D0114B1248174AC01A50
:1094D000C0081024114B00940004CCE7C568A942D1
:1094E0000CD34D1E0EFB02540569AC4206D8DCF8C5
:1094F0001040A44603B0BDE8F0406047044B054867
:109500000B4AC01AC0081024044B00940004B2E7B0
:10951000FC1F030054200300E0270300762903000A
:10952000E52703000E28030021280300F428030088
:109530001A29030029DF704728DF704770B50368D8
:109540009E6886B004460D466EB11422002168461E
:1095500008F062F9A3680593237901952BB1012BDB
:109560000DD06846B04706B070BD01238DF80030BD
:1095700023690293E368039363690493F1E7022389
:109580008DF80030E3681B030293F5E70846704747
:1095900000207047024B187A003818BF012070472E
:1095A0005C360020034B187A0122B0FA80F05A741E
:1095B000400970475C36002008B510461A4608F08E
:1095C00002F9002008BD000008B51422002104485B
:1095D00008F022F90348FEF728FA002008BD00BF72
:1095E0005C3600204C36002010B5094C094B436016
:1095F0002046FEF767FB40B907F0F0FD06492074EE
:109600001C2306488C22FEF7FDF9002010BD00BF88
:109610005C360020B0290300C03500204C36002005
:1096200038B5234D234C2B7A3BB923492348FEF709
:1096300058FA206008B9686038BD022324682B728C
:10964000237973B1012B24D020460321FFF776FF45
:1096500000232B726B6018491848BDE83840FEF7AC
:109660006BBAD4E90523D21AB2F5805FD4E90310AE
:1096700028BF4FF480529208012A38BF01221944B2
:109680001844FFF757FF50B11128DDD101232B7289
:10969000D2E7D4E903031844FFF74EFFF3E72B7C2E
:1096A000002BC9D1BDE83840022000F009B800BF46
:1096B0005C36002074360020703600204C360020C6
:1096C00038B5234C237A002B41D0022B09D1032833
:1096D00030D0204B00221B68E2601A793AB1012A8F
:1096E00022D0637C7BBBBDE83840FFF799BFD3E94C
:1096F00005128D1AB5F5805F94BF521902F580529C
:109700009A619142EDD102284FF0000308BF19463B
:109710002372104B18BF0D211868FFF70FFF0E4979
:109720000E48FEF709FADCE71A6901321A615B6933
:109730009A42E7E7E3680133082B01D8E360D0E7FA
:109740000023E360DFE7BDE8384007F037BD38BDF0
:109750005C36002074360020703600204C36002025
:10976000831E012B01D8FFF7ABBF704700F0FD034C
:10977000012B08D1044B00225A74421E5042504122
:109780001874FFF74DBF70475C36002010B5064CCB
:10979000201DFEF797FA28B9637C1BB9BDE810407D
:1097A000FFF73EBF10BD00BF5C3600202DE9F3413E
:1097B00080460D460F4801A916461F46FEF757F989
:1097C0000446A8B11C22002108F026F82D0B012325
:1097D000237101A90748C4F80080A760E5606661AD
:1097E000FEF76FF9FFF7D2FF002002B0BDE8F0816D
:1097F0000420FAE74C3600202DE9F74381468846DD
:10980000104801A917461E46FEF731F90446B0B1CB
:109810001C22002108F000F800250A9BA36001A982
:10982000C4E9037807482571C4F800906661FEF723
:1098300048F9FFF7ABFF284603B0BDE8F0830420EA
:10984000FAE700BF4C3600204FF08053D3F83001C8
:10985000421C04BF4FF0704393F8E00F831F58423F
:10986000584170474FF0704393F8E02F062A09D112
:10987000D3F8E83FC3F30313033B042B02D8024A97
:10988000D05C704700207047EB290300024AD2F8F1
:109890000034002BFBD0704700E0014010B5FFF70B
:1098A000D3FF40B14FF08053944AD3F82433C3F32D
:1098B0000423C2F84035FFF7D5FF10B1904B914A11
:1098C0005A67FFF7C1FF48B14FF080534FF0804215
:1098D000D3F84432C3F34233C2F83C35FFF7C2FF3A
:1098E00030B1894AD2F8FC3023F08073C2F8FC30E2
:1098F000FFF7AAFF40B14FF080430022C3F80C21CC
:10990000C3F81021C3F83825FFF7ACFF20B14FF0A2
:1099100080430322C3F8A025FFF7A4FF60B17B4B6F
:109920000522C3F810260122C3F888260022C3F8B6
:1099300018263F22C3F814264FF08053D3F8302165
:10994000511C09BF4FF07043D3F8343193F8E02F26
:10995000D3F8E83F08BFC3F30313062A4DD1033BF6
:10996000042B03D86A4AD35C002B46D04FF08052B8
:10997000684BD2F80414C3F82015D2F80814C3F8C1
:109980002415D2F80C14C3F82815D2F81014C3F813
:109990002C15D2F81414C3F83015D2F81814C3F8E3
:1099A0003415D2F81C14C3F84015D2F82014C3F8AB
:1099B0004415D2F82414C3F84815D2F82814C3F873
:1099C0004C15D2F82C14C3F85015D2F83014C3F843
:1099D0005415D2F83414C3F86015D2F83814C3F80B
:1099E0006415D2F83C14C3F86815D2F84014C3F8D3
:1099F0006C15D2F84424C3F87025FFF725FF48B151
:109A00004FF080534FF08042D3F8583203F04F03A9
:109A1000C2F8E43EFFF718FF48B14FF08043D3F897
:109A20000024D20744BF6FF00102C3F800244FF0B6
:109A30008053D3F83021062A0ED1D3F83431033BBA
:109A4000042B02D8344AD35C33B1344AD2F83C37C1
:109A500043F48063C2F83C372B4AD2F8883043F491
:109A60007003C2F88830BFF34F8FBFF36F8F4FF092
:109A70008053D3F83021062A0FD1D3F83431033B79
:109A8000042B02D8264AD35C3BB14FF01023D3F805
:109A900008224FF08043C3F858254FF01023D3F825
:109AA0000022002A03DBD3F80432002B22DA1D49FE
:109AB00001234FF01020C1F804351524FFF7E6FE0E
:109AC000C0F80042FFF7E2FEC0F80442FFF7DEFEF6
:109AD0000023C1F80435FFF7D9FEBFF34F8F0A49C1
:109AE000114BCA6802F4E0621343CB60BFF34F8F9F
:109AF00000BFFDE70D4B0E4A1A6010BD003001405B
:109B000000C007400DF0ADBA00ED00E0005000408D
:109B1000DC29030000C00040E129030000100040E0
:109B2000E629030000E001400400FA05342B002080
:109B30000090D003054A4FF0A043105CD3F80435E1
:109B400023FA00F0C04300F001007047F42903003D
:109B5000044B1A5C012393404FF0A042C2F80C352D
:109B6000704700BFF4290300044B1A5C01239340A3
:109B70004FF0A042C2F80835704700BFF429030037
:109B800008B50020FFF7F0FF0120FFF7EDFF0220EE
:109B9000FFF7EAFFBDE808400320FFF7E5BF08B57F
:109BA0000020FFF7D5FF0120FFF7D2FF0220FFF7CB
:109BB000CFFFBDE808400320FFF7CABF074A4FF0B8
:109BC000A041105CD1F804350122824022EA030052
:109BD0001340C1F80805C1F80C357047F42903009B
:109BE000054A4FF0A043105CD3F8103523FA00F07B
:109BF000C04300F001007047F02903000D2809D090
:109C00000E2809D00F2809D010280CBF03204FF0D0
:109C1000FF307047002070470120704702207047D6
:109C2000014B185C704700BFF0290300C20708B55C
:109C300001460CD54FF0A0430322C3F84427C3F8D4
:109C40004827C3F84C27C3F85027FFF799FF8B0725
:109C50000AD54FF0A0430C22C3F83427C3F83827A5
:109C6000C3F83C27C3F8402708BD000038B5074CAF
:109C7000051E04F1080318BF1C4623682BB11A689F
:109C800022605B6828469847F7E738BD8036002099
:109C900020B9054B01225A70FFF7E8BF012802D115
:109CA000014A9070F8E770477836002020B9034BDE
:109CB00001225A70FFF7DABF704700BF78360020E4
:109CC00038B50E4C2378B3B90D486360A3602361A7
:109CD000E36000F0E7F8054607F080FA08B900F005
:109CE000EDF801232370074BD3F800340BB10123A7
:109CF000A370284638BD8525F5E700BF78360020DB
:109D0000919C02000000014037B50D4C00230DF17D
:109D100007008DF80730FDF7FDFCE368013BE360C9
:109D2000E36833B9074BD3F8005415B900F0D8F8FD
:109D3000A5709DF80700FDF711FD03B030BD00BF11
:109D40007836002000000140012813B50CD003280C
:109D500020D038B9134B0122C3F88020BFF34F8FB6
:109D6000BFF36F8F02B010BD0F4C00230DF1070041
:109D70008DF80730FDF7CEFC23780BB9FFF7A0FF75
:109D8000E3689DF807000133E3600123A370FDF74A
:109D9000E5FCE7E700F092F802B0BDE81040FFF7FD
:109DA000B3BF00BF00E100E0783600201FB50378A4
:109DB0008DF800304368019383688DF80830C368DC
:109DC000054A0393054B684653F8213052F8211099
:109DD000984705B05DF804FB8C36002090360020D3
:109DE0001FB503788DF800304368019383688DF8C0
:109DF0000830C368054A0393054B684653F8213081
:109E000052F82110984705B05DF804FB8C3600200D
:109E100090360020F0B5194B90F800C091F81DE085
:109E200043F82C20164B16460A6943F82C20154B94
:109E300003F80CE00C4607460FCC89B06D460FC501
:109E400094E80F0085E80F00CDF810C0BEF1000FB8
:109E500009D0002E0C4A694608BF3246381D00F072
:109E60009DFD09B0F0BD002E084A694608BF324684
:109E700007F10C0000F064FBF3E700BF9036002010
:109E80008C36002094360020AD9D0200E19D02003A
:109E900000F18040002382B0036003680193019BBE
:109EA00002B07047044A137923B9012110609180F0
:109EB000184670478520704798360020074B1A686F
:109EC000D20704D4C02283F8002301221A604FF085
:109ED00080430122C3F81825704700BF00E100E06D
:109EE0004FF0804208B50223C2F808334FF4827065
:109EF000FFF7CEFF0123D360D2F81834DB03FBD485
:109F000008BD00004FF0804110B5D1F8003163B1B9
:109F10004FF48070FFF7BCFF0D4B58790122C1F858
:109F2000082310B95A711B6898474FF08042D2F845
:109F3000043163B14FF48270FFF7AAFF0223C2F825
:109F40000833034BBDE810401B680120184710BDC3
:109F50009836002000F1804000F5C040002382B018
:109F6000036003680193019B02B07047800000F119
:109F7000A040D0F8002722F44032C0F80027D0F8E3
:109F8000003743EA0141C0F800177047054B4FF016
:109F9000FF32072843F8202084BFC01880F84820EB
:109FA000704700BFA036002010B51A4C94F8583006
:109FB0006BBB4FF0FF3222FA03F1C90748BFE1182B
:109FC00003F1010348BF81F83020202BF3D1002199
:109FD000C8B20131FFF7DAFF0C29F9D104220021C0
:109FE0000D4807F019FC0D4BC02283F806234022D0
:109FF0001A604FF4BE70FFF7ADFF094B4FF00042FF
:10A00000C3F80423012384F85830002010BD082031
:10A01000FCE700BFA0360020F436002000E100E09D
:10A0200000600040034B93F85800003818BF01202F
:10A03000704700BFA0360020F0B5394E331893F9B1
:10A040003030002B69DA8D78C5F34005002D0BBF49
:10A05000082300230C240824A34201D10420F0BDCE
:10A0600056F82370013743D137185CB246F82320E5
:10A0700087F8304015B9F21882F848008A785507F9
:10A0800016D4D70736D5820002F1A042D2F8005785
:10A0900025F00205C2F80057224FC50800F0070C52
:10A0A000012202FA0CF217F805C042EA0C027A55B6
:10A0B0008A780D7812F0020225D09B0003F18043CC
:10A0C00003F5C0430002D3F8102522F4473222F4EE
:10A0D0004072C3F810252D04D3F8102500F4F85071
:10A0E00005F4403528431043C3F810050020B6E7B7
:10A0F0000133B1E74D7800F5E0724FF0A047AD00B5
:10A1000047F82250C8E7083C46FA84F494F8500017
:10A1100040EA851584F85050E8E708209FE700BF23
:10A12000A0360020F436002038B5204C251895F9CB
:10A130003020072A18DD083A44FA82F494F85030A7
:10A140009B09032B0BD14FF0A043D3F81015C1404E
:10A1500001F001010231BDE83840FFF707BF012BD4
:10A160000CBF02210321F6E7D3B2072B1DD89300C1
:10A1700003F1804303F5C043D3F8100540F001001C
:10A18000C3F8100502F1400040B2800080B2FFF732
:10A19000E1FE51B195F9303054F823302BB1012351
:10A1A00003FA02F2024BC3F8042338BDA0360020A4
:10A1B000006000404FF0A043D3F8103523FA00F0C0
:10A1C00000F00100704700002DE9F74F00244E4DCC
:10A1D00001944FF48072012102F1804303F5C043E2
:10A1E00090B21B68012B06D1D5F804330B4202D084
:10A1F000FFF7B0FE0C430432B2F5907F4FEA410105
:10A20000EAD1414BD3F87C31012B0CD14FF4BE7015
:10A21000FFF7A0FE4FF0A04344F00044D3F8202500
:10A220000192C3F82025E3B2D3B1384F00250126AF
:10A23000344210D0AB0003F1804303F5C043D3F8A0
:10A240001005D3F8101557F8253023B1C1F301419B
:10A25000C0F3042098470135082D4FEA4606E7D1A0
:10A26000002C48DA294D4FF0A048294E4FF0000944
:10A27000012716F9013B5A1C31D0C3F3C20202A9CF
:10A280000A44DCB212F8042C03F03F0A03F007037F
:10A2900007FA03F31A4222D00AF5E073504658F841
:10A2A0002330C3F3014BBBF1020F0CBF032102218A
:10A2B000FFF75CFE07FA0AF3C8F8203505EB0A033E
:10A2C00093F9303055F823304BB1A109032904D05C
:10A2D000BBF1020F12D1012901D15046984709F173
:10A2E0000109B9F1040FC4D1D8F820350193C8F899
:10A2F0002035002BB9D103B0BDE8F08FBBF1030FBF
:10A30000EDD10229E8E700BF00600040A036002040
:10A31000F0360020014B1B68184700BFFC360020B8
:10A320000E4B984237B50C4602D0002003B030BD2A
:10A3300000230DF107008DF80730FDF7EBF9084B0E
:10A340001D7915B901221C601A719DF80700FDF7EF
:10A3500005FA002DE9D01120E8E700BF00200040F9
:10A36000FC3600200023435082B043580193019BE8
:10A3700002B070470A4610B54FF48E71FFF7F2FF36
:10A38000136A9168C95C136A01331362C0F81C1523
:10A3900010BD024608B500684FF49271FFF7E2FF66
:10A3A00010684FF48471FFF7DDFF136801221A6013
:10A3B00008BD8B690A4610B54FF4847123B9FFF7C5
:10A3C000D1FFD0F8183510BDFFF7CCFF536AD16824
:10A3D000D0F81805C854536A01335362F3E70000FC
:10A3E0001FB501238DF80030044BCDE90110D3E9EE
:10A3F00000126846904705B05DF804FB0437002062
:10A4000030B54D4DD5F804339A0585B051D5D5F802
:10A410002431002B4DD04FF492712846FFF7A2FF54
:10A420004FF40173C5F80833444B93F829200AB957
:10A4300001226A60404902228DF80020D1F8802470
:10A44000C1F8802403929A690292DA68019200228C
:10A45000C3E906226846D3E9001290473648D0F88F
:10A460001C315BB1354A5169136A99424DD992F852
:10A470002830002B49D11146FFF77CFF2E48D0F839
:10A480004431002B56D04FF4A271FFF76BFF2B4BDA
:10A4900093F829200AB1012202609A69002A49D062
:10A4A000586AD96800229A6105B0BDE83040FFF7CC
:10A4B00097BFD5F804335B07D0D5D5F80831002B0A
:10A4C000CCD01E4C1C482146FFF773FF636AA2697B
:10A4D0009A42C3D1E369E1684BB1A3612369E360A8
:10A4E0000023606AE3616362FFF77AFFB6E794F8DE
:10A4F00029300BB901236B600F4B4FF40172C3F885
:10A5000008230023606AA361EEE70B484FF48E71C5
:10A51000FFF728FF5369002BB0D051690291002347
:10A5200091688DF80030019153616846D2E90013BB
:10A530009847A3E705B030BD002000400437002055
:10A540002DE9F843534D90F804802C2303FB085366
:10A55000064693F82A300C469146002B40F0968030
:10A560004D490068FFF7DCFE0746002840F0908068
:10A5700022683068511C0BD04FF0A041012393405A
:10A58000C1F8083502F5E0734FF0030C41F823C021
:10A5900061684B1C1FBF01F5E0734FF0A04C4FF0FA
:10A5A000000E4CF823E0A369C0F8243594F814C0D9
:10A5B000637DBCF1010F4CEA0303C0F86C35C0F8B1
:10A5C0001415C0F80C251DD1A268531C1FBF02F53D
:10A5D000E0734FF0A0414FF0000C41F823C0E36856
:10A5E000591C0BD04FF0A04C01219940CCF8081514
:10A5F00003F5E0714FF0030E4CF821E0C0F8083588
:10A60000C0F810252C2202FB08F2AB18C3F8049006
:10A610002369AB50B9F1000F20D04FF48E71247F25
:10A62000FFF7A0FE4FF4A2713068FFF79BFE32687F
:10A630001A4BC2F80433130B42F307326101002AAC
:10A64000C9B21EDB1648841884F800130121520990
:10A6500003F01F0301FA03F340F8223033680422A9
:10A66000C3F800252C2303FB08530022C3E906226C
:10A6700083F829205A61012283F82A203846BDE850
:10A68000F883084A03F00F03D154E7E70827F5E7FA
:10A690001127F3E70437002001A402008000020024
:10A6A00000E100E014ED00E00279044B2C2101FBF5
:10A6B00002335869003818BF012070470437002062
:10A6C0002DE9F84F064690F8048089469246FFF738
:10A6D000EBFF044600283CD1204F2C2508FB057BCE
:10A6E0004FF48E71CBF814A0CBF80890CBF8200073
:10A6F0008BF828003068FFF735FE3068012383604F
:10A700005946FFF737FEDBF804305D461BBB306867
:10A71000DBF814402B6A9C4211D83368D3F81C2113
:10A72000002AFBD00122DA6000202C2303FB0877EB
:10A7300000237B61BDE8F88F95F828303BB9D0F84D
:10A740001C31002BF8D05946FFF714FEE2E70F202A
:10A75000EBE71120EEE72046ECE700BF04370020CE
:10A760002DE9F0473A4D07792C2303FB07530646A2
:10A770005C6824B103684FF40170C3F808032C230C
:10A7800003FB0753986950B1D869002841D024B120
:10A7900033684FF40172C3F80423112436E09A6140
:10A7A000D9605862D8612C2303FB075393F82930F2
:10A7B0001BB910B93046FFF7ECFD4FF02C0808FB31
:10A7C000075A3068DAF80430002B37D14FF4A27101
:10A7D000D046FFF7C7FD3068D0F82491D0F8083193
:10A7E000D0F84441CBB914B9B9F1000FF3D02C2300
:10A7F00003FB07550023AB61B9F1000F24D12CBB3B
:10A8000095F8291033680122B1B11A602046BDE8DD
:10A81000F0871961DA610120C5E7B9F1000FE6D1CF
:10A82000002CE4D14146FFF7C4FDDAF82430DAF811
:10A8300018209A42CFD8DAE75A60E7E74FF401735D
:10A84000C0F804330024E1E70324DFE70F24DDE749
:10A85000043700200023435082B043580193019BEA
:10A8600002B070471FB501238DF80030044BCDE9CD
:10A870000110D3E900126846904705B05DF804FB6B
:10A88000303700207FB5434AD2F82461002E60D0D3
:10A8900010464FF49271FFF7DDFF02238DF8003070
:10A8A000D2F88034C2F880340393D2F83C35029356
:10A8B000394BDA6801920022C3E906226846D3E9DF
:10A8C000001290473348D0F8443173B14FF4A2716D
:10A8D000FFF7C0FF304B9A693AB10022C3E9062264
:10A8E000D968D0F83C05FFF7BDFF2A48D0F82031E1
:10A8F000ABB14FF49071FFF7ADFF0123C360264B5E
:10A900005A6962B1D0F84C150291002299688DF80D
:10A91000002001915A616846D3E9001290471D4812
:10A92000D0F858319BB14FF4AC71FFF793FF1A4B3D
:10A930005A6962B1D0F84C150291002299688DF8DD
:10A94000002001915A616846D3E90012904704B093
:10A9500070BDD2F81031002BB4D04FF4887110467E
:10A96000FFF778FF0C4BD2F83C0599698842A9D1D2
:10A97000DC69D96864B1D2F8005225F02005C2F82C
:10A9800000521A699C61DA60DE61FFF76BFF99E79C
:10A990009C61FAE700200040303700202DE9F843A1
:10A9A0005A4E90F80480242303FB0863044693F86E
:10A9B00020300D469146002B40F0A380544900689A
:10A9C000FFF7AEFC0746002840F09D802A6820680B
:10A9D000511C0BD04FF0A04101239340C1F8083522
:10A9E00002F5E0734FF0030C41F823C069684B1C7B
:10A9F0001FBF01F5E0734FF0A04C4FF00C0E4CF868
:10AA000023E0AB69C0F8243595F814C06B7DBCF128
:10AA1000010F4CEA0303C0F86C35C0F80C25C0F8F0
:10AA200014151DD1AA68531C1FBF02F5E0734FF027
:10AA3000A0414FF00C0C41F823C0EB68591C0BD01F
:10AA40004FF0A04C01219940CCF8081503F5E071B6
:10AA50004FF0030E4CF821E0C0F80835C0F810257F
:10AA6000242202FB08F2B318C3F804902B69B350F8
:10AA7000B9F1000F2FD04FF488712A7FFFF7EAFE5B
:10AA800020684FF49071FFF7E5FE20684FF4927153
:10AA9000FFF7E0FE20684FF4A271FFF7DBFE4FF4F2
:10AAA000AC712068FFF7D6FE23681A49C3F8041377
:10AAB000190B43F307335201002BD2B21CDB1648AB
:10AAC000C51885F8002301225B0901F01F0102FA75
:10AAD00001F140F8231023680822C3F8002524233D
:10AAE00003FB08660023C6E906337361012386F879
:10AAF00020303846BDE8F883084B01F00F015A5466
:10AB0000E9E70827F5E71127F3E700BF3037002012
:10AB100085A802001003420000E100E014ED00E00F
:10AB20000279044B242101FB02335869003818BF15
:10AB3000012070473037002001F06043B3F1005F1F
:10AB40002DE9F0470646884692463BD190F804909E
:10AB5000FFF7E6FF0446002836D11D4F3068242554
:10AB600005FB09754FF49071C5F814A0C5F808806D
:10AB7000FFF770FE4FF4AC713068FFF76BFE33687F
:10AB80006A69A968C3F84415C3F8482501229A6088
:10AB90006A68DAB9D3F82021D3F858011AB9002825
:10ABA000F8D00F2007E00028FBD10122DA60D3F8AB
:10ABB0005821002AFBD0242303FB097700237B6163
:10ABC000BDE8F0871020FBE71120F9E72046F7E702
:10ABD00030370020F8B501F06043B3F1005F044660
:10ABE0000F465ED10379304D242101FB03514968A2
:10ABF00021B100684FF40476C0F80863242000FBFC
:10AC000003539E6956B1D869002839D021B1236811
:10AC10004FF40472C3F80423112030E09A61DF601E
:10AC2000DE6120684FF48871FFF714FE20684FF44E
:10AC3000A271FFF70FFE2368C3F83475C3F83825F7
:10AC400016BB01221A602479242202FB04525268A6
:10AC50000ABBD3F81011D3F84421D3F824011143CF
:10AC600002D10028F5D00A46242303FB0455002313
:10AC7000984218BF03209A42AB6118BF0F20F8BD5D
:10AC80001F61DA610126CCE7D3F8002242F02002EE
:10AC9000C3F80022D7E74FF40472C3F8042300205E
:10ACA000EDE71020EBE700BF303700200220FEF771
:10ACB00085BF00002DE9F04780460D46FEF79EFF58
:10ACC0000328044610D8012D10D0022D30D05DB9D4
:10ACD0001A48FCF707FB1A4B04EB440213449D7817
:10ACE000184B1B5DAB4219D0BDE8F087144E00EB4A
:10ACF0004003F218F55C5378470053B1DFF84C90ED
:10AD00000E484A464FF48041FCF7BEFA08B989F86C
:10AD1000008027443E440B4BB2781A55002DE3D0F7
:10AD2000094B1B68002BDFD02846BDE8F0471847C9
:10AD300000EB4004024804446578EFE7582B0020FC
:10AD400056370020713700206C3700205437002020
:10AD500000780221FFF7AEBF08B5094B1B7853B14D
:10AD60000020FEF701FF0120FEF7FEFEBDE80840CF
:10AD70000320FEF7F9BEBDE80840FEF701BF00BFA3
:10AD800055370020F8B57A4C237805461BB10023CF
:10AD90002370FFF7E1FF172D00F28780DFE805F051
:10ADA0000C1717425364757F878C878C94999999F7
:10ADB0009999C3C8D0D8E3E3FFF7CEFF6D48FCF7FD
:10ADC00091FA6D4B002204461A702046F8BD00200F
:10ADD000FEF7B0FEF0B10020FEF7C6FE022D0CBF5C
:10ADE0004FF4E1644FF47A64634B1D7000254FF417
:10ADF00000464FF47A7029464FF4FA620023E4FBD0
:10AE0000060106F07DFB2A460146BDE8F840594898
:10AE1000FCF73ABAFEF79CFE022D0CBFC8244FF493
:10AE2000C874E1E70020FEF785FE40B10020FEF780
:10AE30009BFE4FF44874504B03221A70D6E7FEF77E
:10AE400087FEC824F7E70020FEF774FE38B1002023
:10AE5000FEF78AFE4FF47A64474B0422EDE7FEF7D3
:10AE600077FE4FF4C874F7E70020FEF763FE48B1A1
:10AE70000020FEF779FE404B05221A7040F6CD41C6
:10AE80000022C2E7FEF764FEF5E70020FEF796FE1B
:10AE9000394B06221A70002240F26661B5E70020A5
:10AEA000FEF756FE344B07221A7000248DE701206E
:10AEB0002070FEF783FEEEE701202070FEF77EFE95
:10AEC00000224FF40051A0E7FEF769FE2A4B0C2246
:10AED000EAE72A482A4EFCF705FAD5F1110504469F
:10AEE0001CD0D8B9012D13D0C820454321464FF4BA
:10AEF00000474FF47A704FF4FA620023C5FB070154
:10AF000006F0FEFA224601461C48FCF7BDF904464D
:10AF10000220FEF71DFE0123337056E70220FEF7E4
:10AF200023FE0023F8E7FFF717FF134B1222BBE7BE
:10AF3000FFF712FF0020FEF70BFE0F4B1322B3E7C3
:10AF4000FFF70AFF0120FEF703FE0B4B1422ABE7CD
:10AF5000FFF702FF0020FEF7FBFD0120FEF7F8FDE2
:10AF6000054B1522A0E7FEF71AFE034B1D709CE768
:10AF700068370020782B002070370020382B002005
:10AF800055370020044B1B68DB0703D5034B1878AB
:10AF9000FFF7F8BE704700BF64370020703700200D
:10AFA00010B5002914BF03240024FEF739FE8000E9
:10AFB00000F1A040D0F8002722F44032C0F800276A
:10AFC000D0F8003743EA0443C0F80037002010BD32
:10AFD000032801D8FEF704BE00207047044B1B680D
:10AFE00013F0010301D0FFF7CDBE1846704700BF34
:10AFF0006437002038B51C4B18601C4B10F002045D
:10B00000054619601AD01A4B1A480E221A700F22E0
:10B01000DA7010229A7111225A72042140F23332EE
:10B02000FBF76EFF044648B9FBF7C2FF044628B998
:10B030000146114A1148FCF715F90446EB0711D5F2
:10B040000120FEF7F3FD6CB921460D4A0D48FCF7CF
:10B0500009F9044630B9BDE838400B4A0B480121D4
:10B06000FCF700B9204638BD643700206C3700205B
:10B0700056370020182A030051AD02003C2A030075
:10B0800085AF0200402A0300ADAC0200382A03005D
:10B09000032811D8012A0AD101290FD100F10E028B
:10B0A000D2B20D4B00EB40001A540020704701292A
:10B0B000F7D0022904D049B1072070470022F8E7F1
:10B0C000054B00EB400018444270EEE7024B00EBEA
:10B0D000400018448270E8E756370020032802D861
:10B0E0000121FFF75DBF0620704708B5012202214C
:10B0F0000020FFF7CDFF08B1072810D10722022159
:10B100000120FFF7C5FF08B1072808D100210A2256
:10B110000846FFF7BDFF10B1072808BF002008BD93
:10B120000388102B10B502D0112B1ED010BD1A4C65
:10B130002168B1B901220846FFF7AAFF08B1072824
:10B1400024D1072202210120FFF7A2FF08B107281E
:10B150001CD1042202210020FFF79AFF08B1072822
:10B1600014D1236801332360E0E70B4A1368013BE5
:10B170001360002BDAD1FFF7B8FF0028D6D0074BB9
:10B180001B68002BD2D0BDE810401847034B1B684A
:10B19000002BE6D09847E4E77C3700207837002082
:10B1A00008B50020FFF79AFF08B1062806D1012054
:10B1B000FFF794FF10B1062808BF002008BD00006B
:10B1C0000D4B10B518600C4629B10120FFF700FFA8
:10B1D00040B102232370094B1B6853B9BDE81040EE
:10B1E000FFF783BFFFF7F4FE08B10B23F2E72070EF
:10B1F000F1E7002010BD00BF783700207C37002029
:10B2000076DF704778DF70477ADF70477CDF704702
:10B210008FDF7047B1DF704733DF70477047FBF750
:10B22000DDBE08B50020FFF7D9FE08B1FBF7D6FE5A
:10B23000FFF7B6FF08B1FBF7D1FEFFF7EDFF18B13E
:10B24000BDE80840FBF7CABE08BD000010B5038882
:10B25000212B86B004460FD80F2B13D9103B112B8E
:10B2600010D8DFE803F0112E0F3D0F0F0F4A515891
:10B270000F0F0F0F0F0F0F6F522B71D0562B77D070
:10B280003B2B75D006B010BD3C4B3D483D49C01A24
:10B29000C008000440F00300FBF796FB0720FFF70F
:10B2A0009DFE08B1FBF79AFE374BA18837481980FD
:10B2B00001F0DCFD0028E5D006B0BDE81040FBF74A
:10B2C0008DBE2E4B2E483249C01AC008000440F0F3
:10B2D0000300FBF779FB2C4B4FF6FF721A80D1E786
:10B2E0002748264B2B49C01AC008000440F0030031
:10B2F00006B0BDE81040FBF767BB21481F4B26494D
:10B30000C01AC0080004F1E71D481C4B2349C01AAD
:10B31000C0080004EAE7437A184A19482049801A0D
:10B32000627B0292227B0192A27AC008C2F3C00221
:10B3300000040092C3F38003227A40F00300FBF77D
:10B3400074FB9FE7002380888DF8143005A98DF8E1
:10B350001530FFF75DFF002894D0FBF73FFE91E723
:10B36000094800231A4619460088FFF753FFA1E752
:10B37000A0881321FFF744FF9CE700BFFC1F0300D8
:10B3800024200300442A03009E2B0020F43C0020CC
:10B390004E2A03005B2A03007A2A0300972A03003F
:10B3A000B62A030008B503784BB9054B3B21188832
:10B3B000FFF726FF18B1BDE80840FBF70FBE08BD38
:10B3C0009E2B0020072808B513D00A280DD004288A
:10B3D00019D10D4B13211888FFF712FF30F0080325
:10B3E00011D0BDE80840FBF7F9BDBDE80840FFF704
:10B3F00018BF054B1A884FF6FF739A4203D10348D2
:10B4000000F0B3FFEAE708BD9E2B0020883800203B
:10B4100008B548B103280BD10220FFF7DFFD38B192
:10B42000BDE80840FBF7DABDBDE80840FFF7F9BE0C
:10B4300008BD0000F7B50378012B33D0022B31D0C3
:10B4400073BB1B4C1B4D20782844FCF725F923784F
:10B450000133DBB21D44237015F8012C0A2A05D0F4
:10B460000D2A03D0144A12889A4219D8012B15D9F3
:10B47000124D104E124F2378ADF806300DF1060232
:10B480002B883146384605F041F8082806D01328A5
:10B49000F1D0052802D008B1FBF7A0FD00232370EE
:10B4A00003B0F0BD406803B0BDE8F040FBF796BDC7
:10B4B0007C380020803700209C2B00209E2B002011
:10B4C000302D00202DE9F0410578064645BB154C8E
:10B4D000154BDFF85880E41AE408240444F0010412
:10B4E000B28A95420AD33369134413F8013C0D2BF9
:10B4F00016D10A20FCF7E6F81128F9E73369585D00
:10B50000FCF7E0F8074648B11128F7D0024641465B
:10B510002046FBF75DFA3846FBF760FD0135DFE7B3
:10B52000BDE8F08124200300FC1F03000C2B030066
:10B5300013B5044603F010FF204603F031FF204608
:10B5400003F0C6FC2378052B06D1002360888DF814
:10B55000043001A903F082FA02B010BD0D4B4A88F5
:10B560001B889A4214D10A8840F677239A420FD159
:10B570008B88094A09480A49033B9BB21380094A50
:10B58000801AC00800041A4640F00300FBF729BAED
:10B59000704700BF9E2B00209C2B0020242003001E
:10B5A000372B0300FC1F0300FBF718BDFBF716BD8C
:10B5B00008B50849084801F039FB08B1FBF70EFD52
:10B5C0000548F72101F046FB18B1BDE80840FBF73C
:10B5D00005BD08BD5DB50200BC3C002080B5BB4D7B
:10B5E0000FCDB0B005AC0FC495E80300B84BB94A15
:10B5F00001934FF4807384E80300CDE903230293A1
:10B60000B54A072301A905A8FBF7EEFF08B1FBF730
:10B61000E5FC4FF480410020FBF738F808B1FBF758
:10B62000DDFCFAF771FFFBF7EBFD08B1FBF7D6FC89
:10B63000AA490320FFF7DEFC08B1FBF7CFFC05A900
:10B640000020FFF7BDFD08B1FBF7C8FCFCF71EFEAC
:10B6500008B1FBF7C3FC05F043FD08B1FBF7BEFCE6
:10B66000002305A90120059305F00CFE08B1FBF7A6
:10B67000B5FC05A805F0D6FE08B1FBF7AFFC112319
:10B6800097488DF8043006F01CF9954982B201A85C
:10B69000FFF7BCFD08B1FBF7A1FC40F2C130FFF79A
:10B6A000B1FD08B1FBF79AFC0822002105A806F0BD
:10B6B000B3F81023ADF814303C23ADF81630002356
:10B6C000ADF8183005A84FF4C873ADF81A30FFF77D
:10B6D0009BFD08B1FBF782FCFFF76AFF814B8248B4
:10B6E000019301A901F0B0FB08B1FBF777FC002141
:10B6F0000422684606F090F87C4B7D48009369462A
:10B7000004F08AFE08B1FBF769FC7A4DDFF8289255
:10B71000794F08220021284606F07EF808220021F1
:10B72000484606F079F808220021384606F074F8F9
:10B7300008232B804FF48073022440F202266B8092
:10B740004FF400734FF00108A9F8023048224FF47B
:10B7500040730021AE80AC7105A87B80A9F8008001
:10B76000A9F804603C80BE8006F056F8634B059350
:10B77000634B06934C23ADF83830624B624A0D930D
:10B780006248ADF81C80002305A98DF81E8008953D
:10B790008DF82480CDF828908DF82C800C978DF8AA
:10B7A0004A308DF8404011928DF848408DF856404F
:10B7B000ADF858608DF85A401393ADF850608DF88D
:10B7C000524005F00FFA08B1FBF708FCAC2200214B
:10B7D00005A806F021F802238DF8143040F2016329
:10B7E0004B4AADF816300123ADF8603019928DF850
:10B7F0009030402244F25063CDE927234548464B20
:10B800002E9305A900F0F0FB08B1FBF7E7FB4148D8
:10B81000012100F0E6FB1C22002105A805F0FCFF39
:10B8200000234FF4A032CDE90532ADF822304FF4B9
:10B83000F0228DF82430394B07920A930322384BBB
:10B840008DF8202005A80B9300F0AEFE08B1FBF7A1
:10B85000C5FB03F04BF808B1FBF7C0FB0522002144
:10B8600005A805F0D9FF31238DF8143007238DF892
:10B87000153010238DF816309DF8173023F0030390
:10B8800043F003038DF817309DF8183023F00303BD
:10B8900043F0030305A88DF8183003F0C7F808B18A
:10B8A000FBF79CFB1F4803F0A9F808B1FBF796FBD8
:10B8B0001D4805F057FF1D4B1D481E49C01AC00802
:10B8C000000440F00300FBF77FF837E09C2B0300F7
:10B8D000083D0020083E002035B40200C5B3020038
:10B8E000532B03001FB20200F43C0020C5B4020039
:10B8F000302D00207E380020743800201DB2020058
:10B90000ADB50200542D002001010003A02B002042
:10B91000982B00208838002011B40200A5B3020043
:10B92000A9B5020031B502005F2B0300FC1F030024
:10B9300024200300712B0300003D00200648032152
:10B9400000F0D1FB08B1FBF749FBFAF7F1FE002844
:10B95000FBD1FCF7B1FCF8E7883800200369C26826
:10B9600093429CBF80681B18013B981A70472DE9D1
:10B97000F843D0E902940546A9EB040840689045D5
:10B9800020440F46144404D905F01DFFEC60BDE8C7
:10B99000F8834246A4EB090405F015FF68682246C7
:10B9A00007EB0801F0E72DE9F843C568064689462C
:10B9B00017464FF000083469B3687068A54228BF85
:10B9C000E418013C621B5C1BBC4228BF3C4694420D
:10B9D00028BF144649462844224605F0F4FEB368C1
:10B9E0002544AB4208BF00253F1BA044A144F5609D
:10B9F000E1D14046BDE8F88310B5114C114AA2616F
:10BA00000223C4E90433104BE361A2644FF40073D2
:10BA10000E4A0F492362E26400231022E01DA36254
:10BA20006362E362A3656365E365226505F027FF52
:10BA30000849204605F023FF2023A37110BD00BF55
:10BA4000083F0020B42B0300903F0020803F0020DF
:10BA5000BD2B0300C12B030070B5164B182400FB4F
:10BA600004451D4404FB00331646DC6A012C0ED04D
:10BA7000022C18D0E4B92846FFF770FF864204D89C
:10BA800032462846FFF773FF3446204670BD2846ED
:10BA9000FFF764FF8642344628BF04462246284604
:10BAA000FFF765FFF1E72846BDE87040FFF77BBF71
:10BAB0000024EAE7083F0020FFF79EBF6DDF7047D4
:10BAC00079DF70477DDF704764DF70472DE9F04F05
:10BAD00085B000250E9CBDF83CB0B4F800A00191E3
