:020000021000EC
:1090000000600020A59301005D9301005F930100C3
:10901000619301006393010065930100000000006B
:109020000000000000000000000000006793010045
:1090300069930100000000006B9301006D93010033
:1090400025B701006F93010029BB01006F93010058
:109050006F93010000000000DDB901006F93010073
:109060006F9301006F9301006F9301006F930100F4
:109070006F9301006F9301006F9301006F930100E4
:109080006F930100ADA701006F9301006F93010082
:109090006F9301006F93010061D201006F93010093
:1090A0006F9301006F9301000000000000000000BA
:1090B000D9C601006F93010000000000000000000D
:1090C00000000000000000000000000000000000A0
:1090D0000000000000000000000000000000000090
:1090E0000000000000000000000000000000000080
:1090F0000000000000000000000000000000000070
:10910000000000000000000000000000000000005F
:10911000000000000000000000000000000000004F
:10912000000000000000000000000000000000003F
:10913000000000000000000000000000000000002F
:10914000000000000000000000000000000000001F
:10915000000000000000000000000000000000000F
:1091600000000000000000000000000000000000FF
:1091700000000000000000000000000000000000EF
:1091800000000000000000000000000000000000DF
:1091900000000000000000000000000000000000CF
:1091A00000000000000000000000000000000000BF
:1091B00000000000000000000000000000000000AF
:1091C000000000000000000000000000000000009F
:1091D000000000000000000000000000000000008F
:1091E000000000000000000000000000000000007F
:1091F000000000000000000000000000000000006F
:10920000354936480A1A02D0072291438D4634491F
:1092100034480A1A06D00722914381F309880222B2
:1092200082F3148830483149314A00F044F831481B
:109230003149324A00F03FF831483249324A00F0B1
:109240003AF832483249334A00F035F83248334967
:10925000334A00F030F833483349344A00F02BF8F1
:1092600033483449344A00F026F83448344900225F
:1092700000F02CF833483449002200F027F8334836
:109280003349091A082902DB002202604160314A91
:1092900090471F481F49884205D00268043003B434
:1092A000904703BCF7E700208646EC4600200021EB
:1092B000294A9047FEE7884207D0521A05D0037822
:1092C00001300B700131013AF9D17047884202D068
:1092D00002700130FAE7704700600020005800205B
:1092E000006000200060002078E4010018110020D8
:1092F0001C120020EC930100EC93010078D70100D0
:1093000078E40100181100201811002034D8010061
:1093100034D8010034D8010034D8010034D8010019
:1093200034D8010034D8010034D8010078E40100B9
:109330007CE501001C1200201C1200201C120020E1
:10934000001A0020001A0020001A0020001A002035
:1093500000220020BB9301001DCB0100FEE7FEE7C9
:10936000FEE7FEE7FEE7FEE7FEE7FEE7FEE7FEE7D5
:1093700009480068094909680A280AD1002908D162
:10938000074802686FF070031A404FF040031A4319
:10939000026000F009B80000300100103401001034
:1093A000E40E0040FFF7E4BF0B484FF0070188438D
:1093B00085460A488047FFF723BF094809490A4AFA
:1093C000884207D0521A05D0037801300B70013162
:1093D000013AF9D17047000000600020C9B00100D7
:0C93E00034D801001811002018110020E2
:1093EC00F0B595B01D46164608460C4601F05EFDDC
:1093FC001A9B0D93CDE9086500252B46082205A97B
:10940C0020460A958DF82C500C9501F06BFD079BAE
:10941C000293069B03939DF814308DF8115003F0C2
:10942C000302012A1DD1BDF81420059DC3F3C2030C
:10943C00C2F383168DF81030B20008230EA9204613
:10944C0001F050FDC5F3952508AB0093324602ABF5
:10945C000EA9284600F0A6FB204601F02BFD15B006
:10946C00F0BD022AF8D1BDF81650C3F3C203C5F300
:10947C0089158DF810300827082D2E4628BF082690
:10948C003B4632460EA9204601F02CFDAD1B08AB25
:10949C0002AA31460EA8374400F0E8FB002DEBD1B0
:1094AC00DAE70000014B01221A7070475D120020B0
:1094BC007047000070B50E4D06460FCD88B06C4657
:1094CC000FC495E80F00002E84E80F00094A0A48E3
:1094DC004FF0060308BF00226946009302F0A4F87F
:1094EC0008B100F093FD054B1E7008B070BD00BFB5
:1094FC0034D80100B1940100181100201C12002076
:10950C0007B5044B0093044A4023FFF769FF03B0EF
:10951C005DF804FB299501001D12002038B50D489B
:10952C000D4C0E4D002323700378EB5CD2B263B16B
:10953C00043002F081FF08B100F068FD084B1A7886
:10954C0012B12378002BFBD038BD0C3002F022FD79
:10955C00F1E700BF181100205D120020D818002080
:10956C001C12002008B50848084A0378D35C3BB1AC
:10957C00043002F0C5FEBDE808400020FFF79ABF9A
:10958C000C3002F091FCF6E718110020D8180020DE
:10959C000120FFF78FBF000008B5FFF7F9FF044863
:1095AC00042100F06FFA034B01225A7108BD00BF71
:1095BC0024D801002C1100200378024613F004007B
:1095CC0006D003F00300012803D0022809D00120A3
:1095DC0070470B6812880233C2F3831213440B607A
:1095EC0070470B685288023303EB92130B60EEE763
:1095FC002DE9F04FDFF81CA187B00F46002304467D
:10960C00861C0DF1070015468DF8073000F05CFF45
:10961C00DAF804203A60DAF8083003F580739B1A04
:10962C000AF21C470AF583690AF21448B3421AD3AA
:10963C000020002D69D004F00F039B0143F00503BB
:10964C0063F30F00DAF80430DAB2033233444AF829
:10965C0022009DF80700CAF8043000F059FF0120E1
:10966C0007B0BDE8F08F0121384601F04EF94846AD
:10967C0001F063F9404601F060F9DAF80800029055
:10968C00C0B203300AEB800002A9FFF795FF029BE2
:10969C0030BBDAB20AEB8202D16803919A1C013317
:1096AC00DBB20AEB83030292D3F80CB001F0030394
:1096BC00012B22D0022B15D08346404601F040F9F5
:1096CC0010B1029BCAF808305946384601F01DF912
:1096DC00DAF80830DAF8042003F580739B1AA5E752
:1096EC00D8B2CEE7BDF80E30C3F3891303334FEA7B
:1096FC001B4B02EB93030293DFE7BDF80C30C3F373
:10970C0083134FEA1B4B1344F5E7A40544F0060002
:10971C0098E700BF30130020064B074810B5002215
:10972C001A7001F07CFB044610B9044801F008FCE7
:10973C00204610BD3013002098D7010088D80100B6
:10974C0030B50A4C71B10A4A0A49121BD2080023DF
:10975C009A4201D1002030BD31F82350854202D00D
:10976C000133F5E7034654F83300F4E7ACD70100B6
:10977C0024D8010018110020094B013903EBC0005B
:10978C00032909D8DFE801F00A0204060420704717
:10979C00007970474079704700207047022070476D
:1097AC00ACD7010070470000034BD3E90130C31A5A
:1097BC0058425841704700BF301300202DE9F0414A
:1097CC0086B0FFF7F1FF0546002840F0ED80774C9E
:1097DC00C4F81804BFF34F8FA3680293DBB20333B2
:1097EC0004EB830002A9FFF7E7FE029B18B1D4F843
:1097FC001824002A5AD0DAB2991C013304EB8202E5
:10980C00DBB204EB8303D268DB68049302F003033E
:10981C00022B0392029154D1BDF80E306448C3F36D
:10982C008917502F3E4628BF502606F1080166F3D3
:10983C008F13C1F30901ADF80E3001F008FB05469A
:10984C00002800F09C8001F031FB0023082203A9C2
:10985C00284601F03DFB0299CB43DBB20133C9B280
:10986C000331B6EB830F4FEA830204EB810125D958
:10987C005FFA82F80823A6EB0806284601F028FBBD
:10988C00F6B208F108034B4903F0FC0332462846B4
:10989C0001F01EFB029B033703EB97070297D4F8EA
:1098AC001834002B43D1D4F8106453E062689A4208
:1098BC0094D8A260284606B0BDE8F0810823324651
:1098CC00E5E7012B5BD1BDF80C303948C3F38311AC
:1098DC00062928BF062161F38913023101F00F011B
:1098EC008900ADF80C3001F0B2FA0546002846D0DC
:1098FC0001F0DCFA0023082203A9284601F0E8FA5B
:10990C000026BDF80C20C2F38312B300964203F17B
:10991C000803C4D202994A1CC9B20331029204EB67
:10992C0081010422284601F0D3FA0136E9E72846E2
:10993C0001F0C0FAFFF738FF80F00105EDB2B9E78E
:10994C00F3685B7923B1336829461B683046984726
:10995C00F3681E68002EF3D1284601F0ABFA0DF126
:10996C0007008DF8076000F0AFFDD4F818340BB980
:10997C00029BA3609DF8070000F0CAFDDAE7D4F85B
:10998C00104454B90C4B0D480D49C01AC0080004C2
:10999C0040F0020000F05EF8CCE7236820469B689C
:1099AC009847E3681C68ECE7002583E73013002038
:1099BC0098D701003C130020ACD70100DCD7010084
:1099CC0071D801002DE9F34704460E46924601A9D1
:1099DC00012218469946FFF70BFE1C4F10B3019D50
:1099EC004FF00008AA1CC84508EB020125D1184805
:1099FC00002100F067FF80F31000000440EA1440DF
:109A0C00E4006B1C04F03804DBB2EDB244F001044A
:109A1C0007EB8303033544EA881444EA8624D860B0
:109A2C0047F825403B781BB1FFF7C8FE0028FBD157
:109A3C00FFF7B8FE02B0BDE8F087C9B207EB8101B1
:109A4C005AF82830CB6008F10108CCE7301300201D
:109A5C004C17002000231A46FFF7B4BF07B50123AB
:109A6C00019201AAFFF7AEFF03B05DF804FB07B546
:109A7C00CDE9002302236A46FFF7A4FF03B05DF88B
:109A8C0004FB000030B50F4CD4F810240346002022
:109A9C00114631B9D96808714AB9C4F810340A6052
:109AAC0030BDC9680D79854206D00968F1E7D268E6
:109ABC0014680C601360F3E701300A28E8D14FF00A
:109ACC00FF30EDE73013002038B5084B0125D3F8F3
:109ADC0010441D7004B938BDE3685D7123682046DD
:109AEC005B689847E3681C68F4E700BF30130020FC
:109AFC00C38873B504460D4633B1144A0092144919
:109B0C00144A284600F07FFF217A05291CD0637A7D
:109B1C004BB1A088FFF730FE0F4B104953F82020B3
:109B2C00284600F070FF227A0D4BA08853F8226073
:109B3C000021FFF705FE0B4903463246284602B0CA
:109B4C00BDE8704000F05FBF02B070BDB4D801003A
:109B5C009CD8010094D8010020D90100B9D801008B
:109B6C0044D90100BCD8010010B5037A052B0C4672
:109B7C000FD0437A23B1084A0849204600F043FF2E
:109B8C000749204600F03FFF2046BDE8104000F09A
:109B9C002FBF002AF8D0F3E7B4D80100B9D80100E0
:109BAC00B1D801002DE9F04385B01F460C9D002370
:109BBC0095F80C902B7306460C4690462946384671
:109BCC00FFF796FFB8F1060F09D8DFE808F004128A
:109BDC00181F283340003146284600F014FF00229D
:109BEC0029463846FFF7C0FF85F80C9005B0BDE854
:109BFC00F08322683146284600F005FFEFE7D4E9F0
:109C0C0000233146284600F0FEFEE8E7A3680093E7
:109C1C003146D4E90023284600F0F5FEDFE7E3687F
:109C2C000193A36800933146D4E90023284600F041
:109C3C00EAFED4E723690293E3680193A3680093D7
:109C4C003146D4E90023284600F0DDFEC7E76369FE
:109C5C00039323690293E3680193A368009331464D
:109C6C00D4E90023284600F0CEFEB8E708292DE9F8
:109C7C00F74F80460E4617461C463DD800251B7BE9
:109C8C002573214610460193FFF732FFDFF888A0B9
:109C9C00DFF888B0AE4232D918F805205946204674
:109CAC0000F0B1FE0135082DF4D11D49DFF874A088
:109CBC00DFF874B0204600F0A6FE4FF000094E45C8
:109CCC0024D918F809507E2D1ED8284603F0BCFC68
:109CDC00002814BF2A462E225946204600F093FE37
:109CEC0009F10109B9F1080FE9D1012221463846E1
:109CFC00FFF73AFF019B237303B0BDE8F08F514689
:109D0C00204600F080FECDE72E22E5E751462046A6
:109D1C0000F079FEE4E700BFCCD80100C6D8010002
:109D2C00D0D80100CED80100D2D80100C30710B59D
:109D3C0007D4F023054A4008145C234019431154FE
:109D4C0010BD0901C9B20F23F4E700BFF8170020BA
:109D5C0030B5094B1C78094B0246196800239C420C
:109D6C0001DC002030BD11F83350954201EBC300EB
:109D7C00F8D00133F3E700BFE817002008180020E3
:109D8C0070B504460D46FFF7E3FF30B1436823B1CD
:109D9C0029462046BDE87040184770BD034B044867
:109DAC0019680022490800F055BA00BFEC170020D2
:109DBC003811002010B5C0B2FFF7CAFF0446007876
:109DCC0001F0FCFD63785A1E53425341834208D183
:109DDC00044BD3E90023134303D1BDE81040FFF734
:109DEC00DDBF10BDF017002037B54308374AD35CF0
:109DFC00C2074CBF1B0903F00F0304460D46042B8E
:109E0C0025D8DFE803F003262F3C4000F9B10121EF
:109E1C00FFF78CFF00230DF107008DF8073000F0E1
:109E2C0053FB0120A4F12003C4F12001284A20FA9D
:109E3C0001F100FA03F30B43A040D2E900412043A7
:109E4C000B43C2E900039DF8070000F061FB03B06F
:109E5C0030BD002918BF0221204603B0BDE83040B8
:109E6C00FFF764BF49B10321FFF760FF01212046D2
:109E7C0003B0BDE83040FFF783BF0121ECE70029B8
:109E8C00E5D10421E8E709B10321E5E7FFF74EFF2F
:109E9C0029462046FFF774FF0DF107008DF8075097
:109EAC0000F012FB0120A4F12003C4F12001084AA8
:109EBC0020FA01F100FA03F30B43A040D2E9004170
:109ECC0024EA000021EA0303BBE700BFF8170020D7
:109EDC00F01700202DE9F041124E134F0024337877
:109EEC00A34208DC114BD3E90023134318D0BDE87F
:109EFC00F041FFF753BF3D6805EBC40815F834007B
:109F0C0001F05CFD98F801305A1E53425341181A67
:109F1C004142414115F83400FFF766FF0134DEE79A
:109F2C00BDE8F081E817002008180020F017002089
:109F3C00092AF7B505460C4616463ED901F076FCC3
:109F4C00E8B11F4B1F481D601F4B204F1C70204B4E
:109F5C00002110221E6003F0A5FB1E4B00200021E7
:109F6C00C3E90001013CE4B20326FF2C0DD11A4ACF
:109F7C001A48002103B0BDE8F04000F059B901F0D7
:109F8C001DFC0028DDD003B0F0BD9DF8063015F89F
:109F9C0034008DF8046005EBC40223F007038DF840
:109FAC00063001A993788DF805303A4601F048FC4B
:109FBC00013CE4B20028D8D0E5E70720E3E700BF76
:109FCC0008180020F8170020E8170020C19D010098
:109FDC00EC170020F0170020E19E010064D901006D
:109FEC0070B5084D084E00242B789C4201D30020FC
:109FFC0070BD3368012113F8340001F099FC013471
:10A00C00F2E700BFE8170020081800201FB5002158
:10A01C00039001AA44F20100CDE9011100F004F80B
:10A02C0005B05DF804FB000038B572B6FFF74CFDC7
:10A03C00FFF7C4FB0028FBD1104B114C114D1249FA
:10A04C00E41AE408240444F00100FFF703FDD5F8FA
:10A05C00F030DB0700D500BE0C4944F00200FFF7DE
:10A06C00F9FCBFF34F8FEA68094B02F4E06213432B
:10A07C00EB60BFF34F8F00BFFDE700BFACD7010013
:10A08C00DCD7010000ED00E068D9010074D90100B3
:10A09C000400FA0510B5D0E90243D1E90202A0424E
:10A0AC0072EB03032CBF0120002010BD08B50A4839
:10A0BC0000F05FFB094AD2E90031C018084BD3E924
:10A0CC00002341F10001904271EB030303D210F124
:10A0DC00807041F1000108BD5811002010180020BB
:10A0EC008818002037B505460C460A4801A900F02F
:10A0FC0074FB60B10570446001A9064800F097FB41
:10A10C0018B1054800F03AFB002003B030BD042024
:10A11C00FBE700BF7418002058110020294B73B5C1
:10A12C001E7804461EB90026304602B070BD0028C9
:10A13C00F9D0FFF7BBFFD4E902239042994139D300
:10A14C0000230DF107008DF8073000F0BDF92369ED
:10A15C002BB94FF0FF324FF0FF33C4E902239DF8C7
:10A16C00070000F0D5F9D4E90530984700250DF12A
:10A17C0007008DF8075000F0A7F92369C3B1D4E9A3
:10A18C000212B2F1FF3F08BFB1F1FF3F05D05B18DF
:10A19C0042F10002C4E9023235469DF8070000F096
:10A1AC00B7F9002DBFD00848214600F0E8FEBBE708
:10A1BC001D46F2E7B3F1FF3F08BFB2F1FF3FB2D04B
:10A1CC00F1E700BF1818002090D9010013B5114B0E
:10A1DC0011491868019008231048582200F0EAFA37
:10A1EC00044698B90E4A0F4801A900F0B3F9044689
:10A1FC0060B90C48012100F09FFA01230A4A094872
:10A20C00194600F001FA094B01221A70204602B0DF
:10A21C0010BD00BF8CD901001C1800207418002040
:10A22C0019A3010058110020FFFF7F00181800200F
:10A23C0030B56AB103684FF0FF344FF0FF355A6107
:10A24C004A1E5142C3E9024551411961002030BDFB
:10A25C000720FCE7F7B5044600250DF1070017466B
:10A26C000E468DF8075000F02FF9D4E90223B3F114
:10A27C00FF3F08BFB2F1FF3F07D1FFF717FF3018C0
:10A28C0041F10001C4E9020101259DF8070000F02D
:10A29C003FF955B12369A76103B12661214600201E
:10A2AC0003B0BDE8F040FFF71DBF284603B0F0BD7A
:10A2BC0037B5054600240DF107008DF8074000F076
:10A2CC0003F9D5E90223B3F1FF3F08BFB2F1FF3F19
:10A2DC0006D04FF0FF324FF0FF33C5E902230124C3
:10A2EC009DF8070000F014F934B12946012003B0A1
:10A2FC00BDE83040FFF7F6BE204603B030BD00008D
:10A30C00014800F036BA00BF581100202DE9F74380
:10A31C00064600F019FA40B1634AD2E9003113F154
:10A32C00807341F10001C2E900310021304600F098
:10A33C001AFA38B15D4C236823B12068FFF7EEFEA2
:10A34C00002323600121304600F00DFA20B1FFF705
:10A35C00ADFE574BC3E900015648544F01A900F01C
:10A36C0076FA4FF0FF344FF0FF35A0B9DFF8488193
:10A37C004E4D404600F019FE002800F08680D0E9D2
:10A38C000223B3F1FF3F08BFB2F1FF3F33D1404688
:10A39C0000F005FEEDE70378012B21D0022B09D14B
:10A3AC00DFF81481404600F0FAFD002877D0C0E9B0
:10A3BC000245F7E75BB94168D1E90223B3F1FF3FEE
:10A3CC0008BFB2F1FF3F02D03B4800F0D8FD01A915
:10A3DC00384800F067FA01A9364800F038FAC4E7AB
:10A3EC0041683B68994202D100233B60EFE7324859
:10A3FC0000F0DEFDEBE7296891B12968D1E9020193
:10A40C0082428B412FD22B68D3E90223B3F1FF3F59
:10A41C0008BFB2F1FF3F03D02968404600F0AFFD02
:10A42C00404600F0BCFDD0E902490746FFF73EFE6E
:10A43C00201A69EB0109012879F1000318DBB0F54A
:10A44C00350F13D3FFF75CFF1C4A02441C484FF432
:10A45C009603002100F0F8F890B92B6813B9304638
:10A46C0000F0CAF82F6003B0BDE8F0832246EDE798
:10A47C001348002100F06DF93846FFF74FFE01E05C
:10A48C000D28F9D000232B6073E7084B1B68002BB9
:10A49C00E9D1304603B0BDE8F04300F0B1B8094B48
:10A4AC0001221A7093E700BF1018002090180020AA
:10A4BC00881800207418002090D90100FFFFB40008
:10A4CC00581100201818002070B5EFF3108672B6E2
:10A4DC000C4A946801239CB993600B4B0B4DD3F839
:10A4EC00801029401160C3F88050D3F8841051605B
:10A4FC004FF0FF32C3F88420047006B962B670BD09
:10A50C000370FAE79418002000E100E0FC06FFBDA0
:10A51C00084B9A6810B55AB150B9EFF3108172B666
:10A52C00054A1C6814605C685460986001B962B696
:10A53C0010BD00BF9418002000E100E00346405815
:10A54C0082B028B100225A505B580193019B012024
:10A55C0002B07047F8B5204B4479204E43F82420C4
:10A56C001F4A204B06EBC4049B1A2279DB081B0400
:10A57C0032B143F002001C49FFF76CFA0820F8BD19
:10A58C0002680C88C2F8084590F904508A7804795E
:10A59C005201002DD2B219DB14494F1987F8002350
:10A5AC0001226D0904F01F0402FA04F441F825405D
:10A5BC00427906EBC201012446F832000C7143F0DB
:10A5CC0003000B49FFF746FA0020D8E7094904F0CD
:10A5DC000F040A55ECE700BFA8180020A0180020B3
:10A5EC00ACD70100ECD701009CD9010000E100E0E0
:10A5FC00BED9010014ED00E0036801221A60704717
:10A60C00036801225A60704773B501F15005AD0023
:10A61C000068ADB24FF480348C400026C0F808437B
:10A62C00C0F84843465101F5A8714559019522F0EF
:10A63C007F42019D40F82120C0F844430BB1C0F883
:10A64C00044302B070BD00002DE9F74F0D4622F017
:10A65C007F4402684FF4803705F150068F408046E6
:10A66C00B60002EB8500C2F84873B6B2C2F80873A4
:10A67C00D2F8041599464FF0000BD0F84035C0F8CD
:10A68C00401542F806B05B1A9259009223F07F43B2
:10A69C00012B009A4FEA850A0CD1264B4FF48060AF
:10A6AC0043F001039847D8F8003043F806B09B59A3
:10A6BC000193019BD8F80010D1F80465C1F84473DC
:10A6CC00A31B23F07F43012B1CD11A4B05F5A87556
:10A6DC00013443F0010341F825404FF48060984762
:10A6EC00D8F80030D3F804359E4209D1D8F80030A0
:10A6FC000020C3F84473C3F8047303B0BDE8F08FB3
:10A70C000D20FAE78A44C9F1FF13CAF84045D1F885
:10A71C000405221A013A22F07F4203F57F4393424B
:10A72C00EED3002AE2D10134CAF84045D1F8043501
:10A73C009842DAE7D0D9010003680222C3F8442317
:10A74C0009B1C3F80423704700684FF48271FFF716
:10A75C00F5BE4FF4803303FA01F10368C3F84813D4
:10A76C00C3F80813704750318900006889B2FFF7AD
:10A77C00E5BE0368D3F804057047000090F9043077
:10A78C00002B09DB5A09012103F01F0301FA03F323
:10A79C004032024941F82230704700BF00E100E02E
:10A7AC00024B034A1B681068184700BFA81800200A
:10A7BC00A018002030B5054659B1B2FBF3F403FBE9
:10A7CC001424A0B238B9C5E90010A860AA81EB81A5
:10A7DC0030BD0E20FCE70920FAE737B550E8013F01
:10A7EC009DB2C48925448489A54228BF2D1B0489A8
:10A7FC00A54202BFBFF32F8F002207E0C5EA030575
:10A80C0040E80154002CE9D14FF001028DF80320EF
:10A81C000193019A0A609DF8031001F0FF0321B126
:10A82C00006810FA82F003B030BD1846FBE70A88C6
:10A83C004B889A4209D150E8012FC2EA024240E803
:10A84C000123002BF7D1012070470020704737B54A
:10A85C0050E8023F1FFAA3F5C488A54202BFBFF31C
:10A86C002F8F00220DE0C48925448489A54228BF7E
:10A87C002D1BC3EA054540E80254002CE8D14FF0EB
:10A88C0001028DF803200193019A0A609DF80310D0
:10A89C0001F0FF0321B1006800EB124003B030BDA2
:10A8AC001846FBE70A884B889A4209D150E8022FD8
:10A8BC00C2EA224240E80223002BF7D10120704764
:10A8CC000020704710B5034653E8000F0A4643E8D2
:10A8DC00002494F0000FF7D110BD10B5034653E8D7
:10A8EC00002F42EA010043E8000494F0000FF6D177
:10A8FC0010BD10B5034653E8000F00EA010243E80F
:10A90C00002494F0000FF6D110BD10B5034653E8A7
:10A91C00002F02EB010043E8000494F0000FF6D185
:10A92C0010BD10B5034653E8002FA2EB010043E81D
:10A93C00000494F0000FF6D110BD0121FFF7CDBF3C
:10A94C000021FFF7D6BF10B590B1D0E90123016803
:10A95C009B1ADBB20A60013BDBB2FF2B026802D10F
:10A96C000020107110BD11684C1C14600B70F2E7C4
:10A97C000E20F7E737B5054600240DF107008DF8DA
:10A98C000740FFF7A1FD2A686B68116899420ED940
:10A99C00481E106011F8013CEC68298A01FB034445
:10A9AC00AB6811791B1ADBB2994238BF13719DF851
:10A9BC000700FFF7ADFD204603B030BD37B50546A7
:10A9CC0000230DF107000C468DF80730FFF77CFDD6
:10A9DC002A681368591C1160E968641A298AB4FB47
:10A9EC00F1F41C709DF80700FFF792FD03B030BD29
:10A9FC00826810B504462AB143690168006998471A
:10AA0C000023A36010BD0EB403B5039921B104ABB0
:10AA1C0001AA019300F076F802B05DF804EB03B0E4
:10AA2C0070470A2938B504460D4602D10D21FFF7AF
:10AA3C00F8FFA3682268591CA160D554D4E90132EF
:10AA4C009A4204D32046BDE83840FFF7D1BF38BD49
:10AA5C002DE9F84F9846DDE90A43154682460F4624
:10AA6C000A464FF00109AA420FD2C14538BFC14670
:10AA7C0013F0010B01D16CB900240126B8F1010FC0
:10AA8C001BD908F1FF386E43F8E709F10109B2FB55
:10AA9C00F5F2E8E79B070ED5B8F1000F0CBF302696
:10AAAC002026A145E9D2013C31465046FFF7B9FFBB
:10AABC00002CF6D1E0E72026F3E7B7FBF6F39D4236
:10AACC00E1D9DFF83C80B7FBF6F3504618F80310D9
:10AADC0006FB1377FFF7A5FF3346AB42B6FBF5F643
:10AAEC00F1D2BBF1000F02D00CB1A14501D3BDE8EE
:10AAFC00F88F20215046013CFFF793FFF4E700BF8D
:10AB0C00D6D901002DE9F74F05461746884600298E
:10AB1C0000F03E8118F8011B49B92B7B002B00F08B
:10AB2C003781284603B0BDE8F04FFFF761BF2529F8
:10AB3C0040F0B780002698F800302D2B424608F1E3
:10AB4C00010823D0302B24D02B2B25D000242A2BEA
:10AB5C0002F1010123D13B681A1D1B683A601C44A9
:10AB6C000A4613782E2B26D101324FF0000A1046DC
:10AB7C0010F8011BA1F1300CBCF1090F1DD80A23F0
:10AB8C0003FB0A13A3F1300A0246F0E746F0010674
:10AB9C00D1E746F00206CEE746F00406CBE711F803
:10ABAC00013CA3F130000928DBD80A2202FB043453
:10ABBC00303C0A46CBE74FF0000A12F8011B01F0BB
:10ABCC00FB0068289046F8D0782909D86F290CD852
:10ABDC00632962D022D8252963D0582900F08880B7
:10ABEC0098F80030002B95D197E770390829F7D8E1
:10ABFC0001A353F821F000BF77AD0100EDAB0100CC
:10AC0C00EDAB01000DAD0100EDAB0100EBAC0100B3
:10AC1C00EDAB0100EDAB0100FDAC0100642901D0EE
:10AC2C006929DDD13A68D2F80090111D89EAE972E0
:10AC3C003960A2EBE9724FF0010B092A35DCD345E0
:10AC4C0038BFD3462CB1B9F1000F01DB720700D528
:10AC5C00013CB30702D5BAF1000F03D0F00701D4C1
:10AC6C004CBB0024B9F1000F2DDAC9F100092D21DC
:10AC7C002846FFF7D6FE06F00302022A04D1BAF1E9
:10AC8C00000F01D11CBB0024CDE9004653460A221B
:10AC9C0049462846FFF7DCFEA2E73B681A1D1978E7
:10ACAC003A602846FFF7BDFE9AE70A230BF1010B29
:10ACBC00B2FBF3F2C1E7A345D4D220212846013CD4
:10ACCC00FFF7AFFECCE77107D5D52B21D0E7A34515
:10ACDC00DAD230212846013CFFF7A3FED2E73968CF
:10ACEC00CDE900460A1D3A6053460A220968D0E7AE
:10ACFC0039680A1D3A60CDE9004653461022F5E743
:10AD0C003B681A1D3A6016F00106D3F8009024D166
:10AD1C00B9F1000F03D0484602F0F7FC0646B442E6
:10AD2C001DD809F1FF3919F8011F00293FF458AF5C
:10AD3C002846FFF776FEF6E728460136FFF771FE48
:10AD4C0019F806100029F7D1A642BFF449AF20210B
:10AD5C002846013CFFF765FEF6E70026F0E72021C8
:10AD6C002846013CFFF75DFED9E73B681A1D3A60A7
:10AD7C00302128461C68FFF754FE78212846FFF73F
:10AD8C0050FE00220823CDE900322146102280E734
:10AD9C0003B0BDE8F08F00BF2DE9F84FB0F806A066
:10ADAC004579D2F800B09DF828900AFB05F5043DD2
:10ADBC0088460BEB0301A94203F1040488BFA5EB01
:10ADCC00030BB4FBFAF607460AFB1644C2F800B0B4
:10ADDC004EB9AAEB04055D4528BF5D46BBF1000FDB
:10ADEC0004D1BDE8F88F3F68013EF1E7043408EB6D
:10ADFC0006003C442A46B9F1000F0DD02146ABEBBE
:10AE0C00050B02F026FCDA452E443F6855464FF000
:10AE1C00000428BF5D46E1E701462046EFE7FFF757
:10AE2C0092BDF8B546790146721E05460023934241
:10AE3C002D6803D30024A64202D8F8BD0133F6E7EF
:10AE4C000F682846FFF7BAFD01343946F3E72DE9C0
:10AE5C00F843068ACD1C0746FFF78CFD043E3544AB
:10AE6C000446B5FBF6F5F0B14FF48073EDB2838078
:10AE7C00C680013D076081464FF00008A84512D2FC
:10AE8C003846FFF777FD064648B1637901336371A5
:10AE9C0008F10108C9F8000007608146EEE720467A
:10AEAC00FFF7BFFF34462046BDE8F883012104308C
:10AEBC00FFF72BBD10B5012104460430FFF731FD1F
:10AECC00C0B220B92046BDE81040FFF7AABF10BDA4
:10AEDC001FB503920022009203AAFFF75DFF05B095
:10AEEC005DF804FB1FB503920122009203AAFFF741
:10AEFC0053FF05B05DF804FB41DF7047064B10B5FE
:10AF0C0000241C70054B1C60BFF35F8F044905487F
:10AF1C0000F01FF8204610BDB4180020B81800200F
:10AF2C00F0D90100AC18002008B502F079F918B17D
:10AF3C00BDE80840FFF7E0BF20BF40BF20BF08BD01
:10AF4C00836800225A60C3E904229A60DA601A60AE
:10AF5C0070470B684A684360934208BF0023016046
:10AF6C0008BF43607047436843B1026891685268F8
:10AF7C000B449342436004BF00234360704770B599
:10AF8C00446806460D46206818B1B36829469847B0
:10AF9C0018B923682B60256070BD2468F3E74368FB
:10AFAC00186808B102681A607047436818687047DF
:10AFBC004368186800B97047884203D102681A6068
:10AFCC000120704703460068F4E7000010B50D49F6
:10AFDC00A1F59472914201D800200FE08C1AE30F76
:10AFEC0003EBE4035B1002EBC30452F833308342EF
:10AFFC0005D802D204F10802ECE7606810BD2146C6
:10B00C00E8E700BFFCDE010008B5FFF7DFFF024BED
:10B01C00002808BF184608BDBFDD0100BFF34F8FE5
:10B02C000549064BCA6802F4E0621343CB60BFF3D8
:10B03C004F8F00BFFDE700BF00ED00E00400FA05F4
:10B04C004FF08053D3F83001421C04BF4FF07043D3
:10B05C0093F8E00F831F5842584170474FF07043EC
:10B06C0093F8E02F062A09D1D3F8E83FC3F3031372
:10B07C00033B042B02D8024AD05C70470020704777
:10B08C000BDF01004FF08053D3F83001421C04BF9A
:10B09C004FF0704393F8E00F062804D0A0F10A0398
:10B0AC00584258417047012070470000024AD2F8BC
:10B0BC000034002BFBD0704700E0014010B5FFF7C7
:10B0CC00BFFF40B14FF080539C4AD3F82433C3F3F5
:10B0DC000423C2F84035FFF7C1FF10B1984B994AD1
:10B0EC005A67FFF7CFFF48B14FF080534FF08042C3
:10B0FC00D3F84432C3F34233C2F83C35FFF7AEFF0A
:10B10C0030B1914AD2F8FC3023F08073C2F8FC3095
:10B11C00FFF7B8FF40B14FF080430022C3F80C2179
:10B12C00C3F81021C3F83825FFF798FF20B14FF072
:10B13C0080430322C3F8A025FFF790FF60B1834B37
:10B14C000522C3F810260122C3F888260022C3F872
:10B15C0018263F22C3F814264FF08053D3F8302121
:10B16C00511C09BF4FF07043D3F8343193F8E02FE2
:10B17C00D3F8E83F08BFC3F30313062A4ED1033BB1
:10B18C00042B03D8724AD35C002B49D04FF0805269
:10B19C00704BD2F80414C3F82015D2F80814C3F875
:10B1AC002415D2F80C14C3F82815D2F81014C3F8CF
:10B1BC002C15D2F81414C3F83015D2F81814C3F89F
:10B1CC003415D2F81C14C3F84015D2F82014C3F867
:10B1DC004415D2F82414C3F84815D2F82814C3F82F
:10B1EC004C15D2F82C14C3F85015D2F83014C3F8FF
:10B1FC005415D2F83414C3F86015D2F83814C3F8C7
:10B20C006415D2F83C14C3F86815D2F84014C3F88E
:10B21C006C15D2F84424C3F8702501E00A2AB5D085
:10B22C00FFF70EFF48B14FF080534FF08042D3F838
:10B23C00583203F04F03C2F8E43EFFF723FF48B146
:10B24C004FF08043D3F80024D20744BF6FF00102C3
:10B25C00C3F800244FF08053D3F83021062A0ED1C6
:10B26C00D3F83431033B042B02D83B4AD35CBBB13B
:10B27C003A4AD2F83C3743F48063C2F83C374FF07B
:10B28C008053D3F830210A2A0AD1D3F834313BB198
:10B29C004FF08042D2F8E43E43F00F03C2F8E43E94
:10B2AC004FF08053D3F83021062A0FD1D3F8343124
:10B2BC00033B042B02D82A4AD35C3BB14FF010233A
:10B2CC00D3F808224FF08043C3F858254FF01021D3
:10B2DC00D1F80032002B03DBD1F80432002B17DA43
:10B2EC00204901234FF01020C1F804351524FFF735
:10B2FC00DDFEC0F80042FFF7D9FEC0F80442FFF7AC
:10B30C00D5FE0023C1F80435FFF7D0FEFFF786FE0B
:10B31C00D1F80C32DB070DD512480123C0F80435E7
:10B32C000024FFF7C3FEC1F80C42FFF7BFFEC0F8C4
:10B33C000445E9E70C4B0D4A1A6010BD0030014082
:10B34C0000C007400DF0ADBA00ED00E00050004029
:10B35C00FCDE010000C0004001DF010000100040D5
:10B36C0006DF010000E00140601100200090D003D6
:10B37C00054A4FF0A043105CD3F8043523FA00F0D3
:10B38C00C04300F00100704710DF0100044B1A5C51
:10B39C00012393404FF0A042C2F80C35704700BF18
:10B3AC0010DF0100044B1A5C012393404FF0A042C4
:10B3BC00C2F80835704700BF10DF010008B5002047
:10B3CC00FFF7F0FF0120FFF7EDFF0220FFF7EAFF88
:10B3DC00BDE808400320FFF7E5BF08B50020FFF7E4
:10B3EC00D5FF0120FFF7D2FF0220FFF7CFFFBDE80A
:10B3FC0008400320FFF7CABF074A4FF0A041105C7A
:10B40C00D1F804350122824022EA03001340C1F82E
:10B41C000805C1F80C35704710DF01000D2809D064
:10B42C000E2809D00F2809D010280CBF03204FF08C
:10B43C00FF30704700207047012070470220704792
:10B44C00C20708B501460CD54FF0A0430322C3F840
:10B45C004427C3F84827C3F84C27C3F85027FFF7F5
:10B46C00ADFF8B070AD54FF0A0430C22C3F834274D
:10B47C00C3F83827C3F83C27C3F8402708BD0000A1
:10B48C0038B5074C051E04F1080318BF1C46236889
:10B49C002BB11A6822605B6828469847F7E738BDDD
:10B4AC00C418002020B9054B01225A70FFF7E8BFE1
:10B4BC00012802D1014A9070F8E77047BC180020AF
:10B4CC0020B9034B01225A70FFF7DABF704700BF57
:10B4DC00BC18002038B50E4C2378B3B90D48636006
:10B4EC00A3602361E36000F0E7F8054601F098FEE5
:10B4FC0008B900F0EDF801232370074BD3F80034A2
:10B50C000BB10123A370284638BD8525F5E700BF94
:10B51C00BC180020B1B401000000014037B50D4C3F
:10B52C0000230DF107008DF80730FEF7CDFFE3681F
:10B53C00013BE360E36833B9074BD3F8005415B90A
:10B54C0000F0D8F8A5709DF80700FEF7E1FF03B0F6
:10B55C0030BD00BFBC18002000000140012813B50D
:10B56C000CD0032820D038B9134B0122C3F880200B
:10B57C00BFF34F8FBFF36F8F02B010BD0F4C002382
:10B58C000DF107008DF80730FEF79EFF23780BB9FD
:10B59C00FFF7A0FFE3689DF807000133E360012388
:10B5AC00A370FEF7B5FFE7E700F092F802B0BDE834
:10B5BC001040FFF7B3BF00BF00E100E0BC18002053
:10B5CC001FB503788DF800304368019383688DF8BC
:10B5DC000830C368054A0393054B684653F821307D
:10B5EC0052F82110984705B05DF804FBD0180020E4
:10B5FC00D41800201FB503788DF8003043680193F0
:10B60C0083688DF80830C368054A0393054B684678
:10B61C0053F8213052F82110984705B05DF804FB1F
:10B62C00D0180020D4180020F0B5194B90F800C0A9
:10B63C0091F81DE043F82C20164B16460A6943F886
:10B64C002C20154B03F80CE00C4607460FCC89B0A8
:10B65C006D460FC594E80F0085E80F00CDF810C0BB
:10B66C00BEF1000F09D0002E0C4A694608BF3246C5
:10B67C00381D00F083FD09B0F0BD002E084A694664
:10B68C0008BF324607F10C0000F05AFBF3E700BF8D
:10B69C00D4180020D0180020D8180020CDB50100F7
:10B6AC0001B6010000F18040002382B00360036802
:10B6BC000193019B02B07047044B0246187918B9EC
:10B6CC001A6001229A80704785207047DC18002090
:10B6DC00074B1A68D20704D4C02283F80023012236
:10B6EC001A604FF080430122C3F81825704700BF41
:10B6FC0000E100E04FF0804208B50223C2F80833A5
:10B70C004FF48270FFF7CEFF0123D360D2F81834C8
:10B71C00DB03FBD408BD00004FF0804110B5D1F81D
:10B72C00003163B14FF48070FFF7BCFF0D4B5879BB
:10B73C000122C1F8082310B95A711B6898474FF0C1
:10B74C008042D2F8043163B14FF48270FFF7AAFF44
:10B75C000223C2F80833034BBDE810401B680120DC
:10B76C00184710BDDC18002000F1804000F5C040E7
:10B77C00002382B0036003680193019B02B0704701
:10B78C00800000F1A040D0F8002722F44032C0F82D
:10B79C000027D0F8003743EA0143C0F80037704760
:10B7AC00054B4FF0FF32072843F8202084BFC01808
:10B7BC0080F84820704700BFE418002010B51849E5
:10B7CC0091F8583053BB4FF0FF3222FA03F0C00708
:10B7DC0048BFC81803F1010348BF80F83020202B64
:10B7EC00F3D10024E0B20134FFF7DAFF0C2CF9D1CD
:10B7FC000C4B0022C0204A6583F8060340201860D9
:10B80C004FF4BE70FFF7B0FF074B4FF00040C3F88A
:10B81C000403012381F85830104610BD0820FCE7C2
:10B82C00E418002000E100E000600040034B93F8B6
:10B83C005800003818BF0120704700BFE4180020E2
:10B84C00F0B5394E331893F93030002B69DA8D7816
:10B85C00C5F34005002D0BBF082300230C2408243E
:10B86C00A34201D10420F0BD56F82370013743D117
:10B87C0037185CB246F8232087F8304015B9F21817
:10B88C0082F848008A78550716D4D70736D5820037
:10B89C0002F1A042D2F8005725F00205C2F8005779
:10B8AC00224FC50800F0070C012202FA0CF217F81F
:10B8BC0005C042EA0C027A558A780D7812F0020221
:10B8CC0025D09B0003F1804303F5C0430002D3F85D
:10B8DC00102522F4473222F44072C3F810252D04AF
:10B8EC00D3F8102500F4F85005F4403528431043E4
:10B8FC00C3F810050020B6E70133B1E74D7800F529
:10B90C00E0724FF0A047AD0047F82250C8E7083C62
:10B91C0046FA84F494F8500040EA851584F85050A7
:10B92C00E8E708209FE700BFE41800203819002042
:10B93C0038B5204C251895F93020072A18DD083A1F
:10B94C0044FA82F494F850309B09032B0BD14FF03E
:10B95C00A043D3F81015C14001F001010231BDE83C
:10B96C003840FFF70DBF012B0CBF02210321F6E776
:10B97C00D3B2072B1DD8930003F1804303F5C043CA
:10B98C00D3F8100540F00100C3F8100502F1400097
:10B99C0040B2800080B2FFF7E7FE51B195F930302C
:10B9AC0054F823302BB1012303FA02F2024BC3F8F3
:10B9BC00042338BDE4180020006000404FF0A04381
:10B9CC00D3F8103523FA00F000F0010070470000A6
:10B9DC002DE9F74F00244E4D01944FF48072012154
:10B9EC0002F1804303F5C04390B21B68012B06D1D2
:10B9FC00D5F804330B4202D0FFF7B6FE0C430432E9
:10BA0C00B2F5907F4FEA4101EAD1414BD3F87C313A
:10BA1C00012B0CD14FF4BE70FFF7A6FE4FF0A043E4
:10BA2C0044F00044D3F820250192C3F82025E3B25A
:10BA3C00D3B1384F00250126344210D0AB0003F1AE
:10BA4C00804303F5C043D3F81005D3F8101557F80D
:10BA5C00253023B1C1F30141C0F3042098470135CF
:10BA6C00082D4FEA4606E7D1002C48DA294D4FF055
:10BA7C00A048294E4FF00009012716F9013B5A1C2A
:10BA8C0031D0C3F3C20202A90A44DCB212F8042C6E
:10BA9C0003F03F0A03F0070307FA03F31A4222D01C
:10BAAC000AF5E073504658F82330C3F3014BBBF151
:10BABC00020F0CBF03210221FFF762FE07FA0AF303
:10BACC00C8F8203505EB0A0393F9303055F82330CC
:10BADC004BB1A109032904D0BBF1020F12D10129EA
:10BAEC0001D15046984709F10109B9F1040FC4D1AD
:10BAFC00D8F820350193C8F82035002BB9D103B004
:10BB0C00BDE8F08FBBF1030FEDD10229E8E700BFD0
:10BB1C0000600040E418002034190020014B1B6821
:10BB2C00184700BF401900200E4B984237B50C4601
:10BB3C0002D0002003B030BD00230DF107008DF8BA
:10BB4C000730FEF7C1FC084B1D7915B901221C60AA
:10BB5C001A719DF80700FEF7DBFC002DE9D01120CF
:10BB6C00E8E700BF0020004040190020034B98423A
:10BB7C0001BF034B00221A601A717047002000406D
:10BB8C00401900200023435082B043580193019B7D
:10BB9C0002B070470A4610B54FF48E71FFF7F2FFF2
:10BBAC00136A9168C95C136A01331362C0F81C15DF
:10BBBC0010BD8B690A4610B54FF4847123B9FFF799
:10BBCC00E1FFD0F8183510BDFFF7DCFF536AD168E0
:10BBDC00D0F81805C854536A01335362F3E70000D8
:10BBEC001FB501238DF80030044BCDE90110D3E9CA
:10BBFC0000126846904705B05DF804FB4819002018
:10BC0C0030B54D4DD5F804339A0585B051D5D5F8DE
:10BC1C002431002B4DD04FF492712846FFF7B2FF20
:10BC2C004FF40173C5F80833444B93F829200AB933
:10BC3C0001226A60404902228DF80020D1F880244C
:10BC4C00C1F8802403929A690292DA680192002268
:10BC5C00C3E906226846D3E9001290473648D0F86B
:10BC6C001C315BB1354A5169136A99424DD992F82E
:10BC7C002830002B49D11146FFF78CFF2E48D0F805
:10BC8C004431002B56D04FF4A271FFF77BFF2B4BA6
:10BC9C0093F829200AB1012202609A69002A49D03E
:10BCAC00586AD96800229A6105B0BDE83040FFF7A8
:10BCBC0097BFD5F804335B07D0D5D5F80831002BE6
:10BCCC00CCD01E4C1C482146FFF773FF636AA26957
:10BCDC009A42C3D1E369E1684BB1A3612369E36084
:10BCEC000023606AE3616362FFF77AFFB6E794F8BA
:10BCFC0029300BB901236B600F4B4FF40172C3F861
:10BD0C0008230023606AA361EEE70B484FF48E71A1
:10BD1C00FFF738FF5369002BB0D051690291002313
:10BD2C0091688DF80030019153616846D2E9001397
:10BD3C009847A3E705B030BD00200040481900200B
:10BD4C002DE9F843534D90F804802C2303FB085342
:10BD5C00064693F82A300C469146002B40F096800C
:10BD6C004D490068FFF7E0FE0746002840F0908040
:10BD7C0022683068511C0BD04FF0A0410123934036
:10BD8C00C1F8083502F5E0734FF0030C41F823C0FD
:10BD9C0061684B1C1FBF01F5E0734FF0A04C4FF0D6
:10BDAC00000E4CF823E0A369C0F8243594F814C0B5
:10BDBC00637DBCF1010F4CEA0303C0F86C35C0F88D
:10BDCC001415C0F80C251DD1A268531C1FBF02F519
:10BDDC00E0734FF0A0414FF0000C41F823C0E36832
:10BDEC00591C0BD04FF0A04C01219940CCF80815F0
:10BDFC0003F5E0714FF0030E4CF821E0C0F8083564
:10BE0C00C0F810252C2202FB08F2AB18C3F80490E2
:10BE1C002369AB50B9F1000F20D04FF48E71247F01
:10BE2C00FFF7B0FE4FF4A2713068FFF7ABFE32683B
:10BE3C001A4BC2F80433130B42F307326101002A88
:10BE4C00C9B21EDB1648841884F80013012152096C
:10BE5C0003F01F0301FA03F340F822303368042285
:10BE6C00C3F800252C2303FB08530022C3E9062248
:10BE7C0083F829205A61012283F82A203846BDE82C
:10BE8C00F883084A03F00F03D154E7E70827F5E7D6
:10BE9C001127F3E7481900200DBC010080000200B7
:10BEAC0000E100E014ED00E0F8B503680579304CD2
:10BEBC000022C3F800252C2202FB05425268A2B1D5
:10BECC002C4AC3F808231A0B43F30733002B0CDB63
:10BEDC0002F01F015B0901228A402033264941F8F8
:10BEEC002320BFF34F8FBFF36F8F0068D0F80C6522
:10BEFC00D0F81415D0F80835D0F810254FF0FF37CE
:10BF0C00BE42C0F8147518BF06F5E076C0F80C7583
:10BF1C00C0F80875C0F810751EBF4FF0A0474FF061
:10BF2C00020C47F826C04E1C1FBF4FF0A04601F56F
:10BF3C00E071022746F82170511C1FBF4FF0A04141
:10BF4C0002F5E072022641F822605A1C1FBF03F56D
:10BF5C00E0734FF0A042022142F82310FFF706FED7
:10BF6C002C2303FB0544002384F82A306360F8BDBE
:10BF7C00481900208402020000E100E00279044B21
:10BF8C002C2101FB02335869003818BF012070477F
:10BF9C00481900202DE9F84F064690F80480894690
:10BFAC009246FFF7EBFF044600283CD1204F2C258E
:10BFBC0008FB057B4FF48E71CBF814A0CBF80890DE
:10BFCC00CBF820008BF828003068FFF7DBFD3068D9
:10BFDC00012383605946FFF7DDFDDBF804305D4635
:10BFEC001BBB3068DBF814402B6A9C4211D83368B9
:10BFFC00D3F81C21002AFBD00122DA6000202C236C
:10C00C0003FB087700237B61BDE8F88F95F8283097
:10C01C003BB9D0F81C31002BF8D05946FFF7BAFDCC
:10C02C00E2E70F20EBE71120EEE72046ECE700BF3C
:10C03C00481900200023435082B043580193019BC0
:10C04C0002B070471FB501238DF80030044BCDE9C9
:10C05C000110D3E900126846904705B05DF804FB67
:10C06C00741900207FB5434AD2F82461002E60D0A9
:10C07C0010464FF49271FFF7DDFF02238DF800306C
:10C08C00D2F88034C2F880340393D2F83C35029352
:10C09C00394BDA6801920022C3E906226846D3E9DB
:10C0AC00001290473348D0F8443173B14FF4A27169
:10C0BC00FFF7C0FF304B9A693AB10022C3E9062260
:10C0CC00D968D0F83C05FFF7BDFF2A48D0F82031DD
:10C0DC00ABB14FF49071FFF7ADFF0123C360264B5A
:10C0EC005A6962B1D0F84C150291002299688DF80A
:10C0FC00002001915A616846D3E9001290471D480F
:10C10C00D0F858319BB14FF4AC71FFF793FF1A4B39
:10C11C005A6962B1D0F84C150291002299688DF8D9
:10C12C00002001915A616846D3E90012904704B08F
:10C13C0070BDD2F81031002BB4D04FF4887110467A
:10C14C00FFF778FF0C4BD2F83C0599698842A9D1CE
:10C15C00DC69D96864B1D2F8005225F02005C2F828
:10C16C0000521A699C61DA60DE61FFF76BFF99E798
:10C17C009C61FAE700200040741900202DE9F84377
:10C18C005A4E90F80480242303FB0863044693F86A
:10C19C0020300D469146002B40F0A3805449006896
:10C1AC00FFF7C2FC0746002840F09D802A682068F3
:10C1BC00511C0BD04FF0A04101239340C1F808351E
:10C1CC0002F5E0734FF0030C41F823C069684B1C77
:10C1DC001FBF01F5E0734FF0A04C4FF0000E4CF870
:10C1EC0023E0AB69C0F8243595F814C06B7DBCF125
:10C1FC00010F4CEA0303C0F86C35C0F80C25C0F8ED
:10C20C0014151DD1AA68531C1FBF02F5E0734FF023
:10C21C00A0414FF0000C41F823C0EB68591C0BD027
:10C22C004FF0A04C01219940CCF8081503F5E071B2
:10C23C004FF0030E4CF821E0C0F80835C0F810257B
:10C24C00242202FB08F2B318C3F804902B69B350F4
:10C25C00B9F1000F2FD04FF488712A7FFFF7EAFE57
:10C26C0020684FF49071FFF7E5FE20684FF492714F
:10C27C00FFF7E0FE20684FF4A271FFF7DBFE4FF4EE
:10C28C00AC712068FFF7D6FE23681A49C3F8041373
:10C29C00190B43F307335201002BD2B21CDB1648A7
:10C2AC00C51885F8002301225B0901F01F0102FA71
:10C2BC0001F140F8231023680822C3F80025242339
:10C2CC0003FB08660023C6E906337361012386F875
:10C2DC0020303846BDE8F883084B01F00F015A5462
:10C2EC00E9E70827F5E71127F3E700BF74190020E9
:10C2FC0071C001001003420000E100E014ED00E009
:10C30C00F8B5444C0579242303FB054302465B68CE
:10C31C000068ABB1404BC0F8083340F30733002B37
:10C32C004FEA10310CDB01F01F065B090121B14013
:10C33C0020333A4E46F82310BFF34F8FBFF36F8F65
:10C34C00D0F8003223F02003C0F80032242303FB82
:10C35C0005439B692BB14FF4A271FFF76BFE0123D0
:10C36C0043604FF4AC71FFF765FE0123C3602423D7
:10C37C0003FB0543D0F858110029FBD0996919B17A
:10C38C00D0F844110029F5D00023C0F8003513680B
:10C39C00D3F80C75D3F81465D3F80825D3F8101519
:10C3AC004FF0FF3C6745C3F80CC518BF07F5E077A5
:10C3BC00C3F814C5C3F808C5C3F810C51EBF4FF0A9
:10C3CC00A0434FF0020C43F827C0771C1FBF4FF05F
:10C3DC00A04306F5E076022743F826704E1C1FBFDB
:10C3EC0001F5E0714FF0A043022643F82160531C85
:10C3FC001FBF4FF0A04302F5E072022143F8221058
:10C40C00FFF7B4FB242303FB0544002384F82030FE
:10C41C006360F8BD741900201003420000E100E0D5
:10C42C000279044B242101FB02335869003818BFF0
:10C43C00012070477419002001F06043B3F1005FD4
:10C44C002DE9F0470646884692463BD190F8049079
:10C45C00FFF7E6FF0446002836D11D4F306824252F
:10C46C0005FB09754FF49071C5F814A0C5F8088048
:10C47C00FFF7E0FD4FF4AC713068FFF7DBFD33687C
:10C48C006A69A968C3F84415C3F8482501229A6063
:10C49C006A68DAB9D3F82021D3F858011AB9002800
:10C4AC00F8D00F2007E00028FBD10122DA60D3F886
:10C4BC005821002AFBD0242303FB097700237B613E
:10C4CC00BDE8F0871020FBE71120F9E72046F7E7DD
:10C4DC00741900200023435082B043580193019BF0
:10C4EC0002B0704738B51D4602230B710B684A71B8
:10C4FC0004467BB112F0040F0CBF8221922110076D
:10C50C0048BF41F02001D306236848BF21F08001C9
:10C51C00C3F8001320684FF48271FFF7DBFF12F0B1
:10C52C00800F206805BF012343514019002038BDFE
:10C53C002DE9F04F484E077906EBC70385B01B7900
:10C54C0005460C464FEAC709002B40F0828046F89E
:10C55C00372001396A4604F103084FF0010A4FF005
:10C56C00A0404FF0030B11F801CFBCF1FF0F67D0C7
:10C57C002CF0800313600AFA03FE03F5E0731CF041
:10C58C00800F14BFC0F808E5C0F80CE540F823B0E4
:10C59C00884502F10402E6D12868009BC0F860359A
:10C5AC00019BC0F86435029BC0F868350122039BDF
:10C5BC00C0F86C35C0F8002594F805C0A179238922
:10C5CC00C0F80CC5C0F80415C0F808356389C0F86C
:10C5DC0010350023C0F800324FF48E71C0F80033D0
:10C5EC00FFF778FF28684FF48871FFF773FF28680E
:10C5FC004FF48A71FFF76EFF28684FF48271FFF7D2
:10C60C0069FF56F83730A3B12B68217943F3073013
:10C61C0049010028C3F30733C9B215DB0F4C2518A9
:10C62C0085F80013400903F01F0302FA03F344F8E2
:10C63C0020304E4401233371002005B0BDE8F08F4B
:10C64C004FF0FF331360A3E7054A03F00F03D154F7
:10C65C00EFE70820F1E700BF9819002000E100E0A7
:10C66C0014ED00E0F0B40D46047917492F68049ED0
:10C67C0001EBC4010468C4F82075AF88C4F82475B4
:10C68C00AF68ED68C4F82875C4F82C551568C4F863
:10C69C0040559588C4F844559568D268C4F84855F7
:10C6AC00C4F84C25C4F81435F3070AD416F0020369
:10C6BC0018BF0423C4F80032F2B20823F0BCFFF711
:10C6CC0011BF1023F6E700BF981900202148D0F8BD
:10C6DC00103110B55BB14FF48871FFF7FBFE1E4BA8
:10C6EC005A79510703D51B680BB10120984719489B
:10C6FC00D0F814315BB14FF48A71FFF7EBFE164B97
:10C70C005A79120703D51B680BB1022098471148C0
:10C71C00D0F81C315BB14FF48E71FFF7DBFE0E4B82
:10C72C00587910F0100002D11B6803B198470948E2
:10C73C00D0F8043163B14FF48271FFF7CBFE064B96
:10C74C0001221A711B681BB1BDE810400320184769
:10C75C0010BD00BF00C00140981900200220FEF758
:10C76C004BBE00002DE9F04780460D46FEF756FE05
:10C77C000328044610D8012D10D0022D30D05DB9FD
:10C78C001A48FDF795FD1A4B04EB440213449D78AF
:10C79C00184B1B5DAB4219D0BDE8F087144E00EB73
:10C7AC004003F218F55C5378470053B1DFF848901A
:10C7BC000E484A464FF48041FDF74CFD08B989F804
:10C7CC00008027443E440B4BB2781A55002DE3D021
:10C7DC000A4B1B68002BDFD02846BDE8F0471847F2
:10C7EC0000EB4004024804446578EFE78811002010
:10C7FC00A2190020BD190020A0190020B819002092
:10C80C0000780221FFF7AEBF08B5094B1B7853B176
:10C81C000020FEF7C7FD0120FEF7C4FDBDE808406F
:10C82C000320FEF7BFBDBDE80840FEF7C7BD00BF43
:10C83C00A1190020F8B57A4C237805461BB10023CA
:10C84C002370FFF7E1FF172D00F28780DFE805F07A
:10C85C000C1717425364757F878C878C9499999920
:10C86C009999C3C8D0D8E3E3FFF7CEFF6D48FDF725
:10C87C001FFD6D4B002204461A702046F8BD0020A7
:10C88C00FEF776FDF0B10020FEF78CFD022D0CBFFB
:10C89C004FF4E1644FF47A64634B1D7000254FF440
:10C8AC0000464FF47A7029464FF4FA620023E4FBF9
:10C8BC00060100F009FE2A460146BDE8F840594839
:10C8CC00FDF7C8BCFEF762FD022D0CBFC8244FF467
:10C8DC00C874E1E70020FEF74BFD40B10020FEF7E5
:10C8EC0061FD4FF44874504B03221A70D6E7FEF7E3
:10C8FC004DFDC824F7E70020FEF73AFD38B10020C3
:10C90C00FEF750FD4FF47A64474B0422EDE7FEF737
:10C91C003DFD4FF4C874F7E70020FEF729FD48B140
:10C92C000020FEF73FFD404B05221A7040F6CD412A
:10C93C000022C2E7FEF72AFDF5E70020FEF75CFDBA
:10C94C00394B06221A70002240F26661B5E70020CE
:10C95C00FEF71CFD344B07221A7000248DE70120D2
:10C96C002070FEF749FDEEE701202070FEF744FD34
:10C97C0000224FF40051A0E7FEF72FFD2A4B0C22AA
:10C98C00EAE72A482A4EFDF793FCD5F11105044637
:10C99C001CD0D8B9012D13D0C820454321464FF4E3
:10C9AC0000474FF47A704FF4FA620023C5FB07017D
:10C9BC0000F08AFD224601461C48FDF74BFC04465C
:10C9CC000220FEF7E3FC0123337056E70220FEF74A
:10C9DC00E9FC0023F8E7FFF717FF134B1222BBE724
:10C9EC00FFF712FF0020FEF7D1FC0F4B1322B3E729
:10C9FC00FFF70AFF0120FEF7C9FC0B4B1422ABE733
:10CA0C00FFF702FF0020FEF7C1FC0120FEF7BEFC81
:10CA1C00054B1522A0E7FEF7E0FC034B1D709CE7CD
:10CA2C00B4190020A8110020BC19002068110020A6
:10CA3C00A1190020044B1B68DB0703D5034B1878A6
:10CA4C00FFF7F8BE704700BFB0190020BC190020DA
:10CA5C00044B1B6813F0010301D0FFF7EBBE184623
:10CA6C00704700BFB019002038B51C4B18601C4B28
:10CA7C0010F00204054619601AD01A4B1A480E22FF
:10CA8C001A700F22DA7010229A7111225A72042134
:10CA9C0040F23332FDF74CFA044648B9FDF7A0FAE0
:10CAAC00044628B90146114A1148FDF7C1FB04465A
:10CABC00EB0711D50120FEF7C3FC6CB921460D4ADA
:10CACC000D48FDF7B5FB044630B9BDE838400B4ABC
:10CADC000B480121FDF7ACBB204638BDB019002036
:10CAEC00B8190020A21900203CDF01000DC801007C
:10CAFC0060DF010041CA010064DF010069C7010069
:10CB0C005CDF010072DF704773DF70477047000015
:10CB1C0000B54FF4804199B00020FCF7FDFD08B141
:10CB2C00FDF774FAFCF738FDFDF750FB08B1FDF783
:10CB3C006DFA00210120FFF797FF08B1FDF766FAA7
:10CB4C00FEF7DCF908B1FDF761FA00F02BFB08B138
:10CB5C00FDF75CFA09AD002329460120099300F08A
:10CB6C00ADFB08B1FDF752FA284600F041FC08B1C4
:10CB7C00FDF74CFA5923ADF81430374B07933C2290
:10CB8C00172300212846ADF8183000F08BFD042344
:10CB9C008DF82730314B1822002105AE184612961D
:10CBAC0000F080FD05220270402282602C4A28464B
:10CBBC0052F8041B00F0E2F808B1FDF727FA274AF7
:10CBCC0027492848FFF79EFF08B1FDF71FFA264BAF
:10CBDC0026482749C01AC008000440F00300FCF79F
:10CBEC0039FF204B01211878FFF78EFF08B1FDF7B4
:10CBFC000DFA0220FFF72CFF08B1FDF707FA1D4ACA
:10CC0C001068516802AB03C3906818601A4A1B483D
:10CC1C0002A9FFF78DFC08B1FDF7F8F9184A194C79
:10CC2C00137843F00103137094E80F00103486E876
:10CC3C000F0094E80F0085E80F00022300930F48C3
:10CC4C003C232A463146FFF70DFDFCF7B7FD0028C3
:10CC5C00FBD1FEF769F9F8E7D9110020C4190020BF
:10CC6C00C8110020D8110020ACD70100DCD701007E
:10CC7C0068DF010080DF010019CB0100F0110020FA
:10CC8C00FB1900208CDF01006DDF704779DF7047E6
:10CC9C007DDF704764DF70472DE9F04F85B00025CC
:10CCAC000E9CBDF83CB0B4F800A00191074690462C
:10CCBC001E46A9463A884A450DDC45B12388013BFE
:10CCCC00A3EB0A039BB2FF2B3AD806F80A300020DC
:10CCDC0005B0BDE8F08F7A6852F829000390002265
:10CCEC000DF10B0103A8FFF7D5FF0028F0D19DF83B
:10CCFC000B20424521D12288002D14BF0020022098
:10CD0C0002EB0801014459451ADC3DB9013292B2DB
:10CD1C00019B2280B35422880132228022880DF19B
:10CD2C000B01324403A8FFF7B5FF0028D0D12188AE
:10CD3C009DF80B200A442280012509F10109B9E76D
:10CD4C000C20C5E72DE9F341089FBDF8248015465A
:10CD5C00CDE90078022204461E46FFF79DFF50B92C
:10CD6C003346102229462046CDE9087802B0BDE8AA
:10CD7C00F041FFF791BF02B0BDE8F0812DE9F04F13
:10CD8C0000231788138090F82D3085B006460D4689
:10CD9C0014465BB3082F01D80C2028E102A8FFF73A
:10CDAC0073FF002840F023812388DDF80910082246
:10CDBC00EA54238801339BB21B222380EA54238834
:10CDCC0001339BB2EA182380E950BDF80D309380F3
:10CDDC0023889DF8082006339BB212F0FE0218BF80
:10CDEC0001222380EA54238801332380B378FBB1DA
:10CDFC0023880433BB42CFD802A8FFF747FF002893
:10CE0C0040F0F58023880322EA54238801339BB237
:10CE1C0019222380EA542388BDF8082001339BB2E1
:10CE2C00E9182380EA54120A4A70238802332380BB
:10CE3C00F2789AB12388D91CB942ADD80221E954B1
:10CE4C00238801339BB201212380E95423880B44AE
:10CE5C009BB22380EA5423880B4423807268AAB1C6
:10CE6C002388D91CB94297D8022192F90020E954A1
:10CE7C00238801339BB20A212380E9542388013390
:10CE8C009BB22380EA542388013323803389002BFF
:10CE9C0040F0A180338A5BB1CDE900472B460722D5
:10CEAC00032106F11000FFF74DFF002840F09F8092
:10CEBC00338B5BB1CDE900472B461522142106F1CB
:10CECC001800FFF73FFF002840F09180326A002ADB
:10CEDC0040F09080D6F82480B8F1000F30D0B8F82C
:10CEEC0004302188981C8A1C0244BA423FF654AF85
:10CEFC00FE283FF651AF03336B54238801339BB2AA
:10CF0C00FF222380EA54238801339BB22380B8F894
:10CF1C000020EA54E918120A4A702088023080B2C4
:10CF2C002080B8F804205AB1D8F8081000296BD02A
:10CF3C00284400F08EFB2388B8F804201344238087
:10CF4C0096F82C30002B40F09880307800284ED08A
:10CF5C003388012B58D0228802F1020CBC453FF6D5
:10CF6C001BAF012805D17378023313449F42FFF4A1
:10CF7C0013AF023FBF1ABFB202A905EB0C00ADF80C
:10CF8C000870FFF785FE90BB3178BDF80830022998
:10CF9C0000F0B98072789A4202D39F4280F0B1803F
:10CFAC00012940F0B280974293B2C0F0AE80ADF848
:10CFBC0008300821BDF80830FE2B3FF6EDAE228874
:10CFCC000133AB542288013292B22280A9542288B8
:10CFDC00134423800BE0CDE900472B4606220221A7
:10CFEC0006F10800FFF7AEFE00283FF453AF05B082
:10CFFC00BDE8F08FB4F800C00CF10603BB423FF65D
:10D00C00CBAE1188052901D80720F0E76FF4486EE4
:10D01C0001EB0E039BB24FF27D3E7345F4D953885E
:10D02C00052BF1D96FF44860181880B27045EBD914
:10D03C004FF6FF70814201D09942E5D8052305F8DF
:10D04C000C30238801339BB212212380E9542388AE
:10D05C0001339BB223801188E954E818090A417006
:10D06C00238802339BB223805288EA54E918120AAF
:10D07C004A702388023323802CE7B36A002BC3D079
:10D08C004FF000084FF00C0A4FF0160BB16A5FFA24
:10D09C0088F20AFB02F201EB0209B9F80430981C81
:10D0AC00FE283FF679AE208803332B5423880133B6
:10D0BC009BB2238005F803B0238801339BB22380F5
:10D0CC008A5AEA54E918120A4A702088023080B24F
:10D0DC002080B9F804205AB1D9F80810002993D04F
:10D0EC00284400F0B6FA2388B9F8042013442380AE
:10D0FC0096F82C2008F101085FFA88F39A42C5D8FB
:10D10C0023E7092156E79F42FBD2ADF8087050E7A0
:10D11C0010DF704713B5044609496846FDF719FF3F
:10D12C00019808B902B010BDD0E9003120469847EB
:10D13C0018B16846FDF717FFF2E71120F2E700BFC0
:10D14C00B8DF010013B5044607496846FDF701FF37
:10D15C00019B0BB902B010BD2046D3E900219047CA
:10D16C006846FDF700FFF3E7D0DF01000B4991F8AB
:10D17C0016335A09EC231341DB0706D5084B9A6882
:10D18C003AB94FF480030B60704742F20200FCF78F
:10D19C003DBF1A6842F480021A60704700E100E05B
:10D1AC0094180020F7B5194F3C7864BB184E012534
:10D1BC0020463570FFF7AEFF112821D02046FFF72F
:10D1CC00C1FF144B8DF80340186801900DF103005A
:10D1DC00FDF77AF9104901A8FFF79AFF0446B0FA57
:10D1EC0080F0400938709DF80300FDF791F93CB9C7
:10D1FC000A4B34701C70FFF7B9FF2846FFF7A2FFEB
:10D20C00204603B0F0BD0824FAE700BFFD1900204A
:10D21C00FC190020B4DF010035A00100FE1900202C
:10D22C00014B1878704700BFFD19002007B508495D
:10D23C006846FDF78EFE019B13B903B05DF804FB45
:10D24C00D3E9002090476846FDF78DFEF3E700BF59
:10D25C00C4DF0100FFF7EABF60DF704769DF70478A
:10D26C0061DF704730B5134B1B7891B0FBB1124D99
:10D27C0034240DF1020103A8ADF80240FFF7F0FFD2
:10D28C0070B9294601A8FDF764FE029B002BF0D073
:10D29C0003A8D3E90021904701A8FDF764FEF4E749
:10D2AC00052804D011B0BDE83040FCF7AFBE11B07A
:10D2BC0030BD00BFFF19002014E2010030B50C4650
:10D2CC0085B0002900F082800023CDE90133404A6B
:10D2DC00039301230A608DF804008DF8063001A930
:10D2EC0006232020ADF80830FFF7B8FF60B1FDF73A
:10D2FC008BFE384B3849024638481B1ADB081B0496
:10D30C0043F00100FCF7AAFB00232268039301A958
:10D31C004020CDE90133FFF7A1FF60B1FDF774FEAA
:10D32C002C4B2F4902462D481B1ADB081B0443F0DB
:10D33C000100FCF793FB00232268039301A9012051
:10D34C00CDE90133FFF78AFF60B1FDF75DFE214B9C
:10D35C002449024621481B1ADB081B0443F0010038
:10D36C00FCF77CFB0023CDE902332268F82301A9EA
:10D37C00A1200193FFF772FF60B1FDF745FE154B3D
:10D38C001949024615481B1ADB081B0443F001001F
:10D39C00FCF764FB00252268039501A9A020CDE9C8
:10D3AC000155FFF75BFF034668B1FDF72DFE094BF6
:10D3BC000E49024609481B1ADB081B0443F0010006
:10D3CC00FCF74CFB2B46184605B030BD0E23FAE794
:10D3DC001811002004D80100DCDF0100ACD70100DB
:10D3EC0022E001006EE00100BAE001000BE1010057
:10D3FC00F8B506460768FFF72FFF3368BB420546B2
:10D40C001DD91948194C1A49241AE408240444F06B
:10D41C0002042046FCF71EFB336816493A462046A8
:10D42C00FCF725FB4FF080533268D3F80C311249CE
:10D43C009B0203F100539A1A2046FCF70FFB25B907
:10D44C000E4B01221A702846F8BD2846FDF7DCFD6C
:10D45C00064B0B49024604481B1ADB081B0443F01D
:10D46C000100FCF7FBFAEEE7ACD7010004D8010091
:10D47C005EE101008DE10100BEE10100FF19002019
:10D48C00E8E101004BDF70471FB50E4C01A8FFF718
:10D49C00F9FF70B9214602A8FDF75BFD039B002B39
:10D4AC00F4D00198D3E90021904702A8FDF75BFD69
:10D4BC00F4E7052804D004B0BDE81040FCF7A6BD85
:10D4CC0004B010BD2CE2010053EA020C61D02DE92E
:10D4DC00F04BB3FA83F51E0007BFB2FA82F502FADD
:10D4EC0005F403FA05F41646C5F120051EBF22FA11
:10D4FC0005F73C43203556EA044C4FEA144418BF58
:10D50C000134A3464FF00009C846904271EB030C5E
:10D51C0039D3094207BFB0FA80F700FA07F6B1FA1F
:10D52C0081F701FA07F6C7F120071EBF20FA07FCA6
:10D53C0046EA0C062037B6FBFBFC7F1B103F07F0BE
:10D54C001F04C4F120060CFA04F42CFA06F644BFAE
:10D55C0034460026202FA4BF2646002454EA060C8D
:10D56C0008BF012418EB040849EB0609A4FB027C54
:10D57C00C01B06FB02CC04FB03CC71EB0C019042EC
:10D58C0071EB030CC5D20B46024649464046BDE83A
:10D59C00F08BB2FBF3F200007F2805D8034B185C2C
:10D5AC00034B5B5C184070470020704744E201005D
:10D5BC00C4E20100A0F16103192B98BF2038704719
:10D5CC00A0F14103192B98BF203070477F2805D854
:10D5DC00034B185C034B5B5C184070470020704792
:10D5EC0044E20100C4E20100A0F16103192B98BFD1
:10D5FC0020387047A0F14103192B98BF2030704799
:10D60C007F299ABF017001206FF02E0070475AB12C
:10D61C000A787F2A0AD800B102600021196059608B
:10D62C00501A18BF01207047002070476FF02E0071
:10D63C007047000008B5034B5B689B681B689847F4
:10D64C0008BD00BF0812002008B50921FFF7F2FF42
:10D65C0008BD844640EA010313F0030F18D1844639
:10D66C00202A0BD32DE9F007B1E8F807A0E8F8075A
:10D67C00A2F12002202AF7D2BDE8F007042A07D332
:10D68C0051F8043B40F8043BA2F10402042AF7D2FF
:10D69C00002A05D011F8013B00F8013B013AF9D101
:10D6AC00604670478446002A2DD010F0030F04D03A
:10D6BC0000F8011B013A26D0F7E7C9B241EA012173
:10D6CC0041EA0141202A12D3A2F120022DE9F003F4
:10D6DC000B460C460D460E460F4688468946A0E87A
:10D6EC00FA03203AFBD2BDE8F00320320BD0042A17
:10D6FC0005D340F8041B043A05D0042AF9D200F8EB
:10D70C00011B013AFBD16046704700F1010110F09A
:10D71C00030F11D010F8012B002A23D010F0030FA7
:10D72C000AD010F8012B002A1CD010F0030F03D0E4
:10D73C0010F8012B002A15D02DE970004FF00132A2
:10D74C004FF0803350F8044BA4EB020525EA040596
:10D75C001D4000D1F6E7A0F1040070BC10F8012BBD
:0CD76C00002AFBD1A0EB01007047000078
:08D77800CDB401000000000027
:08D7800069B501000000000082
:10D7880071D201000000000095D4010000000000E3
:10D798006012002028130020301300206812002097
:04D7A8001800000065
:10D7AC001ADF01000000000020DF01000000000073
:10D7BC0027DF01000000000036DF01000000000040
:10D7CC002BDF01000000000030DF01000000000032
:10D7DC0082D801000000030358D9010000000000AA
:10D7EC0081D901000000000014DF010000000000DE
:10D7FC00ACDF01000000030305E20100000003039D
:10D80C0020E2010000000303E6D901000000000043
:08D81C00FCD90100000000002E
:10D8240054D801000000000060D801002C11002031
:10D83400FFFFFFFFFFFFFFFFFFFFFFFFFFFFFFFFF4
:10D8440000000000000000000000D60106010000F6
:10D854000D95010071950100BD940100756172740C
:10D864005F6C6F675F6261636B656E6400426163E6
:10D874006B656E647320666C7573686564006170B3
:10D8840070000000501700207F000000D017002017
:10D894001B5B313B33316D0025734C6F6773206420
:10D8A400726F70706564202825642925730D0A0041
:10D8B4001B5B306D002573003C25733E2025733AB5
:10D8C4002000202530327800202020007C002563B1
:10D8D400001B5B313B33306D001B5B313B33326DDE
:10D8E400001B5B313B33336D001B5B313B33346DC9
:10D8F400001B5B313B33356D001B5B313B33366DB5
:10D90400001B5B313B33376D007761726E696E6764
:10D9140000696E666F00646562756700B4D80100C3
:10D92400D5D8010094D80100DDD80100E5D8010064
:10D93400EDD80100F5D80100FDD8010005D901009A
:10D94400000000006ED901000DD9010015D90100B5
:10D954001AD901006170705F627574746F6E000093
:10D9640038110020466174616C206572726F720018
:10D9740053797374656D207265736574006170709A
:10D984005F74696D6572000001000600000000000C
:10D994000C180020A1A0010052544320696E737436
:10D9A400616E636520616C726561647920696E697A
:10D9B4007469616C697A65642E005254433A206933
:10D9C4006E697469616C697A65642E000338FDD8E8
:10D9D4007047303132333435363738394142434475
:10D9E40045467077725F6D676D74000080D70100E3
:10D9F40080D7010004000000736F72746C69737443
:10DA0400004E52465F53554343455353004E5246CE
:10DA14005F4552524F525F5356435F48414E444C08
:10DA240045525F4D495353494E47004E52465F4558
:10DA340052524F525F534F46544445564943455FF3
:10DA44004E4F545F454E41424C4544004E52465F52
:10DA54004552524F525F494E5445524E414C004E2E
:10DA640052465F4552524F525F4E4F5F4D454D00F7
:10DA74004E52465F4552524F525F4E4F545F464F8F
:10DA8400554E44004E52465F4552524F525F4E4FE0
:10DA9400545F535550504F52544544004E52465FC4
:10DAA4004552524F525F494E56414C49445F504192
:10DAB40052414D004E52465F4552524F525F494EBD
:10DAC40056414C49445F5354415445004E52465FBD
:10DAD4004552524F525F494E56414C49445F4C4562
:10DAE4004E475448004E52465F4552524F525F498A
:10DAF4004E56414C49445F464C414753004E5246B2
:10DB04005F4552524F525F494E56414C49445F441F
:10DB1400415441004E52465F4552524F525F444178
:10DB240054415F53495A45004E52465F4552524F45
:10DB3400525F54494D454F5554004E52465F45522D
:10DB4400524F525F4E554C4C004E52465F45525216
:10DB54004F525F464F5242494444454E004E52464E
:10DB64005F4552524F525F494E56414C49445F41C2
:10DB7400444452004E52465F4552524F525F425502
:10DB84005359004E52465F4552524F525F434F4ED7
:10DB94004E5F434F554E54004E52465F4552524FCE
:10DBA400525F5245534F5552434553004E52465FC0
:10DBB4004552524F525F4D4F44554C455F4E4F5462
:10DBC4005F494E495449414C495A4544004E5246D6
:10DBD4005F4552524F525F4D555445585F494E4927
:10DBE400545F4641494C4544004E52465F455252AB
:10DBF4004F525F4D555445585F4C4F434B5F464120
:10DC0400494C4544004E52465F4552524F525F4D77
:10DC1400555445585F554E4C4F434B5F4641494C14
:10DC24004544004E52465F4552524F525F4D555443
:10DC340045585F434F4E445F494E49545F464149FE
:10DC44004C4544004E52465F4552524F525F4D4F31
:10DC540044554C455F414C52454144595F494E49F6
:10DC64005449414C495A4544004E52465F4552522C
:10DC74004F525F53544F524147455F46554C4C00F9
:10DC84004E52465F4552524F525F4150495F4E4F8C
:10DC9400545F494D504C454D454E544544004E52F9
:10DCA400465F4552524F525F464541545552455F77
:10DCB4004E4F545F454E41424C4544004E52465FE0
:10DCC4004552524F525F494F5F50454E44494E476B
:10DCD400004E52465F4552524F525F4452565F5473
:10DCE40057495F4552525F4F56455252554E004E6A
:10DCF40052465F4552524F525F4452565F54574901
:10DD04005F4552525F414E41434B004E52465F4580
:10DD140052524F525F4452565F5457495F455252D4
:10DD24005F444E41434B004E52465F4552524F5260
:10DD34005F424C455F495053505F52585F504B54BB
:10DD44005F5452554E4341544544004E52465F453C
:10DD540052524F525F424C455F495053505F4348C3
:10DD6400414E4E454C5F414C52454144595F4558E4
:10DD740049535453004E52465F4552524F525F42EC
:10DD84004C455F495053505F4C494E4B5F44495397
:10DD9400434F4E4E4543544544004E52465F455210
:10DDA400524F525F424C455F495053505F50454576
:10DDB400525F52454A454354454400556E6B6E6F5D
:10DDC400776E206572726F7220636F646500000065
:10DDD4000000000005DA01000100000011DA010072
:10DDE400020000002FDA01000300000050DA0100F5
:10DDF4000400000063DA01000500000074DA010089
:10DE04000600000088DA010007000000A0DA010023
:10DE140008000000B8DA010009000000D0DA0100AF
:10DE24000A000000E9DA01000B00000001DB010038
:10DE34000C00000018DB01000D0000002CDB0100C9
:10DE44000E0000003EDB01000F0000004DDB01006E
:10DE54001000000061DB01001100000078DB01000C
:10DE64001200000087DB0100130000009CDB0100AE
:10DE740080000000B0DB010081000000D1DB010064
:10DE840082000000EDDB01008300000009DC0100DA
:10DE94008400000027DC01008500000048DC01004C
:10DEA400860000006DDC01009000000084DC0100AD
:10DEB40091000000A2DC010092000000C0DC01001F
:10DEC40000820000D5DC010001820000F3DC0100C7
:10DED400028200000FDD0100008400002BDD010040
:10DEE400018400004FDD01000284000079DD01009F
:10DEF400038400009EDD0100000001010100000018
:10DF040001010000000001010000000011121314BF
:10DF1400636C6F636B00434C4F434B004750494F56
:10DF240054450050525300554152540055415254E7
:10DF3400450050574D0000000D00030071C701005B
:10DF44000E00030071C701000F00030071C7010038
:10DF54001000030071C7010068110020881100201F
:10DF6400A8110020426561636F6E206578616D7051
:10DF74006C6520737461727465642E0084FFFFFF06
:10DF84000707000010270300F81100200400000018
:10DF9400290100000000000000120020040000001D
:10DFA40076000000000000006E72665F7364680013
:10DFB4000100000780D7010080D70100080000009D
:10DFC40088D7010098D701000800000080D701001D
:10DFD40088D701000800000073645F626C655F63AA
:10DFE40066675F73657428292072657475726E653F
:10DFF40064202573207768656E20617474656D7084
:10E0040074696E6720746F2073657420424C455F99
:10E01400434F4E4E5F4346475F4741502E00736463
:10E024005F626C655F6366675F736574282920723D
:10E03400657475726E6564202573207768656E203B
:10E04400617474656D7074696E6720746F20736594
:10E054007420424C455F4741505F4346475F524FEF
:10E064004C455F434F554E542E0073645F626C659C
:10E074005F6366675F7365742829207265747572BF
:10E084006E6564202573207768656E2061747465FD
:10E094006D7074696E6720746F2073657420424CD0
:10E0A400455F434F4D4D4F4E5F4346475F56535F69
:10E0B400555549442E0073645F626C655F636667FF
:10E0C4005F73657428292072657475726E656420A7
:10E0D4002573207768656E20617474656D7074694A
:10E0E4006E6720746F2073657420424C455F47410E
:10E0F4005454535F4346475F415454525F54414222
:10E104005F53495A452E0073645F626C655F6366B2
:10E11400675F73657428292072657475726E65640F
:10E12400202573207768656E20617474656D707442
:10E13400696E6720746F2073657420424C455F4795
:10E14400415454535F4346475F53455256494345F0
:10E154005F4348414E4745442E00496E73756666D9
:10E16400696369656E742052414D20616C6C6F6304
:10E174006174656420666F722074686520536F66ED
:10E18400744465766963652E004368616E67652033
:10E194007468652052414D207374617274206C6FF1
:10E1A400636174696F6E2066726F6D2030782578B4
:10E1B40020746F20307825782E004D6178696D7554
:10E1C4006D2052414D2073697A6520666F7220611B
:10E1D40070706C69636174696F6E20697320307844
:10E1E40025782E0073645F626C655F656E61626C96
:10E1F4006528292072657475726E65642025732EF6
:10E20400006E72665F7364685F626C650000000094
:10E2140080D7010080D70100080000006E72665F9D
:10E224007364685F736F630078D7010080D701005F
:10E234000800000043000000504F534958000000FC
:10E244002020202020202020206828282828202062
:10E2540020202020202020202020202020202020BA
:10E264004810101010101010101010101010101072
:10E274008484848484848484848410101010101012
:10E28400108181818181810101010101010101016B
:10E29400010101010101010101010110101010101F
:10E2A400108282828282820202020202020202023C
:10E2B40002020202020202020202021010101020E4
:10E2C40000070320041702010857104080000000D3
:10E2D40038E201003CE3010050E4010053756E0094
:10E2E4004D6F6E0054756500576564005468750081
:10E2F4004672690053617400000000004A616E00B8
:10E30400466562004D617200417072004D61790092
:10E314004A756E004A756C0041756700536570005C
:10E324004F6374004E6F7600446563000000000084
:10E33400414D00504D00000074E4010070E4010000
:10E3440070E4010070E4010070E4010070E4010075
:10E3540070E4010070E4010070E4010070E4010065
:10E36400FFFFFFFFFFFFFFFFFFFFFFFFFFFF0000B7
:10E37400B0E30100E0E20100ECE3010000E301008E
:10E3840034E3010094E3010044E40100A0E301004C
:10E39400256D2F25642F2579000000002561202597
:10E3A40062202565202554202559000053756E648C
:10E3B4006179004D6F6E64617900547565736461B1
:10E3C40079005765646E6573646179005468757289
:10E3D400736461790046726964617900536174758C
:10E3E40072646179000000004A616E75617279009F
:10E3F4004665627275617279004D617263680041AD
:10E404007072696C004D6179004A756E65004A75D9
:10E414006C79004175677573740053657074656D2C
:10E42400626572004F63746F626572004E6F766549
:10E434006D62657200446563656D6265720000001B
:10E4440025483A254D3A255300000000A5D5010082
:10E45400C1D50100CDD50100D9D50100F5D5010004
:10E4640001D601000DD601001BD6010000000000FA
:04E474002E00000076
:10E4780000000000002000400000000000200040D4
:10E488000000000000000000FF0000000000000085
:10E498000000000000000000FFFFFFFFFFFFFFFF7C
:10E4A8000000000000000000000000000000000064
:10E4B80000100140110004000090D003000000008B
:10E4C8000000000000000000FFFFFFFFFFFFFFFF4C
:10E4D8000000000000000000000000000000000034
:10E4E8000000000000000000FFFFFFFFFFFFFFFF2C
:10E4F8000000000000000000000000000000000014
:10E508000000000000000000FFFFFFFFFFFFFFFF0B
:10E5180000000000000000000000000000000000F3
:10E52800DC1900201F0000000000000000000000AF
:10E53800FF02150112233445566778899AABBCCD82
:10E54800DEEFF001020304C300C001400000000038
:10E558001500000000002A00A40100000000A4012A
:10E56800D4E20100D4E20100D4E20100D4E20100C7
:04E57800D4E20100E8
:04000003100093A5B1
:00000001FF
