:020000022000DC
:1060000000000120756302005D6302005F6302000F
:106010006163020063630200656302000000000028
:1060200000000000000000000000000067630200A4
:1060300069630200000000006B6302006D630200F0
:10604000E58602006F630200F58A02006F630200BA
:106050006F6302006F630200A98902006F63020090
:106060006F6302006F6302006F6302006F630200E0
:106070006F6302006F6302006F6302006F630200D0
:106080006F6302009D7702006F6302006F6302007E
:106090006F6302006F6302004D9F02006F63020096
:1060A0006F6302006F6302006F6302006F630200A0
:1060B0006F6302006F630200000000000000000038
:1060C0006F6302006F6302006F6302006F63020080
:1060D0006F6302006F6302006F6302000000000044
:1060E00000000000000000000000000000000000B0
:1060F00000000000000000000000000000000000A0
:10610000000000000000000000000000000000008F
:10611000000000000000000000000000000000007F
:10612000000000000000000000000000000000006F
:10613000000000000000000000000000000000005F
:10614000000000000000000000000000000000004F
:10615000000000000000000000000000000000003F
:10616000000000000000000000000000000000002F
:10617000000000000000000000000000000000001F
:10618000000000000000000000000000000000000F
:1061900000000000000000000000000000000000FF
:1061A00000000000000000000000000000000000EF
:1061B00000000000000000000000000000000000DF
:1061C00000000000000000000000000000000000CF
:1061D00000000000000000000000000000000000BF
:1061E00000000000000000000000000000000000AF
:1061F000000000000000000000000000000000009F
:10620000354936480A1A02D0072291438D4634494F
:1062100034480A1A06D00722914381F309880222E2
:1062200082F3148830483149314A00F044F831484B
:106230003149324A00F03FF831483249324A00F0E1
:106240003AF832483249334A00F035F83248334997
:10625000334A00F030F833483349344A00F02BF821
:1062600033483449344A00F026F83448344900228F
:1062700000F02CF833483449002200F027F8334866
:106280003349091A082902DB002202604160314AC1
:1062900090471F481F49884205D00268043003B464
:1062A000904703BCF7E700208646EC46002000211B
:1062B000294A9047FEE7884207D0521A05D0037852
:1062C00001300B700131013AF9D17047884202D098
:1062D00002700130FAE770470000012000E0002062
:1062E000000001200000012068B10200C818002051
:1062F000B4190020D0630200D063020094A402000D
:1063000068B10200C8180020C818002048A5020083
:1063100048A5020048A5020048A5020048A50200C1
:1063200048A5020048A5020048A5020068B1020085
:1063300054B20200B4190020B4190020B41900208E
:106340008F2100209021002090210020902100200A
:10635000904100209D6302005D980200FEE7FEE789
:10636000FEE7FEE7FEE7FEE7FEE7FEE7FEE7FEE705
:1063700000F002B8FFF7FCBF0F484FF00701884359
:1063800085460E4880470E48016841F4700101605F
:10639000BFF34F8FBFF36F8FFFF732BF09480A4932
:1063A0000A4A884207D0521A05D0037801300B7090
:1063B0000131013AF9D1704700000120A5800200A7
:1063C00088ED00E048A50200C8180020C818002089
:1063D000F0B595B01D46164608460C4601F064FD22
:1063E0001A9B0D93CDE9086500252B46082205A9C7
:1063F00020460A958DF82C500C9501F071FD079BF5
:106400000293069B03939DF814308DF8115003F00E
:106410000302012A1DD1BDF81420059DC3F3C20358
:10642000C2F383168DF81030B20008230EA920465F
:1064300001F056FDC5F3952508AB0093324602AB3B
:106440000EA9284600F0AEFB204601F031FD15B044
:10645000F0BD022AF8D1BDF81650C3F3C203C5F34C
:1064600089158DF810300827082D2E4628BF0826DC
:106470003B4632460EA9204601F032FDAD1B08AB6B
:1064800002AA31460EA8374400F0F0FB002DEBD1F4
:10649000DAE70000014B01221A707047F51900205D
:1064A0007047000070B50E4D06460FCD88B06C46A3
:1064B0000FC495E80F00002E84E80F00094A0A482F
:1064C0004FF0060308BF00226946009302F092F8DD
:1064D00008B100F099FD054B1E7008B070BD00BFFB
:1064E00048A5020095640200C8180020B4190020D5
:1064F00007B5044B0093044A4023FFF769FF03B03C
:106500005DF804FB0D650200B519002038B50D4893
:106510000D4C0E4D002323700378EB5CD2B263B1B7
:10652000043002F075FF08B100F06EFD084B1A78D8
:1065300012B12378002BFBD038BD0C3002F016FDD1
:10654000F1E700BFC8180020F519002070200020D6
:10655000B419002008B50848084A0378D35C3BB159
:10656000043002F0B9FEBDE808400020FFF79ABFF2
:106570000C3002F085FCF6E7C818002070200020DF
:106580000120FFF78FBF000008B5FFF7F9FF0448AF
:10659000042100F071FA034B01225A7108BD00BFBB
:1065A00038A50200DC180020037813F0040216D08E
:1065B00003F00303012B03D0022B09D00120704705
:1065C0000A6800880232C0F3831002440A60F5E7CB
:1065D0000B684288023303EB92130B60EEE7104620
:1065E000704700002DE9F04FDFF81CA187B00F467F
:1065F00000230446861C0DF1070015468DF8073070
:1066000000F05EFFDAF804203A60DAF8083003F5AB
:1066100080739B1A0AF21C470AF583690AF2144830
:10662000B3421AD30020002D69D004F00F039B0160
:1066300043F0050363F30F00DAF80430DAB20332F3
:1066400033444AF822009DF80700CAF8043000F0ED
:106650005BFF012007B0BDE8F08F0121384601F053
:1066600052F9484601F067F9404601F064F9DAF85A
:1066700008000290C0B203300AEB800002A9FFF7C5
:1066800093FF029B30BBDAB20AEB8202D16803911E
:106690009A1C0133DBB20AEB83030292D3F80CB0ED
:1066A00001F00303012B22D0022B15D08346404674
:1066B00001F044F910B1029BCAF808305946384637
:1066C00001F021F9DAF80830DAF8042003F58073D4
:1066D0009B1AA5E7D8B2CEE7BDF80E30C3F38913F5
:1066E00003334FEA1B4B02EB93030293DFE7BDF842
:1066F0000C30C3F383134FEA1B4B1344F5E7A40597
:1067000044F0060098E700BFC81A0020064B07486F
:1067100010B500221A7001F080FB044610B904483D
:1067200001F028FC204610BDC81A0020B4A40200C5
:106730009CA5020030B50A4C71B10A4A0A49121BE5
:10674000D20800239A4201D1002030BD31F82350F5
:10675000854202D00133F5E7034654F83300F4E7ED
:10676000C8A4020038A50200C8180020094B01394E
:1067700003EBC000032909D8DFE801F00A02040690
:1067800004207047007970474079704700207047B7
:1067900002207047C8A4020070470000034BD3E9F1
:1067A0000130C31A58425841704700BFC81A002030
:1067B0002DE9F04186B0FFF7F1FF0546002840F0D3
:1067C000ED80774CC4F81804BFF34F8FA368029391
:1067D000DBB2033304EB830002A9FFF7E5FE029B63
:1067E00018B1D4F81824002A5AD0DAB2991C01330F
:1067F00004EB8202DBB204EB8303D268DB68049310
:1068000002F00303022B0392029154D1BDF80E3023
:106810006448C3F38917502F3E4628BF502606F11F
:10682000080166F38F13C1F30901ADF80E3001F0D2
:106830000CFB0546002800F09C8001F035FB00238E
:10684000082203A9284601F041FB0299CB43DBB2A1
:106850000133C9B20331B6EB830F4FEA830204EB75
:10686000810125D95FFA82F80823A6EB080628469D
:1068700001F02CFBF6B208F108034B4903F0FC03CE
:106880003246284601F022FB029B033703EB9707B1
:106890000297D4F81834002B43D1D4F8106453E095
:1068A00062689A4294D8A260284606B0BDE8F0819A
:1068B00008233246E5E7012B5BD1BDF80C3039489F
:1068C000C3F38311062928BF062161F3891302311E
:1068D00001F00F018900ADF80C3001F0B6FA054661
:1068E000002846D001F0E0FA0023082203A9284638
:1068F00001F0ECFA0026BDF80C20C2F38312B300BD
:10690000964203F10803C4D202994A1CC9B203316A
:10691000029204EB81010422284601F0D7FA0136E5
:10692000E9E7284601F0C4FAFFF738FF80F00100DC
:10693000C5B2B9E7F3685B7923B1336829461B68B0
:1069400030469847F3681E68002EF3D1284601F0C0
:10695000AFFA0DF107008DF8076000F0B1FDD4F833
:1069600018340BB9029BA3609DF8070000F0CCFD22
:10697000DAE7D4F8104454B90C4B0D480D49C01A4D
:10698000C008000440F0020000F05EF8CCE7236885
:1069900020469B689847E3681C68ECE7002583E77E
:1069A000C81A0020B4A40200D41A0020C8A402000F
:1069B000F0A4020085A502002DE9F34704460E4627
:1069C000924601A9012218469946FFF70BFE1C4F7B
:1069D00010B3019D4FF00008AA1CC84508EB020146
:1069E00025D11848002100F06BFF80F3100000044F
:1069F00040EA1440E4006B1C04F03804DBB2EDB252
:106A000044F0010407EB8303033544EA881444EAA5
:106A10008624D86047F825403B781BB1FFF7C8FEB5
:106A20000028FBD1FFF7B8FE02B0BDE8F087C9B27D
:106A300007EB81015AF82830CB6008F10108CCE758
:106A4000C81A0020E41E002000231A46FFF7B4BF36
:106A500007B50123019201AAFFF7AEFF03B05DF86D
:106A600004FB07B5CDE9002302236A46FFF7A4FF24
:106A700003B05DF804FB000030B50F4CD4F81024CF
:106A800003460020114631B9D96808714AB9C4F8E3
:106A900010340A6030BDC9680D79854206D0096896
:106AA000F1E7D26814680C601360F3E701300A283C
:106AB000E8D14FF0FF30EDE7C81A002038B5084B99
:106AC0000125D3F810441D7004B938BDE3685D7129
:106AD000236820465B689847E3681C68F4E700BFBA
:106AE000C81A002030B5C38885B004460D4633B1BE
:106AF000144A00921449154A284600F082FF217A70
:106B000005291DD0637A4BB1A088FFF72FFE104BEB
:106B1000104953F82020284600F073FF227A0E4BCC
:106B2000A08853F8222003920021FFF703FE039A66
:106B30000A490346284605B0BDE8304000F061BF71
:106B400005B030BDC8A50200B0A50200A8A502008E
:106B500034A60200CDA5020058A60200D0A502006E
:106B600007B503460846197A052911D05B7A2BB17F
:106B7000094A0A49019000F044FF01980849019030
:106B800000F03FFF019803B05DF804EB00F02EBF6A
:106B9000002AF8D0F2E700BFC8A50200CDA5020088
:106BA000C5A502002DE9F04385B01F460C9D0023CA
:106BB00095F80C902B7306460C46904629463846AD
:106BC000FFF790FFB8F1060F09D8DFE808F00412CC
:106BD000181F283340003146284600F012FF0022DB
:106BE00029463846FFF7BCFF85F80C9005B0BDE894
:106BF000F08322683146284600F003FFEFE7D4E92E
:106C000000233146284600F0FCFEE8E7A368009325
:106C10003146D4E90023284600F0F3FEDFE7E368BD
:106C20000193A36800933146D4E90023284600F07D
:106C3000E8FED4E723690293E3680193A368009315
:106C40003146D4E90023284600F0DBFEC7E763693C
:106C5000039323690293E3680193A3680093314689
:106C6000D4E90023284600F0CCFEB8E708292DE936
:106C7000F74F80460E4617461C463CD8002593F831
:106C80000C901D7319461046FFF72CFFDFF888A003
:106C9000DFF888B0AE4231D918F8052059462046B1
:106CA00000F0AFFE0135082DF4D11949194DDFF878
:106CB00070A0204600F0A5FE4FF0000B5E4522D9E3
:106CC00018F80B207E2A05D81046019203F050FBDD
:106CD000019A00B92E225146204600F092FE0BF197
:106CE000010BBBF1080FE9D1012221463846FFF71D
:106CF00037FF84F80C9003B0BDE8F08F5146204672
:106D000000F07FFECEE72946204600F07AFEE6E757
:106D1000E4A50200E2A50200E0A50200DAA5020057
:106D2000E6A50200C30710B507D4F023054A4008C2
:106D3000145C23401943115410BD0901C9B20F233B
:106D4000F4E700BF901F002030B5094B1C78094BB9
:106D5000196800239C4202DC0022104630BD11F865
:106D60003350854201EBC302F7D00133F2E700BF95
:106D7000801F0020A01F002013B504460191FFF7DB
:106D8000E3FF38B143682BB10199204602B0BDE85A
:106D90001040184702B010BD034B04481968002288
:106DA000490800F055BA00BF841F0020E8180020F1
:106DB00010B5C0B2FFF7C8FF0446007801F0EAFD45
:106DC00063785A1E53425341834208D1044BD3E99E
:106DD0000023134303D1BDE81040FFF7DDBF10BD12
:106DE000881F002037B54308374AD35CC2074CBF21
:106DF0001B0903F00F0304460D46042B25D8DFE8DA
:106E000003F003262F3C4000F9B10121FFF78AFF70
:106E100000230DF107008DF8073000F051FB012031
:106E2000A4F12003C4F12001284A20FA01F100FA5C
:106E300003F30B43A040D2E9004120430B43C2E9D6
:106E400000039DF8070000F05FFB03B030BD002990
:106E500018BF0221204603B0BDE83040FFF762BFF3
:106E600049B10321FFF75EFF0121204603B0BDE8D1
:106E70003040FFF781BF0121ECE70029E5D1042173
:106E8000E8E709B10321E5E7FFF74CFF2946204673
:106E9000FFF772FF0DF107008DF8075000F010FBAF
:106EA0000120A4F12003C4F12001084A20FA01F1D5
:106EB00000FA03F30B43A040D2E9004124EA0000AA
:106EC00021EA0303BBE700BF901F0020881F0020BA
:106ED0002DE9F041124E134F00243378A34208DC11
:106EE000114BD3E90023134318D0BDE8F041FFF75D
:106EF00053BF3D6805EBC40815F8340001F04AFDA6
:106F000098F801305A1E53425341181A41424141E8
:106F100015F83400FFF766FF0134DEE7BDE8F081C5
:106F2000801F0020A01F0020881F0020092AF7B51D
:106F300005460C4616463ED901F064FCE8B11F4BED
:106F40001F481D601F4B204F1C70204B002110223A
:106F50001E6003F03BFA1E4B00200021C3E9000134
:106F6000013CE4B20326FF2C0DD11A4A1A48002135
:106F700003B0BDE8F04000F059B901F005FC00286D
:106F8000DDD003B0F0BD9DF8063015F834008DF863
:106F9000046005EBC40223F007038DF8063001A955
:106FA00093788DF805303A4601F036FC013CE4B2A6
:106FB0000028D8D0E5E70720E3E700BFA01F0020A6
:106FC000901F0020801F0020B16D0200841F002050
:106FD000881F0020D16E020078A6020070B5084D0F
:106FE000084E00242B789C4201D3002070BD3368EA
:106FF000012113F8340001F087FC0134F2E700BFEF
:10700000801F0020A01F00201FB50021039001AAAF
:1070100044F20100CDE9011100F004F805B05DF87B
:1070200004FB000038B572B6FFF748FDFFF7C0FB60
:107030000028FBD1104B114C114D1249E41AE40801
:10704000240444F00100FFF7FFFCD5F8F030DB0723
:1070500000D500BE0C4944F00200FFF7F5FCBFF379
:107060004F8FEA68094B02F4E0621343EB60BFF311
:107070004F8F00BFFDE700BFC8A40200F0A40200CC
:1070800000ED00E07CA6020088A602000400FA05DC
:1070900010B5D0E90243D1E90202A04272EB03032A
:1070A0002CBF0120002010BD08B50A4800F05FFB8E
:1070B000094AD2E90031C018084BD3E9002341F155
:1070C0000001904271EB030303D210F1807041F193
:1070D000000108BD08190020A81F00202020002062
:1070E00037B505460C460A4801A900F074FB60B1AB
:1070F0000570446001A9064800F097FB18B10548E7
:1071000000F03AFB002003B030BD0420FBE700BFD5
:107110000C20002008190020294B73B51E78044666
:107120001EB90026304602B070BD0028F9D0FFF726
:10713000BBFFD4E902239042994139D300230DF1DA
:1071400007008DF8073000F0BBF923692BB94FF029
:10715000FF324FF0FF33C4E902239DF8070000F02F
:10716000D3F9D4E90530984700250DF107008DF8D3
:10717000075000F0A5F92369C3B1D4E90212B2F1B6
:10718000FF3F08BFB1F1FF3F05D05B1842F100029D
:10719000C4E9023235469DF8070000F0B5F9002D2C
:1071A000BFD00848214600F004FFBBE71D46F2E7C8
:1071B000B3F1FF3F08BFB2F1FF3FB2D0F1E700BF2C
:1071C000B01F0020A4A6020013B5114B1149186886
:1071D000019008231048582200F0EAFA044698B9B2
:1071E0000E4A0F4801A900F0B3F9044660B90C48F3
:1071F000012100F09FFA01230A4A0948194600F0CC
:1072000001FA094B01221A70204602B010BD00BFDE
:10721000A0A60200B41F00200C2000200973020069
:1072200008190020FFFF7F00B01F002030B56AB1B1
:1072300003684FF0FF344FF0FF355A614A1E514248
:10724000C3E9024551411961002030BD0720FCE728
:10725000F7B5044600250DF1070017460E468DF8D8
:10726000075000F02DF9D4E90223B3F1FF3F08BF26
:10727000B2F1FF3F07D1FFF717FF301841F10001CE
:10728000C4E9020101259DF8070000F03DF955B160
:107290002369A76103B126612146002003B0BDE840
:1072A000F040FFF71DBF284603B0F0BD37B50546D7
:1072B00000240DF107008DF8074000F001F9D5E931
:1072C0000223B3F1FF3F08BFB2F1FF3F1FBF4FF0F2
:1072D000FF324FF0FF33C5E9022301249DF8070078
:1072E00000F012F934B12946012003B0BDE8304066
:1072F000FFF7F6BE204603B030BD0000014800F0A5
:1073000036BA00BF081900202DE9F743064600F001
:1073100019FA40B1624AD2E9003113F1807341F1A8
:107320000001C2E900310021304600F01AFA38B1FC
:107330005C4C236823B12068FFF7EEFE0023236036
:107340000121304600F00DFA20B1FFF7ADFE564B9B
:10735000C3E900015548534C01A900F076FA4FF0FB
:10736000FF384FF0FF39A0B9DFF844814D4D40465A
:1073700000F035FE002800F08580D0E90223B3F14B
:10738000FF3F08BFB2F1FF3F32D1404600F021FE7F
:10739000EDE70378012B20D0022B08D1444D28467D
:1073A00000F017FE002877D0C0E90289F7E75BB943
:1073B0004168D1E90223B3F1FF3F08BFB2F1FF3FBB
:1073C00002D03B4800F0F5FD01A9384800F068FA0A
:1073D00001A9364800F039FAC5E7416823689942A7
:1073E00002D100232360EFE7314800F0FBFDEBE71B
:1073F000296891B12968D1E9020182428B412FD2DB
:107400002B68D3E90223B3F1FF3F08BFB2F1FF3F7E
:1074100003D02968404600F0CCFD404600F0D9FD7D
:10742000D0E902490746FFF73FFE201A69EB010940
:10743000012879F1000318DBB0F5350F13D3FFF7FE
:107440005DFF1C4A02441C484FF49603002100F0E3
:10745000F9F890B92B6813B9304600F0CBF82F60DB
:1074600003B0BDE8F0832246EDE71348002100F0A9
:107470006EF93846FFF750FE01E00D28F9D00023E1
:107480002B6074E7074B1B68002BE9D1304603B033
:10749000BDE8F04300F0B2B8084B01221A7093E740
:1074A000A81F002028200020202000200C200020E1
:1074B000A4A60200FFFFB40008190020B01F00209E
:1074C00070B5EFF3108672B60C4A946801239CB92C
:1074D00093600B4B0B4DD3F8801029401160C3F81B
:1074E0008050D3F8841051604FF0FF32C3F88420ED
:1074F000047006B962B670BD0370FAE72C20002054
:1075000000E100E0FC06FFBD084B9A6810B55AB1D7
:1075100050B9EFF3108172B6054A1C6814605C68BC
:107520005460986001B962B610BD00BF2C200020E5
:1075300000E100E0435882B03BB100234350435880
:107540000193019B012002B070471846FBE7000041
:10755000F8B5204B4479204E43F824201F4A204B95
:1075600006EBC4049B1A2279DB081B0432B143F0FA
:1075700002001C49FFF768FA0820F8BD02680C8871
:10758000C2F8084590F904508A7804795201002D18
:10759000D2B219DB14494F1987F8002301226D0973
:1075A00004F01F0402FA04F441F82540427906EB86
:1075B000C201012446F832000C7143F003000B496C
:1075C000FFF742FA0020D8E7094904F00F040A55F2
:1075D000ECE700BF4020002038200020C8A40200B3
:1075E00000A50200B0A6020000E100E0D2A6020061
:1075F00014ED00E0036801221A607047036801225D
:107600005A60704773B501F15005AD000068ADB226
:107610004FF480348C400026C0F80843C0F848433B
:10762000465101F5A8714559019522F07F42019D0F
:1076300040F82120C0F844430BB1C0F8044302B025
:1076400070BD00002DE9F74F0D4622F07F4402681F
:107650004FF4803705F150068F408046B60002EBAC
:107660008500C2F84873B6B2C2F80873D2F80415A0
:1076700099464FF0000BD0F84035C0F8401542F85D
:1076800006B05B1A9259009223F07F43012B009AB7
:107690004FEA850A0CD1264B4FF4806043F001037A
:1076A0009847D8F8003043F806B09B590193019BE6
:1076B000D8F80010D1F80465C1F84473A31B23F077
:1076C0007F43012B1CD11A4B05F5A875013443F0FB
:1076D000010341F825404FF480609847D8F8003006
:1076E000D3F804359E4209D1D8F800300020C3F801
:1076F0004473C3F8047303B0BDE8F08F0D20FAE7BC
:107700008A44C9F1FF13CAF84045D1F80405221A8A
:10771000013A22F07F4203F57F439342EED3002AE1
:10772000E2D10134CAF84045D1F804359842DAE78D
:10773000F0A6020003680222C3F8442309B1C3F88B
:107740000423704700684FF48271FFF7F3BE4FF4D3
:10775000803303FA01F10368C3F84813C3F8081330
:10776000704750318900006889B2FFF7E3BE0368B3
:10777000D3F804057047000090F90430002B09DBB2
:107780005A09012103F01F0301FA03F340320249B1
:1077900041F82230704700BF00E100E0024B034A8D
:1077A0001B681068184700BF4020002038200020C8
:1077B00010B561B1B2FBF3F403FB1424A4B244B9D5
:1077C000C0E9001484608281C381204610BD0E2070
:1077D000FCE70920FAE737B550E8013F9DB2C489BC
:1077E00025448489A54228BF2D1B0489A54202BFD8
:1077F000BFF32F8F002207E0C5EA030540E80154DC
:10780000002CE9D14FF001028DF803200193019A79
:107810000A609DF8031001F0FF0321B1006810FA1F
:1078200082F003B030BD1846FBE70A884B889A42C5
:1078300009D150E8012FC2EA024240E80123002B9F
:10784000F7D1012070470020704737B550E8023F5C
:107850001FFAA3F5C488A54202BFBFF32F8F0022F1
:107860000DE0C48925448489A54228BF2D1BC3EAA5
:10787000054540E80254002CE8D14FF001028DF894
:1078800003200193019A0A609DF8031001F0FF03A1
:1078900021B1006800EB124003B030BD1846FBE791
:1078A0000A884B889A4209D150E8022FC2EA224244
:1078B00040E80223002BF7D10120704700207047D9
:1078C00010B5034653E8000F0A4643E8002494F03D
:1078D000000FF7D110BD10B5034653E8002F42EA60
:1078E000010043E8000494F0000FF6D110BD10B57C
:1078F000034653E8000F00EA010243E8002494F035
:10790000000FF6D110BD10B5034653E8002F02EB6F
:10791000010043E8000494F0000FF6D110BD10B54B
:10792000034653E8002FA2EB010043E8000494F063
:10793000000FF6D110BD0121FFF7CDBF0021FFF7E9
:10794000D6BF10B590B1D0E9012301689B1ADBB214
:107950000A60013BDBB2FF2B026802D100201071EC
:1079600010BD11684C1C14600B70F2E70E20F7E795
:1079700037B5054600240DF107008DF80740FFF7E5
:107980009FFD2A686B68116899420ED9481E1060E5
:1079900011F8013CEC68298A01FB0344AB681179BA
:1079A0001B1ADBB2994238BF13719DF80700FFF72D
:1079B000ABFD204603B030BD37B5054600230DF1C1
:1079C00007000C468DF80730FFF77AFD2A68136828
:1079D000591C1160E968641A298AB4FBF1F41C701F
:1079E0009DF80700FFF790FD03B030BD826810B529
:1079F00004462AB143690168006998470023A360DF
:107A000010BD0EB403B5039921B104AB01AA0193D3
:107A100000F076F802B05DF804EB03B070470A2975
:107A200038B504460D4602D10D21FFF7F8FFA368D3
:107A30002268591CA160D554D4E901329A4204D37A
:107A40002046BDE83840FFF7D1BF38BD2DE9F84FDB
:107A50009846DDE90A43154682460F460A464FF02E
:107A60000109AA420FD2C14538BFC14613F0010B2C
:107A700001D16CB900240126B8F1010F1BD908F11E
:107A8000FF386E43F8E709F10109B2FBF5F2E8E7C8
:107A90009B070ED5B8F1000F0CBF30262026A1455C
:107AA000E9D2013C31465046FFF7B9FF002CF6D130
:107AB000E0E72026F3E7B7FBF6F39D42E1D9DFF8D4
:107AC0003C80B7FBF6F3504618F8031006FB13771B
:107AD000FFF7A5FF3346AB42B6FBF5F6F1D2BBF19B
:107AE000000F02D00CB1A14501D3BDE8F88F2021D1
:107AF0005046013CFFF793FFF4E700BFF6A60200F3
:107B00002DE9F74F054617468846002900F03E81CB
:107B100018F8011B49B92B7B002B00F03781284650
:107B200003B0BDE8F04FFFF761BF252940F0B780F3
:107B3000002698F800302D2B424608F1010823D08A
:107B4000302B24D02B2B25D000242A2B02F101012D
:107B500023D13B681A1D1B683A601C440A461378FF
:107B60002E2B26D101324FF0000A104610F8011BCF
:107B7000A1F1300CBCF1090F1DD80A2303FB0A1335
:107B8000A3F1300A0246F0E746F00106D1E746F0DD
:107B90000206CEE746F00406CBE711F8013CA3F15C
:107BA00030000928DBD80A2202FB0434303C0A46A4
:107BB000CBE74FF0000A12F8011B01F0FB00682828
:107BC0009046F8D0782909D86F290CD8632962D05B
:107BD00022D8252963D0582900F0888098F80030F1
:107BE000002B95D197E770390829F7D801A353F8EE
:107BF00021F000BF677D0200DD7B0200DD7B02001B
:107C0000FD7C0200DD7B0200DB7C0200DD7B0200EC
:107C1000DD7B0200ED7C0200642901D06929DDD101
:107C20003A68D2F80090111D89EAE9723960A2EB36
:107C3000E9724FF0010B092A35DCD34538BFD34632
:107C40002CB1B9F1000F01DB720700D5013CB3077D
:107C500002D5BAF1000F03D0F00701D44CBB0024C9
:107C6000B9F1000F2DDAC9F100092D212846FFF7DF
:107C7000D6FE06F00302022A04D1BAF1000F01D1A8
:107C80001CBB0024CDE9004653460A22494628463B
:107C9000FFF7DCFEA2E73B681A1D19783A60284618
:107CA000FFF7BDFE9AE70A230BF1010BB2FBF3F2DB
:107CB000C1E7A345D4D220212846013CFFF7AFFEFF
:107CC000CCE77107D5D52B21D0E7A345DAD23021F7
:107CD0002846013CFFF7A3FED2E73968CDE900460C
:107CE0000A1D3A6053460A220968D0E739680A1D1E
:107CF0003A60CDE9004653461022F5E73B681A1D6D
:107D00003A6016F00106D3F8009024D1B9F1000FC3
:107D100003D0484602F08DFB0646B4421DD809F157
:107D2000FF3919F8011F00293FF458AF2846FFF723
:107D300076FEF6E728460136FFF771FE19F80610C1
:107D40000029F7D1A642BFF449AF20212846013CC3
:107D5000FFF765FEF6E70026F0E720212846013C04
:107D6000FFF75DFED9E73B681A1D3A6030212846CF
:107D70001C68FFF754FE78212846FFF750FE0022CA
:107D80000823CDE900322146102280E703B0BDE888
:107D9000F08F00BF2DE9F84FB0F806A04579D2F872
:107DA00000B09DF828900AFB05F5043D88460BEBD2
:107DB0000301A94203F1040488BFA5EB030BB4FB44
:107DC000FAF607460AFB1644C2F800B04EB9AAEB11
:107DD00004055D4528BF5D46BBF1000F04D1BDE839
:107DE000F88F3F68013EF1E7043408EB06003C449D
:107DF0002A46B9F1000F0DD02146ABEB050B02F07E
:107E0000BCFADA452E443F6855464FF0000428BFBF
:107E10005D46E1E701462046EFE7FFF792BDF8B582
:107E200046790146721E0546002393422D6803D30E
:107E30000024A64202D8F8BD0133F6E70F682846B1
:107E4000FFF7BAFD01343946F3E72DE9F843068A16
:107E5000CD1C0746FFF78CFD043E35440446B5FBB8
:107E6000F6F5F0B14FF48073EDB28380C680013D2A
:107E7000076081464FF00008A84512D23846FFF748
:107E800077FD064648B163790133637108F1010853
:107E9000C9F8000007608146EEE72046FFF7BFFF04
:107EA00034462046BDE8F88301210430FFF72BBD9E
:107EB00010B5012104460430FFF731FDC0B220B9EE
:107EC0002046BDE81040FFF7AABF10BD1FB50392C2
:107ED0000022009203AAFFF75DFF05B05DF804FBE6
:107EE0001FB503920122009203AAFFF753FF05B0CA
:107EF0005DF804FB41DF7047064B10B500241C7091
:107F0000054B1C60BFF35F8F0449054800F03BF848
:107F1000204610BD4C2000205020002010A7020059
:107F20004420002007B500230DF107008DF807302D
:107F3000FFF7C6FAF1EE103A23F09F03E1EE103A94
:107F4000BFF35F8F0A4B4022C3F884219DF80700DE
:107F5000FFF7DAFA01F0E0FF20B103B05DF804EBBF
:107F6000FFF7C8BF20BF40BF20BF03B05DF804FBD0
:107F700000E100E0836800225A60C3E904229A60AD
:107F8000DA601A6070470B684A684360934208BF22
:107F90000023016008BF43607047436843B1026833
:107FA000916852680B449342436004BF00234360CE
:107FB000704770B5446806460D46206818B1B3682E
:107FC0002946984718B923682B60256070BD24683E
:107FD000F3E74368186808B102681A60704743689D
:107FE000186870474368186800B97047884203D121
:107FF00002681A600120704703460068F4E7000039
:1080000010B50D49A1F59472914201D800200FE0FE
:108010008C1AE30F03EBE4035B1002EBC30452F88A
:108020003330834205D802D204F10802ECE76068DD
:1080300010BD2146E8E700BF1CAC020008B5FFF701
:10804000DFFF024B002808BF184608BDDFAA020068
:108050004FF08053D3F83001421C04BF4FF07043FF
:1080600093F8E00F831F5842584170474FF0704318
:1080700093F8E02F062A09D1D3F8E83FC3F303139E
:10808000033B042B02D8024AD05C704700207047A3
:108090002BAC0200024AD2F80034002BFBD0704710
:1080A00000E0014010B5FFF7D3FF40B14FF080531F
:1080B000944AD3F82433C3F30423C2F84035FFF7BE
:1080C000D5FF10B1904B914A5A67FFF7C1FF48B1F5
:1080D0004FF080534FF08042D3F84432C3F3423321
:1080E000C2F83C35FFF7C2FF30B1894AD2F8FC3004
:1080F00023F08073C2F8FC30FFF7AAFF40B14FF0C5
:1081000080430022C3F80C21C3F81021C3F838259E
:10811000FFF7ACFF20B14FF080430322C3F8A02546
:10812000FFF7A4FF60B17B4B0522C3F810260122A4
:10813000C3F888260022C3F818263F22C3F8142665
:108140004FF08053D3F83021511C09BF4FF07043DA
:10815000D3F8343193F8E02FD3F8E83F08BFC3F3E6
:108160000313062A4DD1033B042B03D86A4AD35C80
:10817000002B46D04FF08052684BD2F80414C3F85D
:108180002015D2F80814C3F82415D2F80C14C3F83B
:108190002815D2F81014C3F82C15D2F81414C3F80B
:1081A0003015D2F81814C3F83415D2F81C14C3F8DB
:1081B0004015D2F82014C3F84415D2F82414C3F89B
:1081C0004815D2F82814C3F84C15D2F82C14C3F86B
:1081D0005015D2F83014C3F85415D2F83414C3F83B
:1081E0006015D2F83814C3F86415D2F83C14C3F8FB
:1081F0006815D2F84014C3F86C15D2F84424C3F8BB
:108200007025FFF725FF48B14FF080534FF08042B3
:10821000D3F8583203F04F03C2F8E43EFFF718FFDB
:1082200048B14FF08043D3F80024D20744BF6FF029
:108230000102C3F800244FF08053D3F83021062AFE
:108240000ED1D3F83431033B042B02D8344AD35C2B
:1082500033B1344AD2F83C3743F48063C2F83C3738
:108260002B4AD2F8883043F47003C2F88830BFF349
:108270004F8FBFF36F8F4FF08053D3F83021062A12
:108280000FD1D3F83431033B042B02D8264AD35CF8
:108290003BB14FF01023D3F808224FF08043C3F8CE
:1082A00058254FF01023D3F80022002A03DBD3F81F
:1082B0000432002B22DA1D4901234FF01020C1F8AF
:1082C00004351524FFF7E6FEC0F80042FFF7E2FE92
:1082D000C0F80442FFF7DEFE0023C1F80435FFF7C3
:1082E000D9FEBFF34F8F0A49114BCA6802F4E0620E
:1082F0001343CB60BFF34F8F00BFFDE70D4B0E4A1A
:108300001A6010BD0030014000C007400DF0ADBA4A
:1083100000ED00E0005000401CAC020000C0004036
:1083200021AC02000010004026AC020000E0014039
:108330000400FA05101900200090D003054A4FF000
:10834000A043105CD3F8043523FA00F0C04300F0DA
:108350000100704730AC0200044B1A5C01239340CB
:108360004FF0A042C2F80C35704700BF30AC02009D
:10837000044B1A5C012393404FF0A042C2F8083529
:10838000704700BF30AC020008B50020FFF7F0FFD7
:108390000120FFF7EDFF0220FFF7EAFFBDE80840EC
:1083A0000320FFF7E5BF08B50020FFF7D5FF012048
:1083B000FFF7D2FF0220FFF7CFFFBDE80840032000
:1083C000FFF7CABF074A4FF0A041105CD1F804354F
:1083D0000122824022EA03001340C1F80805C1F8D7
:1083E0000C35704730AC02000D2809D00E2809D09A
:1083F0000F2809D010280CBF03204FF0FF30704722
:10840000002070470120704702207047C20708B55E
:1084100001460CD54FF0A0430322C3F84427C3F80C
:108420004827C3F84C27C3F85027FFF7ADFF8B0749
:108430000AD54FF0A0430C22C3F83427C3F83827DD
:10844000C3F83C27C3F8402708BD000038B5074CE7
:10845000051E04F1080318BF1C4623682BB11A68D7
:1084600022605B6828469847F7E738BD5C2000200B
:1084700020B9054B01225A70FFF7E8BF012802D14D
:10848000014A9070F8E770475420002020B9034B50
:1084900001225A70FFF7DABF704700BF5420002056
:1084A00038B50E4C2378B3B90D486360A3602361DF
:1084B000E36000F0E7F8054601F02EFD08B900F092
:1084C000EDF801232370074BD3F800340BB10123DF
:1084D000A370284638BD8525F5E700BF542000204D
:1084E000718402000000014037B50D4C00230DF1EE
:1084F00007008DF80730FEF7E3FFE368013BE36018
:10850000E36833B9074BD3F8005415B900F0D8F835
:10851000A5709DF80700FEF7F7FF03B030BD00BF60
:108520005420002000000140012813B50CD003287E
:1085300020D038B9134B0122C3F88020BFF34F8FEE
:10854000BFF36F8F02B010BD0F4C00230DF1070079
:108550008DF80730FEF7B4FF23780BB9FFF7A0FFC3
:10856000E3689DF807000133E3600123A370FEF781
:10857000CBFFE7E700F092F802B0BDE81040FFF74C
:10858000B3BF00BF00E100E0542000201FB5037816
:108590008DF800304368019383688DF80830C36814
:1085A000054A0393054B684653F8213052F82110D1
:1085B000984705B05DF804FB682000206C2000207F
:1085C0001FB503788DF800304368019383688DF8F8
:1085D0000830C368054A0393054B684653F82130B9
:1085E00052F82110984705B05DF804FB6820002080
:1085F0006C200020F0B5194B90F800C091F81DE0F8
:1086000043F82C20164B16460A6943F82C20154BCC
:1086100003F80CE00C4607460FCC89B06D460FC539
:1086200094E80F0085E80F00CDF810C0BEF1000FF0
:1086300009D0002E0C4A694608BF3246381D00F0AA
:1086400089FD09B0F0BD002E084A694608BF3246D0
:1086500007F10C0000F060FBF3E700BF6C20002086
:1086600068200020702000208D850200C185020056
:1086700000F18040002382B0036003680193019BF6
:1086800002B07047044A137923B901211060918028
:10869000184670478520704774200020074B1A68E1
:1086A000D20704D4C02283F8002301221A604FF0BD
:1086B00080430122C3F81825704700BF00E100E0A5
:1086C0004FF0804208B50223C2F808334FF482709D
:1086D000FFF7CEFF0123D360D2F81834DB03FBD4BD
:1086E00008BD00004FF0804110B5D1F8003163B1F2
:1086F0004FF48070FFF7BCFF0D4B58790122C1F891
:10870000082310B95A711B6898474FF08042D2F87D
:10871000043163B14FF48270FFF7AAFF0223C2F85D
:108720000833034BBDE810401B680120184710BDFB
:108730007420002000F1804000F5C040002382B08A
:10874000036003680193019B02B07047800000F151
:10875000A040D0F8002722F44032C0F80027D0F81B
:10876000003743EA0141C0F800177047054B4FF04E
:10877000FF32072843F8202084BFC01880F8482023
:10878000704700BF7C20002010B51A4C94F8583078
:108790006BBB4FF0FF3222FA03F1C90748BFE11863
:1087A00003F1010348BF81F83020202BF3D10021D1
:1087B000C8B20131FFF7DAFF0C29F9D104220021F8
:1087C0000D4801F003FE0D4BC02283F80623402222
:1087D0001A604FF4BE70FFF7ADFF094B4FF0004237
:1087E000C3F80423012384F85830002010BD08206A
:1087F000FCE700BF7C200020D020002000E100E04A
:1088000000600040034B93F85800003818BF012067
:10881000704700BF7C200020F0B5394E331893F923
:108820003030002B69DA8D78C5F34005002D0BBF81
:10883000082300230C240824A34201D10420F0BD06
:1088400056F82370013743D137185CB246F823201D
:1088500087F8304015B9F21882F848008A78550731
:1088600016D4D70736D5820002F1A042D2F80057BD
:1088700025F00205C2F80057224FC50800F0070C8A
:10888000012202FA0CF217F805C042EA0C027A55EE
:108890008A780D7812F0020225D09B0003F1804304
:1088A00003F5C0430002D3F8102522F4473222F426
:1088B0004072C3F810252D04D3F8102500F4F850A9
:1088C00005F4403528431043C3F810050020B6E7EF
:1088D0000133B1E74D7800F5E0724FF0A047AD00ED
:1088E00047F82250C8E7083C46FA84F494F8500050
:1088F00040EA851584F85050E8E708209FE700BF5C
:108900007C200020D020002038B5204C251895F977
:108910003020072A18DD083A44FA82F494F85030DF
:108920009B09032B0BD14FF0A043D3F81015C14086
:1089300001F001010231BDE83840FFF707BF012B0C
:108940000CBF02210321F6E7D3B2072B1DD89300F9
:1089500003F1804303F5C043D3F8100540F0010054
:10896000C3F8100502F1400040B2800080B2FFF76A
:10897000E1FE51B195F9303054F823302BB1012389
:1089800003FA02F2024BC3F8042338BD7C20002016
:10899000006000404FF0A043D3F8103523FA00F0F8
:1089A00000F00100704700002DE9F74F00244E4D04
:1089B00001944FF48072012102F1804303F5C0431A
:1089C00090B21B68012B06D1D5F804330B4202D0BC
:1089D000FFF7B0FE0C430432B2F5907F4FEA41013D
:1089E000EAD1414BD3F87C31012B0CD14FF4BE704E
:1089F000FFF7A0FE4FF0A04344F00044D3F8202539
:108A00000192C3F82025E3B2D3B1384F00250126E7
:108A1000344210D0AB0003F1804303F5C043D3F8D8
:108A20001005D3F8101557F8253023B1C1F30141D3
:108A3000C0F3042098470135082D4FEA4606E7D1D8
:108A4000002C48DA294D4FF0A048294E4FF000097C
:108A5000012716F9013B5A1C31D0C3F3C20202A907
:108A60000A44DCB212F8042C03F03F0A03F00703B7
:108A700007FA03F31A4222D00AF5E073504658F879
:108A80002330C3F3014BBBF1020F0CBF03210221C2
:108A9000FFF75CFE07FA0AF3C8F8203505EB0A0376
:108AA00093F9303055F823304BB1A109032904D094
:108AB000BBF1020F12D1012901D15046984709F1AB
:108AC0000109B9F1040FC4D1D8F820350193C8F8D1
:108AD0002035002BB9D103B0BDE8F08FBBF1030FF7
:108AE000EDD10229E8E700BF006000407C200020B3
:108AF000CC200020014B1B68184700BFD820002065
:108B00000E4B984237B50C4602D0002003B030BD62
:108B100000230DF107008DF80730FEF7D1FC084B5C
:108B20001D7915B901221C601A719DF80700FEF726
:108B3000EBFC002DE9D01120E8E700BF0020004049
:108B4000D8200020034B984201BF034B00221A603B
:108B50001A71704700200040D820002000234350A5
:108B600082B043580193019B02B070470A4610B58A
:108B70004FF48E71FFF7F2FF136A9168C95C136AB4
:108B800001331362C0F81C1510BD8B690A4610B57D
:108B90004FF4847123B9FFF7E1FFD0F8183510BD09
:108BA000FFF7DCFF536AD168D0F81805C854536A40
:108BB00001335362F3E700001FB501238DF8003045
:108BC000044BCDE90110D3E900126846904705B087
:108BD0005DF804FBE020002030B54D4DD5F804339E
:108BE0009A0585B051D5D5F82431002B4DD04FF4DE
:108BF00092712846FFF7B2FF4FF40173C5F80833AE
:108C0000444B93F829200AB901226A6040490222A4
:108C10008DF80020D1F88024C1F8802403929A694D
:108C20000292DA6801920022C3E906226846D3E97B
:108C3000001290473648D0F81C315BB1354A516973
:108C4000136A99424DD992F82830002B49D1114628
:108C5000FFF78CFF2E48D0F84431002B56D04FF44C
:108C6000A271FFF77BFF2B4B93F829200AB1012259
:108C700002609A69002A49D0586AD96800229A612C
:108C800005B0BDE83040FFF797BFD5F804335B0768
:108C9000D0D5D5F80831002BCCD01E4C1C4821462D
:108CA000FFF773FF636AA2699A42C3D1E369E1687F
:108CB0004BB1A3612369E3600023606AE3616362EF
:108CC000FFF77AFFB6E794F829300BB901236B6000
:108CD0000F4B4FF40172C3F808230023606AA361AD
:108CE000EEE70B484FF48E71FFF738FF5369002B06
:108CF000B0D051690291002391688DF80030019144
:108D000053616846D2E900139847A3E705B030BD28
:108D100000200040E02000202DE9F843534D90F85A
:108D200004802C2303FB0853064693F82A300C4694
:108D30009146002B40F096804D490068FFF7E0FE19
:108D40000746002840F0908022683068511C0BD004
:108D50004FF0A04101239340C1F8083502F5E073BC
:108D60004FF0030C41F823C061684B1C1FBF01F595
:108D7000E0734FF0A04C4FF0000E4CF823E0A369D5
:108D8000C0F8243594F814C0637DBCF1010F4CEA9F
:108D90000303C0F86C35C0F81415C0F80C251DD1BC
:108DA000A268531C1FBF02F5E0734FF0A0414FF0C3
:108DB000000C41F823C0E368591C0BD04FF0A04CC5
:108DC00001219940CCF8081503F5E0714FF0030E2E
:108DD0004CF821E0C0F80835C0F810252C2202FB21
:108DE00008F2AB18C3F804902369AB50B9F1000F37
:108DF00020D04FF48E71247FFFF7B0FE4FF4A271A4
:108E00003068FFF7ABFE32681A4BC2F80433130B1D
:108E100042F307326101002AC9B21EDB16488418EA
:108E200084F800130121520903F01F0301FA03F330
:108E300040F8223033680422C3F800252C2303FBBA
:108E400008530022C3E9062283F829205A6101222F
:108E500083F82A203846BDE8F883084A03F00F0358
:108E6000D154E7E70827F5E71127F3E7E0200020D2
:108E7000D98B02008000020000E100E014ED00E068
:108E8000F8B503680579304C0022C3F800252C2280
:108E900002FB05425268A2B12C4AC3F808231A0B00
:108EA00043F30733002B0CDB02F01F015B090122A7
:108EB0008A402033264941F82320BFF34F8FBFF368
:108EC0006F8F0068D0F80C65D0F81415D0F808350D
:108ED000D0F810254FF0FF37BE42C0F8147518BF08
:108EE00006F5E076C0F80C75C0F80875C0F8107586
:108EF0001EBF4FF0A0474FF0020C47F826C04E1C93
:108F00001FBF4FF0A04601F5E071022746F821701F
:108F1000511C1FBF4FF0A04102F5E072022641F83C
:108F200022605A1C1FBF03F5E0734FF0A0420221DC
:108F300042F82310FFF706FE2C2303FB0544002311
:108F400084F82A306360F8BDE0200020840202002B
:108F500000E100E00279044B2C2101FB0233586947
:108F6000003818BF01207047E02000202DE9F84F9D
:108F7000064690F8048089469246FFF7EBFF0446C8
:108F800000283CD1204F2C2508FB057B4FF48E7127
:108F9000CBF814A0CBF80890CBF820008BF8280071
:108FA0003068FFF7DBFD3068012383605946FFF727
:108FB000DDFDDBF804305D461BBB3068DBF8144098
:108FC0002B6A9C4211D83368D3F81C21002AFBD0AD
:108FD0000122DA6000202C2303FB087700237B6149
:108FE000BDE8F88F95F828303BB9D0F81C31002B3C
:108FF000F8D05946FFF7BAFDE2E70F20EBE7112062
:10900000EEE72046ECE700BFE020002000234350BD
:1090100082B043580193019B02B070471FB50123F2
:109020008DF80030044BCDE90110D3E900126846F9
:10903000904705B05DF804FB0C2100207FB5434A42
:10904000D2F82461002E60D010464FF49271FFF7E1
:10905000DDFF02238DF80030D2F88034C2F880346E
:109060000393D2F83C350293394BDA68019200221F
:10907000C3E906226846D3E9001290473348D0F886
:10908000443173B14FF4A271FFF7C0FF304B9A69BE
:109090003AB10022C3E90622D968D0F83C05FFF7AF
:1090A000BDFF2A48D0F82031ABB14FF49071FFF7E3
:1090B000ADFF0123C360264B5A6962B1D0F84C154D
:1090C0000291002299688DF8002001915A6168464A
:1090D000D3E9001290471D48D0F858319BB14FF4A6
:1090E000AC71FFF793FF1A4B5A6962B1D0F84C1577
:1090F0000291002299688DF8002001915A6168461A
:10910000D3E90012904704B070BDD2F81031002BA3
:10911000B4D04FF488711046FFF778FF0C4BD2F8AB
:109120003C0599698842A9D1DC69D96864B1D2F853
:10913000005225F02005C2F800521A699C61DA60DD
:10914000DE61FFF76BFF99E79C61FAE700200040C2
:109150000C2100202DE9F8435A4E90F80480242376
:1091600003FB0863044693F820300D469146002B1C
:1091700040F0A38054490068FFF7C2FC074600286E
:1091800040F09D802A682068511C0BD04FF0A04110
:1091900001239340C1F8083502F5E0734FF0030C4A
:1091A00041F823C069684B1C1FBF01F5E0734FF005
:1091B000A04C4FF0000E4CF823E0AB69C0F824350A
:1091C00095F814C06B7DBCF1010F4CEA0303C0F8A5
:1091D0006C35C0F80C25C0F814151DD1AA68531CB5
:1091E0001FBF02F5E0734FF0A0414FF0000C41F8B3
:1091F00023C0EB68591C0BD04FF0A04C01219940C3
:10920000CCF8081503F5E0714FF0030E4CF821E09F
:10921000C0F80835C0F81025242202FB08F2B31864
:10922000C3F804902B69B350B9F1000F2FD04FF45D
:1092300088712A7FFFF7EAFE20684FF49071FFF7EC
:10924000E5FE20684FF49271FFF7E0FE20684FF4CE
:10925000A271FFF7DBFE4FF4AC712068FFF7D6FE7A
:1092600023681A49C3F80413190B43F30733520157
:10927000002BD2B21CDB1648C51885F8002301224A
:109280005B0901F01F0102FA01F140F82310236885
:109290000822C3F80025242303FB08660023C6E93F
:1092A00006337361012386F820303846BDE8F88321
:1092B000084B01F00F015A54E9E70827F5E7112799
:1092C000F3E700BF0C2100203D9002001003420094
:1092D00000E100E014ED00E0F8B5444C05792423EA
:1092E00003FB054302465B680068ABB1404BC0F826
:1092F000083340F30733002B4FEA10310CDB01F049
:109300001F065B090121B14020333A4E46F8231075
:10931000BFF34F8FBFF36F8FD0F8003223F02003DD
:10932000C0F80032242303FB05439B692BB14FF4A3
:10933000A271FFF76BFE012343604FF4AC71FFF79E
:1093400065FE0123C360242303FB0543D0F85811B5
:109350000029FBD0996919B1D0F844110029F5D042
:109360000023C0F800351368D3F80C75D3F81465E2
:10937000D3F80825D3F810154FF0FF3C6745C3F824
:109380000CC518BF07F5E077C3F814C5C3F808C5C6
:10939000C3F810C51EBF4FF0A0434FF0020C43F8B6
:1093A00027C0771C1FBF4FF0A04306F5E0760227C9
:1093B00043F826704E1C1FBF01F5E0714FF0A0432B
:1093C000022643F82160531C1FBF4FF0A04302F553
:1093D000E072022143F82210FFF7B4FB242303FBC1
:1093E0000544002384F820306360F8BD0C21002080
:1093F0001003420000E100E00279044B242101FB4C
:1094000002335869003818BF012070470C21002032
:1094100001F06043B3F1005F2DE9F047064688464E
:1094200092463BD190F80490FFF7E6FF04460028EF
:1094300036D11D4F3068242505FB09754FF4907116
:10944000C5F814A0C5F80880FFF7E0FD4FF4AC7133
:109450003068FFF7DBFD33686A69A968C3F8441513
:10946000C3F8482501229A606A68DAB9D3F8202146
:10947000D3F858011AB90028F8D00F2007E00028C7
:10948000FBD10122DA60D3F85821002AFBD0242333
:1094900003FB097700237B61BDE8F0871020FBE721
:1094A0001120F9E72046F7E70C2100200220FEF703
:1094B00089BF00002DE9F04780460D46FEF794FF76
:1094C0000328044610D8012D10D0022D30D05DB9EC
:1094D0001A48FDF7EBFE1A4B04EB440213449D7847
:1094E000184B1B5DAB4219D0BDE8F087144E00EB62
:1094F0004003F218F55C5378470053B1DFF84C9005
:109500000E484A464FF48041FDF7A2FE08B989F89B
:10951000008027443E440B4BB2781A55002DE3D00F
:10952000094B1B68002BDFD02846BDE8F0471847E1
:1095300000EB4004024804446578EFE73819002046
:10954000322100204D210020482100203021002020
:1095500000780221FFF7AEBF08B5094B1B7853B165
:109560000020FEF705FF0120FEF702FFBDE80840DE
:109570000320FEF7FDBEBDE80840FEF705BF00BFB3
:1095800031210020F8B57A4C237805461BB1002321
:109590002370FFF7E1FF172D00F28780DFE805F069
:1095A0000C1717425364757F878C878C949999990F
:1095B0009999C3C8D0D8E3E3FFF7CEFF6D48FDF714
:1095C00075FE6D4B002204461A702046F8BD00203F
:1095D000FEF7B4FEF0B10020FEF7CAFE022D0CBF6C
:1095E0004FF4E1644FF47A64634B1D7000254FF42F
:1095F00000464FF47A7029464FF4FA620023E4FBE8
:10960000060100F0F5FD2A460146BDE8F84059483C
:10961000FDF71EBEFEF7A0FE022D0CBFC8244FF4BE
:10962000C874E1E70020FEF789FE40B10020FEF794
:109630009FFE4FF44874504B03221A70D6E7FEF792
:109640008BFEC824F7E70020FEF778FE38B1002033
:10965000FEF78EFE4FF47A64474B0422EDE7FEF7E7
:109660007BFE4FF4C874F7E70020FEF767FE48B1B1
:109670000020FEF77DFE404B05221A7040F6CD41DA
:109680000022C2E7FEF768FEF5E70020FEF79AFE2B
:10969000394B06221A70002240F26661B5E70020BD
:1096A000FEF75AFE344B07221A7000248DE7012082
:1096B0002070FEF787FEEEE701202070FEF782FEA5
:1096C00000224FF40051A0E7FEF76DFE2A4B0C225A
:1096D000EAE72A482A4EFDF7E9FDD5F111050446CF
:1096E0001CD0D8B9012D13D0C820454321464FF4D2
:1096F00000474FF47A704FF4FA620023C5FB07016C
:1097000000F076FD224601461C48FDF7A1FD044607
:109710000220FEF721FE0123337056E70220FEF7F8
:1097200027FE0023F8E7FFF717FF134B1222BBE7D2
:10973000FFF712FF0020FEF70FFE0F4B1322B3E7D7
:10974000FFF70AFF0120FEF707FE0B4B1422ABE7E1
:10975000FFF702FF0020FEF7FFFD0120FEF7FCFDF2
:10976000054B1522A0E7FEF71EFE034B1D709CE77C
:1097700044210020581900204C21002018190020F5
:1097800031210020044B1B68DB0703D5034B1878FD
:10979000FFF7F8BE704700BF402100204C21002099
:1097A000044B1B6813F0010301D0FFF7EBBE184612
:1097B000704700BF4021002038B51C4B18601C4B7F
:1097C00010F00204054619601AD01A4B1A480E22EE
:1097D0001A700F22DA7010229A7111225A72042123
:1097E00040F23332FDF7A2FB044648B9FDF7F6FB21
:1097F000044628B90146114A1148FDF717FD0446F1
:10980000EB0711D50120FEF701FE6CB921460D4A88
:109810000D48FDF70BFD044630B9BDE838400B4A52
:109820000B480121FDF702BD204638BD4021002034
:10983000482100203221002058AC0200519502003E
:109840007CAC02008597020080AC0200AD9402005F
:1098500078AC020072DF704773DF704700B54FF4D9
:10986000804193B00020FCF751FF08B1FDF7CCFB1D
:10987000FCF78AFEFDF7A8FC08B1FDF7C5FB002147
:109880000120FFF799FF08B1FDF7BEFBFEF734FB9F
:1098900008B1FDF7B9FB00F001FB08B1FDF7B4FB1F
:1098A000002303A90120039300F084FB08B1FDF716
:1098B000ABFB03A800F02EFC08B1FDF7A5FB592374
:1098C000284CADF80030284B0293002517233C228A
:1098D000002103A8ADF8043000F078FD042318221D
:1098E000294620468DF80F308DF80C50CDF830D039
:1098F00000F06CFD1D4A65600523237052F8041BBF
:109900002575A02303A8A360A58100F0B3F808B1D2
:10991000FDF77AFB134A15491548FFF79BFF08B17D
:10992000FDF772FB134B14481449C01AC008000419
:1099300040F00300FDF788F80D4B01211878FFF780
:109940008BFF08B1FDF760FB0220FFF729FF08B18C
:10995000FDF75AFBFCF72CFF0028FBD1FEF7E2FADB
:10996000F8E700BF54210020891900207819002051
:1099700088190020C8A40200F0A4020084AC0200F0
:109980006DDF704779DF70477DDF704764DF7047B8
:109990002DE9F04F85B000250E9CBDF83CB0B4F821
:1099A00000A00191074690461E46A9463A884A45BE
:1099B0000DDC45B12388013BA3EB0A039BB2FF2BCF
:1099C0003AD806F80A30002005B0BDE8F08F7A6872
:1099D00052F82900039000220DF10B0103A8FFF7B4
:1099E000D5FF0028F0D19DF80B20424521D12288D7
:1099F000002D14BF0020022002EB0801014459454C
:109A00001ADC3DB9013292B2019B2280B354228804
:109A10000132228022880DF10B01324403A8FFF7A6
:109A2000B5FF0028D0D121889DF80B200A44228060
:109A3000012509F10109B9E70C20C5E72DE9F3413A
:109A4000089FBDF824801546CDE90078022204461F
:109A50001E46FFF79DFF50B9334610222946204687
:109A6000CDE9087802B0BDE8F041FFF791BF02B040
:109A7000BDE8F0812DE9F04F00231788138090F89E
:109A80002D3085B006460D46144653B3082F01D835
:109A90000C2027E102A8FFF773FF002840F0228185
:109AA00023880822EA54238801339BB21B22238097
:109AB000EA542088013080B2208006220DF109018D
:109AC000284400F05AFC23889DF8082006339BB2F6
:109AD00012F0FE0218BF01222380EA5423880133CA
:109AE0002380B378FBB123880433BB42D0D802A8CB
:109AF000FFF748FF002840F0F58023880322EA544E
:109B0000238801339BB219222380EA542388BDF8AD
:109B1000082001339BB2E9182380EA54120A4A70E4
:109B2000238802332380F2789AB12388D91CB94262
:109B3000AED80221E954238801339BB2012123804E
:109B4000E95423880B449BB22380EA5423880B44B6
:109B500023807268AAB12388D91CB94298D80221FF
:109B600092F90020E954238801339BB20A21238013
:109B7000E954238801339BB22380EA5423880133BC
:109B800023803389002B40F0A180338A5BB1CDE97B
:109B900000472B460722032106F11000FFF74EFF76
:109BA000002840F09F80338B5BB1CDE900472B4606
:109BB0001522142106F11800FFF740FF002840F09D
:109BC0009180326A002A40F09080D6F82480B8F163
:109BD000000F30D0B8F804302188981C8A1C024449
:109BE000BA423FF655AFFE283FF652AF03336B54EF
:109BF000238801339BB2FF222380EA542388013358
:109C00009BB22380B8F80020EA54E918120A4A707F
:109C10002088023080B22080B8F804205AB1D8F8E9
:109C2000081000296BD0284400F0A7FB2388B8F85F
:109C300004201344238096F82C30002B40F09880A9
:109C4000307800284ED03388012B58D0228802F17A
:109C5000020CBC453FF61CAF012805D173780233D6
:109C600013449F42FFF414AF023FBF1ABFB202A9D0
:109C700005EB0C00ADF80870FFF786FE90BB31785D
:109C8000BDF80830022900F0B98072789A4202D3F8
:109C90009F4280F0B180012940F0B280974293B298
:109CA000C0F0AE80ADF808300821BDF80830FE2BBA
:109CB0003FF6EEAE22880133AB542288013292B2D5
:109CC0002280A9542288134423800BE0CDE9004769
:109CD0002B460622022106F10800FFF7AFFE0028FE
:109CE0003FF453AF05B0BDE8F08FB4F800C00CF1FD
:109CF0000603BB423FF6CCAE1188052901D80720E8
:109D0000F0E76FF4486E01EB0E039BB24FF27D3E1D
:109D10007345F4D95388052BF1D96FF448601818AE
:109D200080B27045EBD94FF6FF70814201D0994265
:109D3000E5D8052305F80C30238801339BB21221A6
:109D40002380E954238801339BB223801188E9548E
:109D5000E818090A4170238802339BB22380528895
:109D6000EA54E918120A4A702388023323802CE748
:109D7000B36A002BC3D04FF000084FF00C0A4FF02D
:109D8000160BB16A5FFA88F20AFB02F201EB0209D4
:109D9000B9F80430981CFE283FF67AAE20880333C9
:109DA0002B54238801339BB2238005F803B023880A
:109DB00001339BB223808A5AEA54E918120A4A7086
:109DC0002088023080B22080B9F804205AB1D9F836
:109DD0000810002993D0284400F0CFFA2388B9F85E
:109DE00004201344238096F82C2008F101085FFA20
:109DF00088F39A42C5D823E7092156E79F42FBD250
:109E0000ADF8087050E710DF7047000013B5044646
:109E100009496846FEF7B7F8019808B902B010BDC5
:109E2000D0E900212046904718B16846FEF7B5F802
:109E3000F2E71120F2E700BFA8AC020013B5044618
:109E400007496846FEF79FF8019B0BB902B010BDA9
:109E50002046D3E9002190476846FEF79EF8F3E7D5
:109E6000C0AC02000B4991F816335A09EC23134198
:109E7000DB0706D5084B9A683AB94FF480030B60AC
:109E8000704742F20200FDF7BFB81A6842F4800240
:109E90001A60704700E100E02C200020F7B5194F50
:109EA0003C7864BB184E012520463570FFF7AEFFA5
:109EB000112821D02046FFF7C1FF144B8DF8034035
:109EC000186801900DF10300FDF7FAFA104901A896
:109ED000FFF799FF0446B0FA80F0400938709DF80A
:109EE0000300FDF711FB3CB90A4B34701C70FFF7FF
:109EF000B9FF2846FFF7A2FF204603B0F0BD0824B3
:109F0000FAE700BF8C2100208B210020A4AC0200C6
:109F1000257002008D210020014B1878704700BF8A
:109F20008C21002007B508496846FEF72CF8019BF4
:109F300013B903B05DF804FBD3E9002090476846ED
:109F4000FEF72BF8F3E700BFB4AC0200FFF7EABF5F
:109F500060DF704769DF704761DF704730B5134BD2
:109F60001B7891B0FBB1124D34240DF1020103A80E
:109F7000ADF80240FFF7F0FF70B9294601A8FEF7DF
:109F800002F8029B002BF0D003A8D3E900219047F0
:109F900001A8FEF702F8F4E7052804D011B0BDE8E7
:109FA0003040FDF731B811B030BD00BF8E21002028
:109FB00004AF020030B5054685B00C46002900F01C
:109FC00097804C4B0B600C22002101A800F0FEF999
:109FD00001238DF8063022688DF80450062301A96C
:109FE0002020ADF80830FFF7B5FF60B1FEF726F886
:109FF000414B4249024642481B1ADB081B0443F00E
:10A000000100FCF725FD0C22002101A800F0DEF97B
:10A01000002322688DF8053001A94020ADF80630F4
:10A02000FFF798FF60B1FEF709F8334B3549024658
:10A0300033481B1ADB081B0443F00100FCF708FD42
:10A040000C22002101A800F0C1F9002322688DF83C
:10A05000043001A90120FFF77DFF60B1FDF7EEFF9D
:10A06000254B2949024626481B1ADB081B0443F0EE
:10A070000100FCF7EDFC0C22002101A800F0A6F97C
:10A08000F8232268019301A9A120FFF763FF60B1C3
:10A09000FDF7D4FF184B1D49024619481B1ADB086F
:10A0A0001B0443F00100FCF7D3FC0C22002101A8A3
:10A0B00000F08CF99DF8043022686FF3000301A9C9
:10A0C000A0208DF80430FFF745FF034668B1FDF787
:10A0D000B5FF094B0E49024609481B1ADB081B0451
:10A0E00043F00100FCF7B4FC0023184605B030BD76
:10A0F0000E23FAE7C818002018A50200CCAC020015
:10A10000C8A4020012AD02005EAD0200AAAD0200BA
:10A11000FBAD020073B505460668FFF719FF2B6813
:10A12000B34204461DD91A481A4B1B491B1ADB08B7
:10A130001B0443F002000190FCF786FC2B681749D2
:10A1400001983246FCF78DFC4FF080532A68D3F813
:10A150000C31134901989B0203F100539A1AFCF742
:10A1600077FC2CB90F4B01221A70204602B070BD4B
:10A170002046FDF763FF074B0B49024604481B1AB4
:10A18000DB081B0443F00100FCF762FCEDE700BFB5
:10A19000C8A4020018A502004EAE02007DAE020067
:10A1A000AEAE02008E210020D8AE02004BDF704719
:10A1B0001FB50E4C01A8FFF7F9FF70B9214602A8A0
:10A1C000FDF7E1FE039B002BF4D00198D3E90021B9
:10A1D000904702A8FDF7E1FEF4E7052804D004B09B
:10A1E000BDE81040FCF710BF04B010BD1CAF02006A
:10A1F00053EA020C61D02DE9F04BB3FA83F51E004F
:10A2000007BFB2FA82F502FA05F403FA05F416461E
:10A21000C5F120051EBF22FA05F73C43203556EA5A
:10A22000044C4FEA144418BF0134A3464FF0000910
:10A23000C846904271EB030C39D3094207BFB0FA0C
:10A2400080F700FA07F6B1FA81F701FA07F6C7F1CD
:10A2500020071EBF20FA07FC46EA0C062037B6FB93
:10A26000FBFC7F1B103F07F01F04C4F120060CFA13
:10A2700004F42CFA06F644BF34460026202FA4BF6F
:10A280002646002454EA060C08BF012418EB0408F3
:10A2900049EB0609A4FB027CC01B06FB02CC04FBB5
:10A2A00003CC71EB0C01904271EB030CC5D20B4651
:10A2B000024649464046BDE8F08BB2FBF3F200008F
:10A2C0007F2805D8034B185C034B5B5C1840704734
:10A2D0000020704734AF0200B4AF0200A0F1610368
:10A2E000192B98BF20387047A0F14103192B98BF54
:10A2F000203070477F2805D8034B185C034B5B5C0C
:10A30000184070470020704734AF0200B4AF02001D
:10A31000A0F16103192B98BF20387047A0F14103C9
:10A32000192B98BF203070477F299ABF01700120F8
:10A330006FF02E0070475AB10A787F2A0AD800B110
:10A340000260002119605960501A18BF012070473F
:10A35000002070476FF02E007047000008B5034BD7
:10A360005B689B681B68984708BD00BFA019002068
:10A3700008B50921FFF7F2FF08BD844640EA010352
:10A3800013F0030F18D18446202A0BD32DE9F007D0
:10A39000B1E8F807A0E8F807A2F12002202AF7D2D6
:10A3A000BDE8F007042A07D351F8043B40F8043B0A
:10A3B000A2F10402042AF7D2002A05D011F8013BC9
:10A3C00000F8013B013AF9D1604670478446002A03
:10A3D0002DD010F0030F04D000F8011B013A26D055
:10A3E000F7E7C9B241EA012141EA0141202A12D32B
:10A3F000A2F120022DE9F0030B460C460D460E4655
:10A400000F4688468946A0E8FA03203AFBD2BDE809
:10A41000F00320320BD0042A05D340F8041B043A81
:10A4200005D0042AF9D200F8011B013AFBD160469D
:10A43000704700F1010110F0030F11D010F8012B4B
:10A44000002A23D010F0030F0AD010F8012B002AA5
:10A450001CD010F0030F03D010F8012B002A15D0E8
:10A460002DE970004FF001324FF0803350F8044B6B
:10A47000A4EB020525EA04051D4000D1F6E7A0F192
:10A48000040070BC10F8012B002AFBD1A0EB0100E6
:04A490007047000011
:08A494008D84020000000000AD
:08A49C00298502000000000008
:10A4A4005D9F020000000000B1A102000000000056
:10A4B400F8190020C01A0020C81A0020001A002031
:04A4C400180000007C
:10A4C8003AAC02000000000040AC020000000000AE
:10A4D80047AC0200000000004BAC02000000000086
:10A4E80050AC02000000000096A502000000030323
:10A4F8006CA602000000000095A602000000000003
:10A5080034AC0200000000009CAC02000000030311
:10A51800F5AE02000000030310AF020000000303C1
:10A5280006A70200000000001CA7020000000000AF
:10A5380068A502000000000074A50200DC180020D5
:10A54800FFFFFFFFFFFFFFFFFFFFFFFFFFFFFFFF13
:10A5580000000000000000000000D6010601000015
:10A56800F164020055650200A1640200756172740D
:10A578005F6C6F675F6261636B656E640042616305
:10A588006B656E647320666C7573686564006170D2
:10A5980070000000E81E00207F000000681F0020F7
:10A5A8001B5B313B33316D0025734C6F677320643F
:10A5B800726F70706564202825642925730D0A0060
:10A5C8001B5B306D002573003C25733E2025733AD4
:10A5D8002000202530327800202020007C002563D0
:10A5E800001B5B313B33306D001B5B313B33326DFD
:10A5F800001B5B313B33336D001B5B313B33346DE8
:10A60800001B5B313B33356D001B5B313B33366DD3
:10A61800001B5B313B33376D007761726E696E6783
:10A6280000696E666F00646562756700C8A5020000
:10A63800E9A50200A8A50200F1A50200F9A50200FB
:10A6480001A6020009A6020011A6020019A602002E
:10A658000000000082A6020021A6020029A602002E
:10A668002EA602006170705F627574746F6E0000D0
:10A67800E8180020466174616C206572726F720080
:10A6880053797374656D20726573657400617070B9
:10A698005F74696D6572000001000600000000002B
:10A6A800A41F00209170020052544320696E7374F5
:10A6B800616E636520616C726561647920696E6999
:10A6C8007469616C697A65642E005254433A206952
:10A6D8006E697469616C697A65642E000000000017
:10A6E80000000000000000000338FDD8704730313A
:10A6F800323334353637383941424344454670772A
:10A70800725F6D676D7400009CA402009CA4020037
:10A7180004000000736F72746C697374004E5246C3
:10A728005F53554343455353004E52465F4552527B
:10A738004F525F5356435F48414E444C45525F4D1C
:10A74800495353494E47004E52465F4552524F5265
:10A758005F534F46544445564943455F4E4F545FF7
:10A76800454E41424C4544004E52465F4552524F79
:10A77800525F494E5445524E414C004E52465F4539
:10A7880052524F525F4E4F5F4D454D004E52465FFD
:10A798004552524F525F4E4F545F464F554E4400FC
:10A7A8004E52465F4552524F525F4E4F545F53557B
:10A7B80050504F52544544004E52465F4552524FF6
:10A7C800525F494E56414C49445F504152414D00F9
:10A7D8004E52465F4552524F525F494E56414C4980
:10A7E800445F5354415445004E52465F4552524FC0
:10A7F800525F494E56414C49445F4C454E47544878
:10A80800004E52465F4552524F525F494E56414C98
:10A8180049445F464C414753004E52465F455252A9
:10A828004F525F494E56414C49445F4441544100A0
:10A838004E52465F4552524F525F444154415F5316
:10A84800495A45004E52465F4552524F525F54494D
:10A858004D454F5554004E52465F4552524F525F38
:10A868004E554C4C004E52465F4552524F525F4631
:10A878004F5242494444454E004E52465F4552525B
:10A888004F525F494E56414C49445F41444452003F
:10A898004E52465F4552524F525F42555359004EF1
:10A8A80052465F4552524F525F434F4E4E5F434FA1
:10A8B800554E54004E52465F4552524F525F5245D4
:10A8C800534F5552434553004E52465F4552524FDF
:10A8D800525F4D4F44554C455F4E4F545F494E496A
:10A8E8005449414C495A4544004E52465F455252DC
:10A8F8004F525F4D555445585F494E49545F464144
:10A90800494C4544004E52465F4552524F525F4DA6
:10A91800555445585F4C4F434B5F4641494C45445D
:10A92800004E52465F4552524F525F4D555445585E
:10A938005F554E4C4F434B5F4641494C4544004E92
:10A9480052465F4552524F525F4D555445585F43EA
:10A958004F4E445F494E49545F4641494C45440077
:10A968004E52465F4552524F525F4D4F44554C45EB
:10A978005F414C52454144595F494E495449414C05
:10A98800495A4544004E52465F4552524F525F5312
:10A99800544F524147455F46554C4C004E52465F16
:10A9A8004552524F525F4150495F4E4F545F494D97
:10A9B800504C454D454E544544004E52465F455215
:10A9C800524F525F464541545552455F4E4F545F72
:10A9D800454E41424C4544004E52465F4552524F07
:10A9E800525F494F5F50454E44494E47004E5246CC
:10A9F8005F4552524F525F4452565F5457495F4524
:10AA080052525F4F56455252554E004E52465F4580
:10AA180052524F525F4452565F5457495F45525203
:10AA28005F414E41434B004E52465F4552524F5292
:10AA38005F4452565F5457495F4552525F444E41F6
:10AA4800434B004E52465F4552524F525F424C456F
:10AA58005F495053505F52585F504B545F545255A2
:10AA68004E4341544544004E52465F4552524F5260
:10AA78005F424C455F495053505F4348414E4E45F5
:10AA88004C5F414C52454144595F455849535453D2
:10AA9800004E52465F4552524F525F424C455F4905
:10AAA8005053505F4C494E4B5F444953434F4E4EB1
:10AAB8004543544544004E52465F4552524F525FFB
:10AAC800424C455F495053505F504545525F52458F
:10AAD8004A454354454400556E6B6E6F776E20654A
:10AAE80072726F7220636F646500000000000000DE
:10AAF80025A702000100000031A7020002000000A3
:10AB08004FA702000300000070A702000400000025
:10AB180083A702000500000094A7020006000000B9
:10AB2800A8A7020007000000C0A702000800000054
:10AB3800D8A7020009000000F0A702000A000000E0
:10AB480009A802000B00000021A802000C00000068
:10AB580038A802000D0000004CA802000E000000FA
:10AB68005EA802000F0000006DA80200100000009F
:10AB780081A802001100000098A80200120000003D
:10AB8800A7A8020013000000BCA802008000000073
:10AB9800D0A8020081000000F1A802008200000095
:10ABA8000DA902008300000029A90200840000000A
:10ABB80047A902008500000068A90200860000007D
:10ABC8008DA9020090000000A4A9020091000000D5
:10ABD800C2A9020092000000E0A902000082000061
:10ABE800F5A902000182000013AA020002820000F7
:10ABF8002FAA0200008400004BAA02000184000072
:10AC08006FAA02000284000099AA020003840000CF
:10AC1800BEAA0200000001010100000001010000BD
:10AC2800000001010000000011121314636C6F632F
:10AC38006B00434C4F434B004750494F544500501D
:10AC4800525300554152540055415254450000009A
:10AC58000D000300B59402000E000300B594020035
:10AC68000F000300B594020010000300B594020021
:10AC7800181900203819002058190020426561630E
:10AC88006F6E206578616D706C6520737461727485
:10AC980065642E006E72665F7364680001000007C9
:10ACA8009CA402009CA4020008000000A4A40200C6
:10ACB800B4A40200080000009CA40200A4A402009E
:10ACC8000800000073645F626C655F6366675F73AA
:10ACD800657428292072657475726E656420257301
:10ACE800207768656E20617474656D7074696E672D
:10ACF80020746F2073657420424C455F434F4E4E5D
:10AD08005F4346475F4741502E0073645F626C653E
:10AD18005F6366675F73657428292072657475724E
:10AD28006E6564202573207768656E20617474658C
:10AD38006D7074696E6720746F2073657420424C5F
:10AD4800455F4741505F4346475F524F4C455F431D
:10AD58004F554E542E0073645F626C655F6366677F
:10AD68005F73657428292072657475726E65642036
:10AD78002573207768656E20617474656D707469D9
:10AD88006E6720746F2073657420424C455F434F93
:10AD98004D4D4F4E5F4346475F56535F55554944A7
:10ADA8002E0073645F626C655F6366675F736574CA
:10ADB80028292072657475726E6564202573207762
:10ADC80068656E20617474656D7074696E6720744F
:10ADD8006F2073657420424C455F47415454535F5C
:10ADE8004346475F415454525F5441425F53495A66
:10ADF800452E0073645F626C655F6366675F7365A9
:10AE08007428292072657475726E65642025732014
:10AE18007768656E20617474656D7074696E6720FB
:10AE2800746F2073657420424C455F4741545453F6
:10AE38005F4346475F534552564943455F43484140
:10AE48004E4745442E00496E7375666669636965A9
:10AE58006E742052414D20616C6C6F63617465643F
:10AE680020666F722074686520536F667444657637
:10AE78006963652E004368616E67652074686520A4
:10AE880052414D207374617274206C6F63617469F0
:10AE98006F6E2066726F6D203078257820746F2071
:10AEA800307825782E004D6178696D756D20524196
:10AEB8004D2073697A6520666F72206170706C69C5
:10AEC800636174696F6E20697320307825782E006D
:10AED80073645F626C655F656E61626C65282920CA
:10AEE80072657475726E65642025732E006E7266C5
:10AEF8005F7364685F626C65000000009CA40200D8
:10AF08009CA40200080000006E72665F7364685FAC
:10AF1800736F630094A402009CA402000800000060
:10AF280043000000504F53495800000020202020C3
:10AF380020202020206828282828202020202020A1
:10AF48002020202020202020202020204810101001
:10AF58001010101010101010101010108484848419
:10AF680084848484848410101010101010818181CE
:10AF78008181810101010101010101010101010139
:10AF880001010101010101101010101010828282CC
:10AF98008282820202020202020202020202020209
:10AFA8000202020202020210101010200007032001
:10AFB80004170201085710408000000028AF020063
:10AFC8002CB0020040B1020053756E004D6F6E0048
:10AFD80054756500576564005468750046726900C9
:10AFE80053617400000000004A616E00466562000B
:10AFF8004D617200417072004D6179004A756E00B2
:10B008004A756C0041756700536570004F637400A2
:10B018004E6F76004465630000000000414D00500B
:10B028004D00000064B1020060B1020060B102008E
:10B0380060B1020060B1020060B1020060B10200BC
:10B0480060B1020060B1020060B10200FFFFFFFFC3
:10B05800FFFFFFFFFFFFFFFFFFFF0000A0B00200A0
:10B06800D0AF0200DCB00200F0AF020024B0020052
:10B0780084B0020034B1020090B00200256D2F2583
:10B08800642F2579000000002561202562202565B0
:10B09800202554202559000053756E646179004DB0
:10B0A8006F6E6461790054756573646179005765E2
:10B0B800646E65736461790054687572736461794C
:10B0C80000467269646179005361747572646179CC
:10B0D800000000004A616E7561727900466562720F
:10B0E80075617279004D6172636800417072696CB4
:10B0F800004D6179004A756E65004A756C790041AA
:10B1080075677573740053657074656D6265720058
:10B118004F63746F626572004E6F76656D6265721B
:10B1280000446563656D62657200000025483A2534
:10B138004D3A255300000000C1A20200DDA2020022
:10B14800E9A20200F5A2020011A302001DA3020059
:10B1580029A3020037A30200000000002E0000000F
:10B168000000000000200040000000000020004017
:10B178000000000000000000FF00000000000000C8
:10B188000000000000000000FFFFFFFFFFFFFFFFBF
:10B1980000000000000000000000000000000000A7
:10B1A80000100140110004000090D00300000000CE
:10B1B8000000000000000000FFFFFFFFFFFFFFFF8F
:10B1C8000000000000000000000000000000000077
:10B1D8000000000000000000FFFFFFFFFFFFFFFF6F
:10B1E8000000000000000000000000000000000057
:10B1F8000000000000000000FFFFFFFFFFFFFFFF4F
:10B208000000000000000000000000000000000036
:10B218006C2100201F00000000000000000000005A
:10B22800FF02150112233445566778899AABBCCDC5
:10B23800DEEFF001020304C3C4AF0200C4AF020092
:0CB24800C4AF0200C4AF0200C4AF02009B
:040000032000637501
:00000001FF
